:020000040800F2
:10000000980C0020A5020008EF270008DD23000857
:10001000ED270008510600088930000800000000A4
:10002000000000000000000000000000252A000879
:10003000050700080000000085280008272A00089E
:10004000BF020008BF020008BF020008BF0200088C
:10005000BF020008BF02000809070008790700086E
:10006000BF020008BF020008BF020008BF0200086C
:10007000BF020008BF020008BF020008BF0200085C
:10008000BF020008BF020008BF020008BF0200084C
:10009000BF020008BF020008BF020008BF0200083C
:1000A000BF020008DD2A0008BF020008BF020008E6
:1000B000BF020008BF020008BF020008BF0200081C
:1000C000BF020008BF020008BF020008BF0200080C
:1000D000BF020008BF020008BF020008BF020008FC
:1000E000BF020008BF020008BF020008BF020008EC
:1000F000BF020008BF020008BF020008BF020008DC
:10010000BF020008BF020008BF020008BF020008CB
:10011000BF020008D92D0008BF020008BF02000876
:1001200055060008BF020008BF020008BF02000811
:10013000BF0200080000000000000000BF0200082D
:10014000BF020008BF020008BF020008BF0200088B
:10015000BF020008BF020008BF020008BF0200087B
:10016000BF020008BF020008BF020008BF0200086B
:10017000BF020008BF020008BF0200080000000024
:1001800000000000BF0200080000000000000000A6
:10019000BF0200080000000000000000BF020008CD
:1001A000000000000000000000000000BF02000886
:1001B000BF020008BF020008BF020008BF0200081B
:1001C000BF02000800F002F800F05CF80AA090E816
:1001D000000C82448344AAF10107DA4501D100F002
:1001E00051F8AFF2090EBAE80F0013F0010F18BF73
:1001F000FB1A43F001031847BC450000DC45000032
:100200000A444FF0000C10F8013B13F0070408BF3C
:1002100010F8014B1D1108BF10F8015B641E05D0DA
:1002200010F8016B641E01F8016BF9D113F0080F8F
:100230001EBF10F8014BAD1C0C1B09D16D1E58BF21
:1002400001F801CBFAD505E014F8016B01F8016B58
:100250006D1EF9D59142D6D37047000000230024CB
:1002600000250026103A28BF78C1FBD8520728BFC6
:1002700030C148BF0B6070471FB504F080FA1FBD46
:1002800010B510BD00F0CFF81146FFF7F5FF03F0F1
:100290001DF800F0EDF803B4FFF7F2FF03BC00F027
:1002A000F5F800000948804709480047FEE7FEE7E7
:1002B000FEE7FEE7FEE7FEE7FEE7FEE7FEE7FEE716
:1002C00004480549054A064B70470000CD2A00083E
:1002D000C501000898060020980C0020980800200E
:1002E0009808002053EA020C00F069802DE9F04BD9
:1002F0004FF00006002B1FBFB3FA83F503FA05F495
:1003000024FA05F65E4012BF1643B2FA82F502FAED
:1003100005F4C5F120051EBF22FA05FC44EA0C04D1
:10032000203556EA044C4FEA144418BF641C4FF0C1
:1003300000084FF00009904271EB030C39D30029FB
:1003400019BFB1FA81F701FA07F6B0FA80F700FA9F
:1003500007F6C7F120071EBF20FA07FC46EA0C0685
:100360002037B6FBF4FCA7EB0507103F07F01F0B87
:10037000CBF120060CFA0BFB2CFA06F644BFB34671
:100380000026202FA4BF5E464FF0000B5BEA060C50
:1003900008BF4FF0010B19EB0B09ABFB027C48EBDC
:1003A0000608C01B06FB02CC0BFB03CC71EB0C0157
:1003B000C1E70B46024641464846BDE8F08B13B5FF
:1003C0004FF000004FF00001AFF30080BDE81C408B
:1003D00070474FF0000200B5134694469646203908
:1003E00022BFA0E80C50A0E80C50B1F12001BFF4EE
:1003F000F7AF090728BFA0E80C5048BF0CC05DF854
:1004000004EB890028BF40F8042B08BF704748BFA1
:1004100020F8022B11F0804F18BF00F8012B704715
:10042000704770477047754600F02CF8AE460500DF
:100430006946534620F00700854618B020B5FFF7FF
:100440003FFFBDE820404FF000064FF000074FF09F
:1004500000084FF0000B21F00701AC46ACE8C009E2
:10046000ACE8C009ACE8C009ACE8C0098D467047EB
:1004700010B50446AFF300802046BDE81040FFF7FA
:100480000ABF0000004870473806002001491820C4
:10049000ABBEFEE726000200704710B50146806B38
:1004A000026C12F0500F05D0026CD20626D500F077
:1004B00054FA10BD016C41F40071016401688A684E
:1004C00012F0405F17D1027EAAB9CA6A12F4700F07
:1004D00002D08A6852050ED44A6822F020024A608F
:1004E000016C21F480710164016CC90403D4016CB6
:1004F00041F00101016400F029FA10BD806BC26C6B
:10050000BDE810400846104710B5806B40210164DB
:10051000416C41F00401416400F01FFA10BD10B5B8
:10052000806B00F019FA10BD464910B54A6822F4F4
:1005300040324A604A6843681A434A6001684A6820
:1005400022F480724A6001684A68036942EA032221
:100550004A6001684A6822F040724A6001684A684D
:1005600083681A434A6001688A6822F400628A60DC
:1005700001688A68C3681A438A60816A6FF0706292
:10058000D14201688A6822F070628A6001688A68D4
:100590000CD0836A1A438A6001688A6822F040524C
:1005A0008A6001688A68C36A1A4301E022F04052F7
:1005B0008A6001688A6822F002028A6001688A689B
:1005C000037E42EA43028A6090F820100029016805
:1005D0004A680FD042F400624A6001684A6822F417
:1005E00060424A6001684A68174C436A04EB43332F
:1005F0001A4301E022F400624A600168CA6A22F4E8
:100600007002CA620168CA6A838B104C04EB035300
:100610001A43CA6201688A6822F400728A6001681B
:100620008A6890F8303042EA43228A6001688A681A
:1006300022F480628A6001688A68406942EA802008
:10064000886010BD0023014000E0FFFF0000F0FFC4
:10065000FEE70000014800F00FBB0000D8050020B5
:1006600001681823CAB2103AB2FBF3F2054B6FF3DC
:100670000901032A9B5CC36500D9091D81650846F1
:10068000704700009247000810B5014600208B69B2
:100690008A6A4FF0C07453B1B3F5005F15D072B1E0
:1006A000012A0CD0022A0AD0032A09D104E01AB187
:1006B000012A06D0022A03D1C96AC90100D5012046
:1006C00010BDC96AA142FAD010BD002AF7D0012A94
:1006D000F2D0022AF3D0032AF3D010BD30B504685B
:1006E000256825F480252560046863608368402BB5
:1006F000036803D099600068C26030BD9A600068EA
:10070000C16030BD7047000012480168124A116094
:100710000021016011480068012818D110480068C4
:10072000012814D10F481049104A00680968014493
:10073000491C11600D491031401C08600C480068CC
:10074000016841F0010101600A49012008600120AF
:1007500000F004BC240C0040B4000020EC00002099
:1007600098000020380000203C0000202C040040AD
:10077000EC010020AC00002011480068114908601D
:1007800011480068012818D110480068012814D1C8
:100790000F481049104A006809680144491C11605B
:1007A0000D490831401C08600C480068016841F0A0
:1007B000010101600A4901200860022000F0CEBB5F
:1007C000240C0040B8000020EC000020980000201D
:1007D000380000203C0000202C080040340200209B
:1007E000B000002072B6FEE778B50024009490F8BF
:1007F0003C20012A19D0012280F83C200A680723F6
:100800000568092A13D9EE680A3A02EB42029340BE
:100810009E43EE600B788A680A3B03EB43039A40E1
:100820000368DD682A43DA6010E0022078BD2E6993
:1008300002EB420293409E432E610B788A6803EBE1
:1008400043039A4003681D692A431A614A681F23BB
:10085000072A13D205686E6B521E02EB8202934088
:100860009E436E630A8893B20A79521E02EB82029B
:1008700093400268556B2B43536327E005680D2AAC
:1008800012D22E6BD21F02EB820293409E432E6344
:100890000B790A88DB1F92B203EB83039A4003684B
:1008A0001D6B2A431A6311E0EE6A0D3A02EB8202D5
:1008B00093409E43EE620B790A880D3B92B203EBA4
:1008C00083039A400368DD6A2A43DA621B4B05689A
:1008D000194A9D420AD10D68122D07D1556825F499
:1008E00000055560556845F48005556005689D42D2
:1008F0001DD1134D0B68AB4201D0112B17D153689A
:1009000023F480035360536843F400035360096881
:10091000A9420CD10B490C4A0968B1FBF2F101EB79
:100920008101490000E0491E00910029FBD180F8B7
:100930003C40002078BD0000002301400020014021
:10094000120000105801002040420F000149012010
:1009500048667047000000207047704770B504007B
:100960004FF0000503D0206C002610B107E00120F5
:1009700070BD204600F01CF8666484F83C60206C72
:10098000C00610D4206C20F4885040F0020020648F
:100990002046FFF7C9FD6664206C20F0020040F09D
:1009A0000100206400E0012584F83C60284670BD09
:1009B00070B586B0064614216846FFF70AFD254942
:1009C0003068884244D124480025016841F48061A0
:1009D00001600068204900F48060143905900868BF
:1009E00040F004000860086800F004000590086802
:1009F00040F0010008600868032400F00100059041
:100A000001208DE831006946144800F0B3FA0F2048
:100A10008DE831006946124800F0ACFA124C1148DA
:100A200020608005C4E901050014C4E9035080007A
:100A300060618000A0618011E0610002C4E90805E6
:100A4000204600F0E9F908B1FFF7CCFEB463A663D5
:100A500006B070BD00220140443802400008024048
:100A60000000024010640240D8050020F8B504469A
:100A700000200E46009094F83C10012907D0012177
:100A800084F83C1021688B68DB0702D011E002205B
:100A9000F8BD8B6843F001038B604049404B096807
:100AA000B1FBF3F101EB410100E0491E0091002987
:100AB000FBD121688B68DB0503D58B6823F4807339
:100AC0008B6021688B68DB075DD0236C40F2016589
:100AD000AB4343F4807323644968490505D5216C11
:100AE00021F4005141F480512164216CC90404D5E2
:100AF000616C21F00601616400E0606484F83C00F0
:100B0000A16B2948274DC863A16B28480864A16BD5
:100B10002748C86421686FF0220008602068416897
:100B200041F0806141602068816841F4807181609A
:100B30002168134632464C31A06B00F0D7F9686843
:100B40001C49C006206806D0884224D1816811F073
:100B5000405F13D01FE08842F8D0174A904203D17B
:100B6000D1F80423D206F1D0144A904213D1D1F81F
:100B7000041301F01F011029E8D30CE0816841F053
:100B80008041816007E0206C40F010002064606CC0
:100B900040F0010060640020F8BD00005801002012
:100BA00040420F00002301409B0400081F0500087D
:100BB00009050008002001400021014000220140F9
:100BC0002DE9F0410446876D00F0C8FA064694F816
:100BD00035000025022806D08020606584F8345056
:100BE0000120BDE8F0812068016821F01601016054
:100BF0002068416921F080014161206C08B9A06C36
:100C000020B12068016821F00801016020680168B6
:100C100021F0010101600CE000F0A0FA801B052822
:100C200007D920206065032084F8350084F834500B
:100C3000D7E720680068C007EED194F85C103F2029
:100C40008840B860012084F8350084F834500020D2
:100C5000C7E790F83510022903D0802141650120B3
:100C60007047052180F835100068016821F0010106
:100C700001600020704700002DE9F84304464FF062
:100C80000009CDF8009063484FF41651A56D006837
:100C9000B0FBF1F72E6894F85C10082000FA01F11F
:100CA00031420FD021680A6852070BD50A6822F03A
:100CB00004020A6094F85C108840A860606D40F0FF
:100CC0000100606594F85C104FF0010808FA01F02B
:100CD000304208D021684969090604D5A860606DD2
:100CE00040F00200606594F85C10042088403042B7
:100CF00008D021680968890704D5A860606D40F0B4
:100D00000400606594F85C1010208840304218D0D0
:100D100021680968090714D5A8602068016849039B
:100D200004D50068000308D5A16C07E00168C90577
:100D300003D4016821F008010160216C09B120464B
:100D4000884794F85C1020208840304231D02168D8
:100D50000968C9062DD5A86094F8350005282068D3
:100D6000016806D0490347D5006800031DD4616CB3
:100D70001CE021F0160101602068416921F080012A
:100D80004161206C08B9A06C20B12068016821F095
:100D90000801016094F85C103F208840A86084F846
:100DA000358084F83490216D1FE0E16B09B1204655
:100DB0008847606D00282BD0606DC00714D00520D7
:100DC00084F835002068016821F001010160009875
:100DD000401C0090B84203D820680068C007F6D1D4
:100DE00084F8358084F83490E16C002910D001B08B
:100DF0002046BDE8F04308470168C905D5D401681D
:100E000021F01001016084F8358084F83490CCE73B
:100E1000BDE8F883580100202DE9F041044600F0B8
:100E20009DF906465CB1022084F83500002584F85F
:100E300034502068016821F0010101600DE00120BB
:100E4000BDE8F08100F08AF9801B052805D9202033
:100E50006065032084F83500F2E720680068C00769
:100E6000F0D12268116820480140D4E901031843F9
:100E7000D4E903363343184363691843A36918431D
:100E8000E3691843236A18430843616A042903D1BC
:100E9000D4E90B1319430843106020684069666A5F
:100EA00020F0070130460E43012704280CD1A06A28
:100EB0000643E06A40B12046FFF7E6FB20B1402040
:100EC000606584F83570BAE7206846612046FFF710
:100ED000C7FB94F85C203F2191408160656584F8F0
:100EE00035700020ACE700003F8010F02DE9F041A4
:100EF0000446866D90F83400002501280DD00120AD
:100F000084F8340094F835700020012F07D084F85D
:100F1000340002252846BDE8F0810220FBE70227C5
:100F200084F8357060652046FFF7D8FB94F85C10B4
:100F30003F208840B0602068016841F016010160E0
:100F4000206C20B12068016841F008010160206830
:100F5000016841F001010160DCE77047044910B508
:100F60000A68024202D00860FFF7F7FF10BD0000D8
:100F7000143C01402DE9F84FDFF8ACA10022012418
:100F800003254FF00F090AF1040BAAF1040E00BF6C
:100F90000B6804FA02F63340B3426ED10F7907F0C2
:100FA0000307012F01D0022F16D187684FEA4208AC
:100FB00005FA08FC27EA0C07D1F80CC00CFA08FC6B
:100FC0004CEA070CC0F808C04768B7430E79C6F36F
:100FD000001696403E4346600E79F643B6070AD0A7
:100FE000C6684FEA420C05FA0CF7BE438F6807FA51
:100FF0000CF73743C7600E7906F00306022E10D1B6
:10100000D60800EB8608D8F8206057074FEAD76C5F
:1010100009FA0CF7BE430F6907FA0CF73743C8F813
:10102000207006684FEA420C05FA0CF7BE430F79B0
:1010300007F0030707FA0CF7374307604E6816F40A
:10104000403F6BD0394E376847F480473760366889
:1010500022F0030706F480460096354E07EB060C97
:10106000DCF8086897074FEA177809FA08F7BE43D3
:10107000304FB84202D100271FE04FE02E4FB84258
:1010800001D1012719E02D4FB84201D1022714E008
:101090002B4FB84201D103270FE02A4FB84201D1AC
:1010A00004270AE0284FB84201D1052705E0274F61
:1010B000B84201D1062700E0072707FA08F73743AF
:1010C000CCF80878DAF800605746D1F804C09E439F
:1010D0005FEACC2C00D51E433E60DBF800605F4623
:1010E000D1F804C09E435FEA8C2C00D51E433E60BD
:1010F000DEF800607746D1F804C09E435FEA8C3C7E
:1011000000D51E433E60084F083F3E68D1F804C03A
:101110009E435FEACC3C00D51E433E60521C102A21
:10112000FFF436AFBDE8F88F083C01404438024078
:10113000003001400000024000040240000802406C
:10114000000C02400010024000140240001802404F
:101150000AB1816170470904FBE70000014880681B
:10116000704700004C010020024881680278114459
:10117000816070474C0100200B4810B5016841F4B4
:1011800000710160016841F480610160016841F40F
:1011900080710160032000F06FF80F2000F006F866
:1011A00000F024F8002010BD003C024070B50D4D49
:1011B00004464FF47A712878B1FBF0F00A490968C7
:1011C000B1FBF0F000F074FB48B9102C07D20022FC
:1011D0002146501E00F030F800206C6070BD0120E8
:1011E00070BD00004C010020580100200A4808B5DD
:1011F000016841F480410160006800F48040009083
:101200000548001F016841F080510160006800F04E
:101210008050009008BD000044380240002809DBDF
:1012200000F01F02012191404009800000F1E02000
:10123000C0F8001170470000F0B40E4B1B680C465C
:10124000C3F30223C3F10705042D00D90425191D9A
:10125000072901D2002300E0DB1E012606FA05F172
:10126000491E214099409E40761E16403143F0BCF5
:1012700001F00BBF0CED00E0064900F00702086822
:101280004FF6FF03184040EA0220034A104308606B
:10129000704700000CED00E00000FA052DE9F8436E
:1012A0001748016841F0805101600068154F00F057
:1012B0008050012600903E64FFF750FF05464FF432
:1012C0007A78114C05E000BFFFF748FF401B40450E
:1012D0000DD86068C003F7D57E64FFF73FFF054671
:1012E000464607E0FFF73AFF401BB04202D9032011
:1012F000BDE8F88360688003F4D50020F8E70000BB
:101300004038024000000E42007000402DE9F047D6
:101310000E46050065D0DFF81481D8F80000F7B25A
:1013200000F00F00B04207D288F80070D8F8000033
:1013300000F00F00B04254D128683D4C810712D50F
:10134000400703D5206840F4E0502060287800076B
:1013500003D5206840F4604020602068A96820F030
:10136000F000084320602878C0072DD03049686815
:101370000839012812D0022813D0032811D0096897
:10138000890700292DDA216821F00301014321603A
:10139000FFF7E4FE814641F2883A0EE009688903CE
:1013A000EFE709688901ECE7FFF7D8FEA0EB090138
:1013B000514502D90320BDE8F0872068696800F034
:1013C0000C00B0EB810FEFD1D8F80010404601F0CF
:1013D0000F01B14207D90770006800F00F00B0425A
:1013E00001D00120E7E72878400705D52068E968A3
:1013F00020F4E050084320602878000706D52068D4
:10140000296920F4604040EAC100206000F038F80B
:101410002168084AC1F30311515CC84006490860BD
:1014200006480068FFF7C2FE0020C4E7003C024007
:10143000083802409A470008580100205001002057
:101440000448054900680968044AC1F38221515CD7
:10145000C84070475801002008380240AA470008D9
:101460000448054900680968044AC1F34231515CE7
:10147000C84070475801002008380240AA470008B9
:10148000224810B5006810F00C02214815D02149FF
:10149000042A11D01D4C241F082A0FD00C2A0CD16D
:1014A0002268236802F03F025B0221D52068C0F366
:1014B0008810A0FB010120E0084610BD22682368C7
:1014C00002F03F025B0205D52068C0F38810A0FB44
:1014D000010104E02168C1F38811A1FB0001002390
:1014E000FEF700FF2168C1F30141491C49000AE0F1
:1014F0002168C1F38811A1FB00010023FEF7F2FE71
:101500002168C1F30271B0FBF1F010BD0838024050
:101510000024F40040787D012DE9F84F04007DD0CF
:10152000DFF878B32078ABF10407C007A7F1040512
:1015300050D0DBF800105846C1F3810101290FD0CB
:101540000168C1F38101022902D13968490207D437
:101550000068C0F38100032809D13868400206D52D
:101560002868800336D560680028D8D032E06068EB
:10157000B0F5803F10D0B0F5A02F286810D020F42F
:1015800080302860286820F4802028606068A0B13E
:10159000FFF7E4FD06460CE0286840F48030F4E7ED
:1015A00040F480202860F7E7FFF7D8FD801B64280F
:1015B00076D828688003F7D50CE0FFF7CFFD064604
:1015C00005E000BFFFF7CAFD801B6428F0D828683B
:1015D0008003F7D42078DFF8C89280074FF0000A24
:1015E00044D5DBF80010584611F00C0F0FD00168FD
:1015F000C1F38101022902D13968490207D5006887
:10160000C0F3810003280AD13868400207D4286853
:10161000800715D5E068012800D111E03AE1E068C3
:10162000B0B10120C9F80000FFF798FD064604E0BC
:10163000FFF794FD801B0228BAD828688007F7D5E9
:101640002868216920F0F80040EAC10028600DE018
:10165000C9F800A0FFF782FD064604E0FFF77EFD13
:10166000801B02281CD828688007F7D42078000740
:1016700027D5DFF828828B48616908F16C0881B1B1
:1016800001210160FFF76AFD064604E0FFF766FDF1
:10169000801B022804D8D8F800008007F6D510E097
:1016A00089E0C0F800A0FFF759FD064605E000BF3D
:1016B000FFF754FD801B02287DD8D8F80000800772
:1016C000F6D42078400769D574484FF000083830C8
:1016D0000068C0000BD471483830016841F0805177
:1016E000016000684FF0010800F0805000906E4EDD
:1016F0003068C00511D4306840F480703060FFF766
:101700002DFD009006E000BFFFF728FD0099401A6C
:10171000022850D83068C005F6D5604EA0686836FB
:1017200001280FD00528306810D020F0010030606B
:10173000306820F004003060A068B8B1FFF70EFDFB
:1017400000900FE0306840F00100F4E740F0040042
:101750003060F7E7FFF702FD0099411A41F2883047
:10176000814264D830688007F4D50EE0FFF7F6FCBC
:10177000009007E0FFF7F2FC0099411A41F288302F
:10178000814254D830688007F4D4B8F1000F05D0F6
:1017900042483830016821F080510160A069A8B347
:1017A000DBF80010C1F38101022947D00228C9F8F3
:1017B00060A005D000E03AE0FFF7D0FC044639E035
:1017C000FFF7CCFC064604E0FFF7C8FC801B0228AC
:1017D0002DD828688001F7D4F4E907010843E168AF
:1017E000324A490802EB0141A26841EA82110843EA
:1017F000217C40EA0160217D40EA017038600120CF
:10180000C9F86000FFF7AAFC044606E044E000BF08
:10181000FFF7A4FC001B022809D828688001F7D52F
:101820003AE000BFFFF79AFC001B022802D9032010
:10183000BDE8F88F28688001F4D42DE00128F7D0A6
:101840003868E26900F48001914223D1226A00F0F5
:101850003F0191421ED147F6C071626A0140B1EB6F
:10186000821F17D1A26A4FF0FF3300F4403103EB1F
:101870005202B1EB024F0DD194F82C2000F07061B0
:10188000B1EB026F06D194F8301000F0E040B0EBFD
:10189000017F01D00120CBE70020C9E708380240D2
:1018A00000004742800E4742007000400000FFFFEA
:1018B00010B5401EB0F1807F01D3012010BD4FF064
:1018C000E02460610F21601701F0DFFB0020A061C0
:1018D00007202061002010BD7047704770B590F858
:1018E0003C20012A32D0012480F83C40022280F8BA
:1018F0003D2003685A689D6822F070060A683243EA
:101900005A60134B02689A4214D0B2F1804F11D042
:10191000104B9A420ED0104B9A420BD00F4B9A426A
:1019200008D00F4B9A4205D00E4B9A4202D00E4B74
:101930009A4204D1496825F080031943916080F8E8
:101940003D40002180F83C10084670BD022070BD6B
:10195000000001400004004000080040000C00406E
:1019600000040140004001400018004010B5040090
:1019700003D094F83D0010B107E0012010BD002015
:1019800084F83C00204600F01FF8022084F83D0057
:10199000211D206801F0B6F8012084F8460084F883
:1019A0003E0084F83F0084F8400084F8410084F849
:1019B000420084F8430084F8440084F8450084F829
:1019C0003D00002010BD000008B501681C488142A0
:1019D00012D11C48016841F0010101600068002239
:1019E00000F00100009011461920FFF725FCBDE82A
:1019F00008401920FFF712BC1248134A001F9142F9
:101A000007D1016841F002010160006800F00200A6
:101A100009E00E4A914208D1016841F004010160D9
:101A2000006800F00400009008BD094A9142FBD113
:101A3000016841F008010160006800F00800F2E769
:101A4000000001404438024000040040000800400B
:101A5000000C004090F83D10012901D00120704792
:101A6000022180F83D1000681149884214D0B0F17D
:101A7000804F11D00F4988420ED00F4988420BD0B9
:101A80000E49884208D00E49884205D00D49884247
:101A900002D00D49884204D1816801F0070106296E
:101AA00003D0016841F0010101600020704700008F
:101AB000000001400004004000080040000C00400D
:101AC00000040140004001400018004090F83D1023
:101AD000012901D001207047022180F83D100168E2
:101AE000CA6842F00102CA6000681149884214D0F5
:101AF000B0F1804F11D00F4988420ED00E49884274
:101B00000BD00E49884208D00D49884205D00D49B6
:101B1000884202D00C49884204D1816801F0070153
:101B2000062903D0016841F00101016000207047DF
:101B3000000001400004004000080040000C00408C
:101B400000040140004001400018004070B5044608
:101B500090F83C000025012817D0012684F83C604D
:101B6000022084F83D002068826822F0770222F487
:101B70007F4282600868502838D00DDC20284FD082
:101B800005DC90B3102811D14AE0022070BD302846
:101B900046D040280AD13BE060282FD070280DD0D5
:101BA000B0F5805F03D0B0F5005F12D0012584F856
:101BB0003D60002084F83C00284670BDCB68D1E928
:101BC0000121206801F00FF82068816841F0770159
:101BD00009E0CB68D1E90121206801F004F8206810
:101BE000816841F480418160E1E719E0CA68496891
:101BF000206801F0CDF85021206806E0CA684968E5
:101C0000206801F0D6F86021206800F0F6FFCEE7EA
:101C1000CA684968206801F0BBF840212068F4E7F1
:101C2000226801461046F0E7704770B50446006828
:101C300001694FF00005C943890715D4C168C9433C
:101C4000890711D4E91E016101202077206880698D
:101C50008007204602D0FFF7E7FF04E000F0D6F847
:101C6000204600F094F9257720680169C9434907A7
:101C700017D4C168C943490713D46FF00401016147
:101C8000022020772068806910F4407F204602D02F
:101C9000FFF7CAFF04E000F0B9F8204600F077F93A
:101CA000257720680169C943090716D4C168C9436B
:101CB000090712D46FF00801016104202077206821
:101CC000C0698007204602D0FFF7AEFF04E000F0B5
:101CD0009DF8204600F05BF9257720680169C9432B
:101CE000C90617D4C168C943C90613D46FF01001DF
:101CF0000161082020772068C06910F4407F2046E9
:101D000002D0FFF791FF04E000F080F8204600F0D9
:101D10003EF9257720680169C943C90708D1C16820
:101D2000C943C90704D1891E0161204600F030F97A
:101D300020680169C943090609D4C168C943090675
:101D400005D46FF0800101612046FFF7C5FD2068D2
:101D50000169C943490609D4C168C943490605D484
:101D60006FF040010161204600F013F9206801691D
:101D7000C94389060BD4C168C943890607D46FF0EB
:101D8000200101612046BDE87040FFF7A6BD70BD8F
:101D900030B587B0044614216846FEF71AFB246864
:101DA000154D0022154802210323AC420ED10468D0
:101DB00044F004040460006800F004000590C801C9
:101DC0008DE80F00049169460D4810E00D4DAC42BE
:101DD0000FD1046844F002040460006800F00200BF
:101DE000059040208DE80F00049169460648FFF7F2
:101DF000C1F807B030BD0000000400403038024098
:101E0000000802400008004000040240704770B51E
:101E10000D46040003D094F83D0010B107E0012006
:101E200070BD002084F83C00204600F01BF8022022
:101E300084F83D00211D206800F064FE20680168E0
:101E400021F00801016054F8460B01682943016044
:101E5000012004F81F09E0752076E0762077A07550
:101E6000002070BD704770B5044690F83C00002615
:101E70000D4601280FD0012084F83C006AB1042AE5
:101E80001DD0082A2FD00C2A3FD00126002084F82C
:101E90003C00304670BD022070BD206800F0B6FEE8
:101EA0002068816941F0080181612068816921F021
:101EB00004018161206881692A69114311E0206869
:101EC00000F0D4FE2068816941F4006181612068DE
:101ED000816921F480618161206881692A6941EA10
:101EE00002218161D2E7206800F0F6FE2068C16916
:101EF00041F00801C1612068C16921F00401C1619C
:101F00002068C1692A69114311E0206800F018FFB8
:101F10002068C16941F40061C1612068C16921F490
:101F20008061C1612068C1692A6941EA0221C161F9
:101F3000ACE710B5040003D094F83D0010B107E001
:101F4000012010BD002084F83C00204600F01EF85F
:101F5000022084F83D00211D206800F0D3FD0120FF
:101F600084F8460084F83E0084F83F0084F840007E
:101F700084F8410084F8420084F8430084F8440067
:101F800084F8450084F83D00002010BD704770477C
:101F90007047704770477047F8B501680446086895
:101FA000CA684B6910F00F0F4FF0000559D003F0CD
:101FB000010602F49077374365D0C10705D0D105FB
:101FC00003D5216C41F001012164410705D5D907F2
:101FD00003D0216C41F002012164810705D5D907A6
:101FE00003D0216C41F004012164010707D502F000
:101FF0002001314303D0216C41F008012164216CA0
:1020000000293AD0800604D5900602D5204600F07B
:1020100018FF20684069216CC0F38010090700D4C4
:1020200060B3204600F0E6FE20684069400621D5F6
:102030002068143050E8001F21F0400140E80012F1
:10204000002AF5D1A06BA8B16C490165A06BFEF721
:1020500000FE002811D0A06B016D01B0BDE8F0407A
:10206000084783060FD593060DD52046BDE8F840F6
:1020700000F0E7BE2046FFF78EFFF8BD2046FFF7D1
:102080008AFF2564F8BD266B2023012E79D1C60670
:1020900077D5D60675D50868486800904869400627
:1020A00040D5A16B086840680004000CEAD0A28DFE
:1020B0008242E7D9E085C869B0F5807F2DD02068DD
:1020C0000C3050E8001F21F4807140E80012002A13
:1020D000F5D12068143050E8001F21F0010140E8DC
:1020E0000012002AF5D12068143050E8001F21F0BA
:1020F000400140E80012002AF5D184F83E30256303
:1021000020680C3050E8001F21F0100140E8001258
:10211000002AF5D1A06BFEF753FDA08DE18D401A8A
:1021200081B229E0A08DE18D401A81B2E08D0028B6
:10213000A8D00029A6D020680C3050E8002F22F447
:10214000907240E80026002EF5D12068143050E847
:10215000002F22F0010240E80026002EF5D184F87D
:102160003E30256320680C3050E8002F22F010022A
:1021700040E80023002BF5D12046FFF70BFFF8BD08
:10218000FFE705062BD5150629D594F83D00212833
:10219000F5D1A068B0F5805F01D12069B0B1206AA7
:1021A000411C2162216800784860E08C401E0004D8
:1021B000000CE084E3D12068C16821F08001C16097
:1021C0002068C16841F04001C160D8E7206A0088FA
:1021D000C0F308004860206A801C2062E5E74006E2
:1021E000CDD55006CBD5CA68204622F04002CA6041
:1021F00084F83D3000F0F1F8C1E70000E52D00085B
:1022000070B5040004D094F83D00002510B106E03C
:10221000012070BD84F83C50204600F023F82420B3
:1022200084F83D002068C16821F40051C160204657
:1022300000F068FE2068016921F490410161206886
:10224000416921F02A0141612068C16841F40051CF
:10225000C1602564202084F83D0084F83E00002001
:1022600070BD0000F0B587B0044614216846FEF743
:10227000B0F82149206888423BD1204800240168F9
:1022800041F480110160006800F4801005901B4843
:102290001038016841F004010160016801F0040197
:1022A0000591016841F0080101600068022500F015
:1022B000080005904FF48050CDE9000502AA0326DE
:1022C000082782E8D00069460D48FEF753FE042037
:1022D000CDE9000502AA694682E8D0000948FEF768
:1022E00049FE002211463520FEF7A6FF3520FEF7F5
:1022F00095FF07B0F0BD000000500040403802409C
:1023000000080240000C0240064A08B50121116293
:1023100001680A6849680091016C41F00801016494
:1023200008BD0000000100202DE9F843044690F8A4
:102330003D001F4616460D4620284CD1C5B1BEB102
:1023400094F83C00012846D0012084F83C004FF06E
:102350000008C4F84080212084F83D00FEF7FEFE0E
:10236000A6848146E684A068B0F5805F03D004E0CF
:102370000120BDE8F883206928B12E465FF00005F2
:1023800084F83C800EE00026FAE78021204600F029
:102390003FFEA0B9AEB116F8010B21684860E08C91
:1023A000401EE084E08C4B464FF00002009700286E
:1023B000EBD14FF04001204600F02AFE30B103205F
:1023C000D7E735F8020BC0F30800E6E7202084F8D1
:1023D0003D000020CDE70220CBE77047FEE700007C
:1023E0007FB500252948009501950295264903955A
:1023F000016001244FF480310461C0E901150476C5
:1024000080F820502249C0E90A150526C661C5603A
:1024100080F830404561FEF7A1FA08B172B6FEE7D8
:10242000CDE90054694619480294FEF7DDF908B178
:1024300072B6FEE700940224694614480194FEF740
:10244000D3F908B172B6FEE70094032469460F4839
:102450000194FEF7C9F908B172B6FEE70420CDE990
:10246000004069460948FEF7BFF908B172B6FEE7B9
:102470000A20CDE9000669460448FEF7B5F90028B0
:1024800001D072B6FEE77FBD002201405C01002052
:102490000100000F2DE9F04186B014216846FDF7D8
:1024A00098FF34480024016841F00401016001688C
:1024B00001F004010591016841F00101016001682A
:1024C00001F001010591016841F00201016001681C
:1024D00001F002010591016841F008010160006806
:1024E000254F00F008004FF40056059000223146B9
:1024F0003846FEF72DFEDFF8848001224021404659
:10250000FEF726FE032000904FF40410CDE90104ED
:1025100069463846FEF72EFD4FF4A04001258DE8B0
:10252000310069463846FEF725FD0096CDE9015495
:10253000694638460394FEF71DFD40200090CDE922
:102540000154694640460394FEF714FD00221146EB
:102550000620FEF771FE0620FEF760FE00221146FF
:102560000720FEF769FE0720FEF758FE06B0BDE81B
:10257000F0810000303802400004024000080240B0
:1025800010B586B000241848009401940294039476
:10259000049414490594016040F20771C0E90114E4
:1025A00042F21071C0E903148021C0E90541FFF730
:1025B000DDF908B172B6FEE74FF48050009069462D
:1025C0000948FFF7C3FA08B172B6FEE7049404A9FC
:1025D00005480594FFF782F9002801D072B6FEE79E
:1025E00006B010BD00000140A401002030B58DB040
:1025F00000240794089409940A940B941C216846BB
:102600000C94FDF7E6FE2B4D29482860B320C5E960
:1026100001044FF6FF70C5E903048020A861284635
:10262000FFF7A4F908B172B6FEE74FF480500790A7
:1026300007A92048FFF78AFA08B172B6FEE71D48DD
:10264000FFF777FC08B172B6FEE708211948FFF7DB
:10265000DEFB08B172B6FEE70B940BA915480C948B
:10266000FFF73CF908B172B6FEE760200090012048
:102670000190022002900822694604940D48FFF759
:10268000F2FB08B172B6FEE701220821286800F0CB
:102690009DFA29686FF0010008612868C16841F05F
:1026A0000101C1600348FFF773FB0DB030BD0000AE
:1026B00000040040EC01002030B58DB000240794E8
:1026C000089409940A940B941C2168460C94FDF715
:1026D00080FE2B4D29482860B320C5E901044FF640
:1026E000FF70C5E903048020A8612846FFF73EF982
:1026F00008B172B6FEE74FF48050079007A9204852
:10270000FFF724FA08B172B6FEE71D48FFF711FC87
:1027100008B172B6FEE708211948FFF778FB08B147
:1027200072B6FEE70B940BA915480C94FFF7D6F888
:1027300008B172B6FEE760200090012001900220EF
:1027400002900022694604940D48FFF78CFB08B103
:1027500072B6FEE701220021286800F037FA2968E6
:102760006FF0010008612868C16841F00101C16093
:102770000348FFF70DFB0DB030BD0000000800401E
:102780003402002010B586B000241748009401944C
:102790000294039404941349059401605921C0E9FB
:1027A0000114611EC0E9031480218161FFF7DEF886
:1027B00008B172B6FEE74FF48050009069460A48AF
:1027C000FFF7C4F908B172B6FEE7049404A90648FD
:1027D0000594FFF783F8002801D072B6FEE706B033
:1027E00010BD0000000C00407C020020FEE7FEE768
:1027F0002349C86A012802D0086B01283CD120482F
:102800000A6A803091ED1E0A012A36D0D1ED170AEE
:102810001B4930EE600A803980ED030A90ED040A0E
:10282000D0ED030A70EE201AC0ED041A90ED060AEE
:1028300030EEC01A80ED051A91ED140A91ED152ABB
:1028400020EE200A02EE210AD1ED161A01EE810ACD
:1028500080ED070AC0ED060AD1ED180AB4EEE00AD1
:10286000F1EE10FA06DCD1ED170AB4EEE00AF1EE53
:1028700010FA01D2C0ED070A7047D1ED160AC7E77A
:1028800080000020704700002DE9F0415C4D4FF0C2
:1028900000082DED088B05F1800404F1800695ED0C
:1028A0000D8A94ED1F0AB4EE408AF1EE10FA37D08B
:1028B00084ED1F8AC4F870805249286C884203DA7C
:1028C0009FED510A85ED100AD4ED1E8A9FED4F9BB6
:1028D000B4EEE88AF1EE10FA0BDD286C01F0DEFEB2
:1028E00053EC192B01F0E4FB41EC190B38EE680AAC
:1028F0000BE015D2286C01F0D1FE53EC192B01F03E
:10290000D7FB38EEC80A41EC190B10EE100A01F0A3
:10291000C5FE53EC192B01F0CBFB01F08BFB3060B3
:10292000606F01279FED3B9B9FED3CBB00284FD183
:102930006767A06F01F0B2FE53EC192B01F07AFD2E
:1029400041EC1A0B18EE100A01F0A8FE53EC1A2BFA
:1029500001F06EFE01D2206FF0B3A06F01F09EFE79
:1029600053EC1B2B01F066FD41EC180B686B01F07A
:1029700095FE53EC182B01F021FD01D2206F60B3BE
:1029800095ED0D0A84ED1E0A10EE100A01F086FE88
:1029900053EC1B2B01F04EFD41EC180BE06D01F0E8
:1029A0007DFE53EC182B01F043FE25D8A06F01F0FB
:1029B00075FE53EC192B01F03DFD41EC180BE06D59
:1029C00001F06CFE53EC182B01F0F8FC14D82767CB
:1029D000BDEC088BBDE8F08100E006E094ED1E0A36
:1029E000D6ED000A30EE200ACCE794ED1E0AD6EDB3
:1029F000000A30EE600AC5E7C4F87080E8E700001E
:102A0000000000200000C8420000C8420000000092
:102A100000005940295C8FC2F528F03FAE47E17AAB
:102A200014AEEF3F7047FEF79FBB000030B593B088
:102A300034216846FDF7CDFC14210DA8FDF7C9FC33
:102A400020480025016841F080510160006800F0D5
:102A5000805012901C48016841F4404101600068B8
:102A6000022400F4404012900120039010200490B2
:102A7000009406940820CDE90750B420CDE909045C
:102A80000B9468460C94FEF747FD08B172B6FEE75A
:102A9000FEF704FC08B172B6FEE70DA90F2081E82D
:102AA00031004FF4A05010904FF480501190052148
:102AB0000DA8FEF72BFC002801D072B6FEE713B07C
:102AC00030BD0000403802400070004002480168FC
:102AD00041F470010160704788ED00E00549002075
:102AE0000860054901200860044908600448FFF7B0
:102AF0009CB80000F400002040010020700000207D
:102B0000A4010020F0B50268254C264D264E274F23
:102B1000274B4FF0804CA04209D0604507D0A84217
:102B200005D0B04203D0B84201D0984204D122F07F
:102B3000700E4A6842EA0E02A0421BD0604519D0CE
:102B4000A84217D0B04215D0B84213D0984211D045
:102B5000184DA8420ED0184DA8420BD0174DA842D0
:102B600008D0174DA84205D0164DA84202D0164DE8
:102B7000A84203D122F44075CA682A434D6922F065
:102B800080022A4302608A68C2620A688262A042A6
:102B900001D0984201D10969016301214161F0BD71
:102BA000000001400004004000080040000C00400C
:102BB0000004014000400140004401400048014041
:102BC00000180040001C00400020004010B501F03B
:102BD0001F030121046A99408C430462016A9A40F0
:102BE0001143016210BD10B5846842EA032224F447
:102BF0007F440A432243826010BD826822F0700243
:102C00000A4342F00701816070470000F0B5026A94
:102C100022F001020262036A42688469124E24F0C3
:102C200073050C682C4323F002058B682B430D4D74
:102C3000A84201D0B04205D123F00807CB683B433E
:102C400023F00403A84201D0B04205D14D6922F41B
:102C5000407215438A692A4342608461496841632E
:102C60000362F0BD0000014000040140F0B5026ABB
:102C700022F010020262026A436884690D6824F43B
:102C8000E64444EA05248D6822F0200242EA051257
:102C90000F4D104EA84201D0B04206D1CF6822F0AD
:102CA000800242EA071222F04002A84201D0B0425C
:102CB00007D14D6923F4406343EA85038D6943EAF4
:102CC000850343608461496881630262F0BD00004E
:102CD0000000014000040140F0B5026A22F4807255
:102CE0000262026A4368C46922F4007224F0730528
:102CF0000C68124E2C438D6842EA05220E4DA84204
:102D000001D0B04206D1CF6822F4006242EA072225
:102D100022F48062A84201D0B04207D14D6923F469
:102D2000405343EA05138D6943EA05134360C461C8
:102D30004968C1630262F0BD000001400004014027
:102D400030B5026A22F480520262046A4268C369A2
:102D50000D6823F4E64343EA05238D6824F4005408
:102D600044EA0534084DA84202D0084DA84204D1D7
:102D70004D6922F4804242EA85124260C36149688B
:102D80000164046230BD0000000001400004014005
:102D900010B5036A046A24F001040462846924F013
:102DA000F00444EA021423F00A020A438461026236
:102DB00010BD10B5036A23F0100303628369046A2F
:102DC00023F4704343EA023224F0A00343EA0111E2
:102DD0008261016210BD00000148FFF7DDB800000C
:102DE000C402002010B5806B0021C185C184FFF7AB
:102DF000D2F810BD01680C3151E8002F22F4907216
:102E000041E80023002BF5D10168143151E8002F6F
:102E100022F0010241E80023002BF5D1016B0129CA
:102E200009D101680C3151E8002F22F0100241E86D
:102E30000023002BF5D1202180F83E1000210163F2
:102E4000704708B590F83E10222901D0022008BD35
:102E500082684FF480539A4201D1016921B1816A9D
:102E60009A421BD04AB10AE00268816A5268C2F3F2
:102E700008020A80816A891C08E0026972B102684E
:102E8000526802F07F020A70816A491C8162C18D1A
:102E9000491E0904090CC18503D019E00268526873
:102EA000F1E70168CA6822F02002CA600168CA68B6
:102EB00022F48072CA6001684A6922F001024A6104
:102EC000202180F83E10016B012903D0FFF71CFA86
:102ED000002008BD0021016301680C3151E8002F7A
:102EE00022F0100241E80023002BF5D101680A68A6
:102EF000D20602D50A6849680091818DFFF74AF829
:102F0000E6E7000070B5044600680169E26821F454
:102F10004051114301612169A068E2690843616978
:102F2000114308432168CA6849F20C639A4302437B
:102F3000CA6020684169A26921F44071114341616E
:102F400031492068884202D03049884202D1FEF7D8
:102F500087FA01E0FEF774FAE2690023192164257B
:102F60003226B2F5004F626828D0A0FB0101930F12
:102F70009200FDF7B7F90146B0FBF5F06FF01802CB
:102F8000504301EB800006EB0010B0FBF5F000F0C1
:102F9000F002B1FBF5F002EB0012B1FBF5F06FF0BF
:102FA0001803584301EB800006EB0010B0FBF5F06E
:102FB00000F00F0021681044886070BDA0FB010183
:102FC00092185B41FDF78EF90146B0FBF5F0020166
:102FD000B1FBF5F06FF01803584301EB800006EBEE
:102FE000C000B0FBF5F000F0F80002EB4002B1FBCE
:102FF000F5F0584301EB800006EBC000B0FBF5F0A4
:1030000000F00700D6E70000001001400014014066
:103010002DE9F041984617460E460446069D27E0E6
:10302000681C25D02DB1FEF799F8A0EB0800A84246
:103030001ED920680C3050E8001F21F4D07140E800
:103040000012002AF5D12068143050E8001F21F04A
:10305000010140E80012002AF5D1202084F83D004B
:1030600084F83E00002084F83C000320BDE8F08195
:103070002068006836EA000004D00020B842CFD0B3
:103080000020F3E70120F9E7FEE70907090E002811
:1030900004DB00F1E02080F80014704700F00F001E
:1030A00000F1E02080F8141D7047000030B5294978
:1030B0000124A1F1800391ED130AD3ED080A002247
:1030C000B8EE400A2448B4EEE00AF1EE10FA01DD51
:1030D000046000E0026091ED140AD3ED090AB8EE35
:1030E000400AB4EEE00AF1EE10FA01DD446000E0BF
:1030F000426091ED150AD3ED070AB8EE400AB4EE2E
:10310000E00AF1EE10FA01DD846000E0826011490E
:1031100000248031D1F83C3050F82450012D00D1EA
:103120000123641C0A2CF7DB0C48CB63012B0368DA
:103130000DD043F400530360084808380068C00409
:1031400002D5886A012801D1CA638A6230BD43F082
:103150000053F0E780000020AC0500201804024076
:10316000F0B5434800F1140201681160416811652F
:103170008168C2F8A010C168C2F8F010006913217C
:10318000C2F840015FF0000000EB800302EB031384
:1031900003EB8104401C54F8044C43F821400528FB
:1031A000F2DB491EEED5002532492B4628464D67F5
:1031B0000E6803E052F823405B1C2044B342F9DB65
:1031C0002C4C4867803410B1B0FBF6F0E064284620
:1031D0008D67002603464D6805E000BF02EB8607B9
:1031E000761C3F6D3B44AE42F8DB8B671E1E02D05F
:1031F000B6FBF5F32365C867002503468F6805E035
:1032000002EB850C6D1CDCF840C16344BD42F7DB6A
:10321000CB6716B1B3FBF7F36365636A002B25D167
:10322000206000250346CE6806E000BF02EB85075C
:103230006D1CD7F8A0703B44B542F7DB236013B197
:10324000B3FBF6F38B66606000250B6906E000BFF8
:1032500002EB85066D1CD6F8F06030449D42F7DB2A
:103260006060002802D0B0FBF3F0C866F0BD00003B
:1032700008030020000000201349A1F18002486AE1
:10328000D0B1012817D101F18000436A8B6190ED24
:103290000C0AB8EE400ABCEEC00A82ED0B0A90EDB3
:1032A0000D0AB8EE400ABCEEC00A82ED0C0A90EDA1
:1032B0000E0A82ED0D0A7047C8690028FBD04FF452
:1032C0007A701063704700008000002008B5FDF799
:1032D00053FFFFF7ABFBFFF7DDF850480024016810
:1032E00041F4800101600068224600F480000090F3
:1032F00021463820FDF7A0FF3820FDF78FFFFFF7AC
:1033000075F9FFF7D9F9FFF73DFAFFF769F8454876
:10331000434901604FF4E131C0E901140C21C4605C
:10332000C0E904418461C461FEF76AFF08B172B666
:10333000FEE7FFF725F93B484838FEF78BFB3A4894
:10334000FEF7C4FB374905224431A1F5D670FDF7DD
:103350008DFB3648016841F040010160344D35482D
:103360006C66016841F4005101602C63EC62EC630F
:103370009FED310A2C6485ED180A85ED170A05F1D9
:103380008007A5F18006386C012802D1FFF78EFE78
:103390003C6400F037F9386A012801D100F0BEFA28
:1033A000A869012813D1E86E08B900F0BFF9306FA1
:1033B000012802D100F020FA3467E869012806D11B
:1033C000E86E012803D1FFF713FAFFF75DFA706E7C
:1033D00001281CD1FFF7C4FE95ED130ADFED170A93
:1033E000B8EE400A20EE200ADFED150A85ED030A4B
:1033F00095ED140AB8EE400A20EE200A85ED040A85
:1034000095ED150AB8EE400A85ED050A7466FFF7DA
:1034100033FF00F017F800F055F9B4E730380240F8
:1034200000500040C4020020A401002018080240FF
:103430008000002018040240000000009A998B3C94
:103440000000203B2DE9F04166482DED088B466BCE
:10345000002E7DD0DFED641A9FED641A9FED648B22
:103460009FED659BA0F18004C56BD4ED0A0A94ED35
:103470000B0A94ED0CAA00F18007002D6ED002EE2D
:10348000105AB8EE400AF8EE422A81EEA22A80EDE8
:10349000182AC2EE201A61EE810AC0ED170A10EE5A
:1034A000100A01F0FBF800EE105A41EC1B0BB8EECD
:1034B000400A10EE100A01F0F1F853EC182B00F05E
:1034C000B9FF53EC192B00F0F3FD53EC1B2B00F06C
:1034D000B1FF00F045FFA063F86901F0DFF8B8EE36
:1034E0004A0A41EC1B0B10EE100A01F0D7F841EC30
:1034F0001A0B00EE105A00BFB8EE400A10EE100A88
:1035000001F0CCF853EC182B00F094FF53EC192B7E
:1035100000F0CEFD53EC1A2B00F08CFF53EC182B6F
:1035200000F088FF53EC192B00F0C2FD53EC1B2B6D
:1035300000F080FF00F014FF0146E063A06B01443F
:10354000B1F5803F03D34FF6FE71081AE06301E046
:1035500041E003E0BDEC088BBDE8F08102EE106AAB
:10356000B8EE400AF8EE422A81EEA22A80ED182A2F
:10357000C2EE201A61EE810AC0ED170A10EE100AA1
:1035800001F08CF800EE106A41EC1B0BB8EE400A1B
:1035900010EE100A01F082F853EC182B00F04AFFED
:1035A00053EC192B00F084FD53EC1B2B00F042FF71
:1035B00000F0D6FEA063F86901F070F8B8EE4A0A90
:1035C00041EC1B0B10EE100A01F068F841EC1A0BED
:1035D00000EE106A90E79FED0A0A80ED170A80ED71
:1035E000180AB4E7800000200024744900007042EB
:1035F000000000000000E03F0000000000408F409D
:10360000000000002A4810B584690021294B9FED75
:103610002A0A00F18002012C04D02CB3D46B012CB7
:1036200022D032E0446E002CF8D1D46B002CF5D1BE
:103630001C6844F480041C601D4B4FF4FA74803BFA
:10364000DC631E4C21600121416693ED0D1AD3ED20
:10365000130AB0EE082A71EE601A81EE821A71EE3A
:10366000200AC0ED1E0A10E0446E012C0DD11C682A
:1036700044F040041C60816141660163C162C16322
:10368000016480ED180A80ED170AC16911B18069E3
:1036900000280BD182ED030A82ED040A82ED050AAF
:1036A00082ED060A9FED060A82ED070A10BD0000B2
:1036B000800000201808024000000000240C004098
:1036C00000007A441748A0F1800290ED180AD2ED6C
:1036D000130A01468B69B4EEE00A0021F1EE10FAFC
:1036E00001DD012B01D04BB112E00123C366C36998
:1036F000012B0DD14FF47A73136309E0536C094A1F
:103700009FED090A8032C2E90113C16680ED1E0AED
:10371000C26A012A00D1C162026B012A00D1016391
:10372000704700008000002000000000F0B52D4828
:10373000012247689FB12C4C002304F148052B4E11
:103740002D682468A0F18001012F16D0022F13D11B
:103750008F6EA0F58072012F20D057B338E0244936
:103760000A60234B4FF6FE71103B1960214B1A6023
:10377000204B083B19604260F0BD33608E6E3EB155
:103780002A6842F001022A608B6602214160F0BD86
:10379000236843F0010323608A66F6E7346886688D
:1037A000B4EB560F14D38B662B6843F001032B60E8
:1037B00008E035688768BD420AD33360236843F068
:1037C000010323608368946CA34201D91B1B8360AF
:1037D0008368946CA342DAD2C96E0029D7D1516CA8
:1037E0008160F0BD00010020EC010020240C0040AD
:1037F0003C0400403408004030B54548454BA0F13A
:10380000800490ED170A83ED000A61690A46491E9B
:10381000002906DD03EB810515ED010A85ED000A9F
:10382000F5E79FED3D0A002180ED020A0BE000BFA5
:1038300003EB8105D0ED020A95ED000A491C30EE3C
:10384000200A80ED020A15469142F1DBB5EEC00A6E
:10385000F1EE10FA07DD00EE905AF8EEE00A80EE85
:10386000201A80ED161A816A012903D0816B016448
:10387000416B4BE090ED0E0A264AB8EE400A5032FA
:1038800082ED000A90ED0D0AB8EE400A82ED140AAE
:10389000A1694B1E0BE000BF02EB83045B1E14ED1D
:1038A000010A84ED000A94ED130A84ED140A002B3A
:1038B000F2DC0023436483641BE000BF90ED120A36
:1038C00002EB83045B1CB8EE400AD4ED000A30EE34
:1038D000800ABCEEC00A80ED120A90ED110AD4ED08
:1038E000140AB8EE400A30EE800ABCEEC00A80ED41
:1038F000110A0C468B42E1DB826C12B1B2FBF1F291
:103900000264426C002A02D0B2FBF4F1C16330BD04
:1039100080000020AC040020000000002DE9F05FD2
:103920000021F24B08462DED028B99461A5C802A45
:103930001AD0702A18D0401C0F28F6DDEC4A5F5CC4
:1039400011251226132302F1C4044FF0140CA2F126
:1039500080004FF0410A4FF0420B4FF0710E802F64
:1039600004D0702F78D0DCE20146E7E70929FADAC3
:103970004944802791F80180B8F1730FF3D024DC1B
:10398000DFEDDC0AB8F1430F67D017DCB8F1140F94
:1039900047D009DCB8F1110F32D0B8F1120F34D092
:1039A000B8F1130FDFD137E0B8F1390F3FD0B8F1DC
:1039B000410F53D0B8F1420FD5D15DE0B8F1530FAC
:1039C000D1DDB8F1710FCED178E0B8F1A10F74D08C
:1039D0000CDCB8F1810FC6DDB8F1820FC3D0B8F1AD
:1039E000830FC0D0B8F1990FBDD16DE0A8F1A20846
:1039F000B8F1060FB7D2DFE808F08896A4B2C0CEBF
:103A0000487990612770657065E04879D0612770CA
:103A1000667060E021717AE24879506227706370C5
:103A200059E048799062277084F801C053E0D1F8DA
:103A30000220497912BA22F0FF020A4300EE102A4E
:103A4000AB49B8EE400A8031CA6280EE201A80EDA0
:103A50000A1A277039204FE0ABE01BE0D1F80200D2
:103A6000497900BA20F0FF000843A149803108637A
:103A7000277084F801A066E1D1F80200497900BA04
:103A800020F0FF0008439A4980314863277084F88A
:103A900001B058E1D1F80200497900BA20F0FF00E6
:103AA000084300EE100A9249B8EE400A8031C8621D
:103AB00080EE201A81ED0E1AB5E110E0487910620F
:103AC000277084F801E006E04879894980318862EE
:103AD0002770992161700021A170E1709AE7D1F8F7
:103AE0000220497912BA22F0FF020A43804980314C
:103AF000CA6202602770A1206070100EA070100CC6
:103B0000E070100A2071627102E2D1F80220497956
:103B100012BA22F0FF020A4375498031CA6242603C
:103B20002770A220E8E7D1F80220497912BA22F0E2
:103B3000FF020A436E498031CA6282602770A32067
:103B4000DAE7D1F80220497912BA22F0FF020A43DB
:103B500067498031CA62C2602770A420CCE7D1F8DF
:103B60000220497912BA22F0FF020A4360498031EB
:103B7000CA6202612770A520BEE7D1F80220497908
:103B800012BA22F0FF020A4359498031CA624261E7
:103B90002770A620B0E7D1F80220497912BA22F0A6
:103BA000FF020A4352498031CA6282612770A7200E
:103BB000A2E74944702749789FED4F8B612972D065
:103BC00037DC9FED4F8B36296ED019DC4FF00100AA
:103BD00022296AD00CDC132970D004DC11295BD0B7
:103BE000122973D163E0142972D02129F9D173E02D
:103BF000313905296AD2DFE801F099A2ACBFCD00C6
:103C0000432972D00CDC39297ED004DC37297CD0E2
:103C10003829E6D1DFE0412978D04229E1D1F2E02C
:103C2000442974D0512973D0522972D05329D8D144
:103C300014E191294AD01CDC74296BD00CDC712969
:103C400069D004DC622967D06329CAD130E17229C6
:103C500071D07329C5D14DE181296DD004DC75295E
:103C60006BD07629BDD186E1822967D08329B8D16E
:103C7000ABE1A3297BD006DC942927DDA12977D0ED
:103C8000A229AED1B4E1A42973D0A52972D0A62966
:103C900071D0A729A5D1C4E127706570A070E0702C
:103CA0002071107E33E1E7E082E036E006E0277025
:103CB0006670A070E0702071107F28E1277063703B
:103CC000A070E070207192F8240020E129E1FFE764
:103CD000277084F801C0FDE0277021216170A07079
:103CE000E070207192F86C0011E191E09C050020D9
:103CF0008000002000401C46000000000088C340F7
:103D000000000000006AF8406AE05FE076E08DE0C5
:103D10009AE09EE012E1D9E0BCE0277022216170B8
:103D2000A070E070207192F87000F0E027703120F0
:103D30006070D06B07E0D3E02BE10DE137E1277035
:103D400032206070106C010EA170010CE170010A4C
:103D500060E6106E00F0A2FC53EC182B00F06AFB3A
:103D600000F0FEFAB149C8622770332101E144E155
:103D700039E147E14BE14FE1D06D00F08FFC53ECAE
:103D8000182B00F057FB00F0EBFAA849C862277027
:103D90003421EEE0906D00F081FC53EC182B00F024
:103DA00049FB00F0DDFAA149C86227703521E0E047
:103DB000906F00F073FC53EC182B00F03BFB00F00D
:103DC000CFFA9A49C86227703621D2E0277037218E
:103DD0006170C06BB7E7277038216170806BB2E704
:103DE000806A00F05BFC53EC182B00F023FB00F022
:103DF000B7FA8E49C86227703921BAE0277084F873
:103E000001A0C06A9FE7277084F801B0006B9AE7B1
:103E1000406B00F043FC53EC182B00F00BFB00F060
:103E20009FFA8249C86227704321A2E0006C00F02B
:103E300035FC53EC182B00F0FDFA00F091FA7B49A9
:103E4000C8622770442194E0277051216170406C52
:103E500079E7277052216170806C74E7C06C00F0C4
:103E60001DFC53EC182B00F0E5FA00F079FA6F49CD
:103E7000C862277053217CE0D06800F00FFC53EC3F
:103E8000182B00F0D7FA00F06BFA6849C862277067
:103E900061216EE0106900F001FC53EC182B00F07A
:103EA000C9FA00F05DFA6149C8622770622160E0DA
:103EB000506900F0F3FB53EC182B00F0BBFA00F054
:103EC0004FFA5A49C8622770632152E0277084F87C
:103ED00001E00020A070E070207192F8200016E050
:103EE0002770722161700021A170E170217190ED45
:103EF000170A08E02770732161700021A170E1703A
:103F0000217190ED180ABCEEC00A10EE100A607123
:103F10004649A571E6710A23082244314448FEF758
:103F200003FA0020024649460A54401C0F28FBDDD4
:103F30003E480262BDEC028BBDE8F09F006D00F0D0
:103F4000ADFB53EC182B00F075FA00F009FA374975
:103F5000C862277074210CE0406D00F09FFB53ECA9
:103F6000182B00F067FA00F0FBF93049C86227709F
:103F700075216170E7E6806D00F090FB53EC182B23
:103F800000F058FA00F0ECF92849C8622770762151
:103F9000EFE7C06900F082FB53EC182B00F04AFAFF
:103FA00000F0DEF92149C86227708121E1E7006A4B
:103FB00000F074FB53EC182B00F03CFA00F0D0F941
:103FC0001A49C86227708221D3E7406A00F066FB75
:103FD00053EC182B00F02EFA00F0C2F91349C86216
:103FE00027708321C5E72770A12161700068AAE6C8
:103FF0002770A22161704068A5E62770A321617037
:104000008068A0E62770A4216170C0689BE62770D5
:10401000A5216170006996E62770A621617040694C
:1040200091E62770A721617080698CE6000100206D
:10403000C402002021F00042A2F16052B2F5801FBC
:1040400001F0004328BFD2F17F6C0BD95FEA001C5E
:1040500043EAC20242EB507018BF704728BF20F0FD
:1040600001007047B2F5801FBCBF184670474FEA89
:10407000410C1CF5001F02D2084600F085BB70B54C
:1040800000F082FA00000089FFF7F6BF4FF0004011
:10409000A0F580007047491058BFC1F140415B1046
:1040A00058BFC3F140438B42EFF3008070470000DC
:1040B0002DE9C04130B4DFF8A0C23CEA111418BFAA
:1040C0003CEA131400F0EC8081EA03051CEA1114A9
:1040D00044EAD57418BF1CEA131500F0C780A4EB9E
:1040E00005044FF0004545EAC12145EAC32341EAF2
:1040F000505143EA525304F17F74994204F500345D
:104100004FEAC0204FEAC22208BF904200F09C80D4
:104110004FEA13650FF24016765D4FEA134506FB32
:1041200005F7C7F1807706FB07F74FEAD737A7FBFC
:1041300003687642C8F58038A7FB06CE38BFA8F1E1
:10414000010807FB08E64FF0000EA6FB028CE6FB19
:1041500003CEDCF1000CCEF1004E38BFAEF1010E03
:10416000A6FB0C584FF000074FF00005E6FB0E874A
:10417000A1FB08C6A0FB07CE16EB0E0645F1000515
:10418000E1FB076515F1E04E7EBFA4F580345FEAE0
:1041900046066D4116F1800745F100054FEA1727E5
:1041A0004FEA066647EA0567A6F1DE46B6F1805F8C
:1041B0004FEA15251FD9384624F0010C05EBC471D0
:1041C000BCF1FE6F01EB0C1102D8F0BCBDE8008120
:1041D00024425CBF01F5801E9EEAC47F02D4F0BC7D
:1041E000BDE80081244238D4F0BCA1F1C041BDE853
:1041F000004100F017BA4FEAD22242EA43524FEA96
:10420000D323A7FB02864FEAD02040EA415007FBA8
:1042100003661EEA0E0F4FEAD12105FB026658BF66
:10422000A6EB0056B6EB00564FEA520E4EEAC37E9E
:1042300018EB0E0E56EB530EBDD518EB02085E417F
:104240007F1C55F10005B6E74FF480154FF00007CD
:104250004FF000064FF00008ADE7F0BC4FF0000053
:1042600001F1C04101F00041BDE8008111EA0C1FDD
:104270000CEA131500D00CE013EA0C1F00F02580A7
:104280004FF00000F0BC81EA030101F00041BDE8FD
:104290000081F0BCBDE8004181EA030100F0C2B931
:1042A000F0BCBDE8004170B500F06EF9097EFC3E3F
:1042B00000F007B881EA03014FF0000001F000416F
:1042C000704781EA030100F0ADB9F0BCBDE80041E0
:1042D0004FF0000021497047FFFDFBF9F7F5F4F2BC
:1042E000F0EEEDEBE9E8E6E4E3E1E0DEDDDBDAD891
:1042F000D7D5D4D3D1D0CFCDCCCBCAC8C7C6C5C4EF
:10430000C2C1C0BFBEBDBCBBBAB9B8B7B6B5B4B305
:10431000B2B1B0AFAEADACABAAA9A8A8A7A6A5A4F0
:10432000A3A3A2A1A09F9F9E9D9C9C9B9A999998B4
:104330009797969595949393929191908F8F8E8E57
:104340008D8C8C8B8B8A89898888878786858584E4
:1043500084838382828181800000FF070000F87FD0
:104360004FEA1153A3F58063D3F11E03A8BFD3F125
:10437000200C08DB4FF0004242EAC12252EA5052C0
:1043800032FA03F0704709420BD4102BC4BF00204F
:10439000704703F5787CBCF1FF3F05D04FF0FF304C
:1043A00070474FF00000704770B500F0EDF800BFA7
:1043B0004992248000207047F0E7000051EA030C86
:1043C00017D41CF5801F58BFBCF5801F00F1068074
:1043D000994218BF704708BF9042704707D711F540
:1043E000801F58BF13F5801F19D499427047894226
:1043F00070471CF5801F08D5BCF5801FF7D58B4290
:1044000018BF704708BF824270474FF4001C1CEB76
:10441000410F38BF1CEB430F01D28B42704770B580
:1044200000F0B2F8922449004FF000514FF0805351
:10443000FFF731BEDFF848C170B51CEA111E1EBF80
:104440001CEA13159EEA0C0F95EA0C0F00F06F8022
:1044500081EA030423EA4C134EEAD47E21EA4C118C
:1044600041F4801143F48013AE44A1FB024CA0FB45
:104470000365AEF17F7E361955EB0C05A1FB034CAD
:104480004CF10003A0FB021C16EB0C06654153F136
:104490000003094218BF46F0010613F4007F0BD158
:1044A0004FEA03314FEA0530340341EA155140EA3F
:1044B00016506FF003020AE04FEAC3214FEAC5200D
:1044C000F40241EA555140EA56506FF0020202EB05
:1044D0002E4201EB025585EACE710AD05FEA440C08
:1044E00018BF24F0004450F1000041F1000120EA1F
:1044F000D47040F2FE7C624500D270BDA84214BF69
:104500004FF080444FF04044002E08BF0024BEF11D
:10451000806FA8BFA1F1C041BDE8704080F28280E9
:104520004FF0000001F1C04101F0004170479EEAE8
:104530000C0F0CEA131518BF95EA0C0F06D04FF0BC
:10454000000081EA030E0EF0004170BD00F01CF87F
:104550008900013E00F007B800F009B84FEA430CAB
:104560005FEA5C5C08D081EA030100F05BB84FEAC7
:10457000410C5FEA5C5CF6D14FF0000001497047E6
:104580000000FF070000F87F0EF1020E2EF0030E70
:104590005EF8046B364205D4012A43EB030515F59A
:1045A000001F12D8012841EB010C1CF5001F0CD88C
:1045B0000ED14FEAD17C15F5001F0CEB4C0C0CF121
:1045C000020C08BF4CEBD37C04E04FF0080C01E078
:1045D0004FEAD37C0CEB4C0526FA05F606F00706ED
:1045E000B6F1040C06D20EEB860CBDE870404CF020
:1045F000010C6047DFE80CF0090B02024FF00041AC
:104600004FF00000A1F5002170BD194610460128A9
:1046100051EB010418BFD4F5001484BF002001F051
:10462000004170BD0808A0F500114FEA3101704744
:1046300053EA010C17D41CF5801F58BFBCF5801F2E
:1046400000F106808B4218BF704708BF8242704756
:1046500007D713F5801F58BF11F5801F19D48B425F
:1046600070479B4270471CF5801F08D5BCF5801F22
:10467000F7D5994218BF704708BF904270474FF472
:10468000001C1CEB430F38BF1CEB410F01D29942B9
:1046900070470FB40CBC03BCFFF7C1BE43004FEA28
:1046A000D30C4FEA3C0C43401FBF40070CF1605154
:1046B00013F0FE4F70471CF0006F03D100200CF088
:1046C000004170470CF0004343EA507010B540EAD7
:1046D000CC0000F00EF800BF000000924FEA00018D
:1046E000FFF7A0BF4FF000414FF00000A1F50021FF
:1046F00070470EF1020E2EF0030E5EF8044B2442BA
:1047000004D44FEA4102B2F17F4F11D84FEA40037F
:10471000B3F17F4F0CD80ED14FEAD07CB2F17F4F6E
:104720000CEB4C0C0CF1020C08BF4CEBD17C04E000
:104730004FF0080C01E04FEAD17C0CEB4C0324FA5B
:1047400003F404F00704B4F1040C06D20EEB840C5D
:10475000BDE810404CF0010C6047DFE80CF00708A2
:1047600002024FF00040A0F5800010BD0846420054
:1047700018BFD2F1807288BF00F0004010BD4FF02A
:104780004070E1EE100A7047FF2141EAD050C005A9
:10479000704700061016000610160000000000000A
:1047A00000000102030406070809000000000102DE
:1047B00003040000D4470008000000205C01000052
:1047C00000020008144800085C0100203C0B0000B7
:1047D0005C020008320A69045A1404290C52058B41
:1047E0007A45044340403BE80318424443F4015EE9
:1047F000C84240420F181AC024200BF0406F1283A9
:104800003ACDCCCC3D23803F3A612C01E432018289
:04481000101324F469
:04000005080001C529
:00000001FF
