:020000040800F2
:10000000980B0020650200081F240008A7200008A4
:100010001D24000811060008C52B00080000000080
:1000200000000000000000000000000001260008A1
:10003000C506000800000000B124000803260008DF
:100040007F0200087F0200087F0200087F0200088C
:100050007F0200087F020008C90600083D0700086B
:100060007F0200087F0200087F0200087F0200086C
:100070007F0200087F0200087F0200087F0200085C
:100080007F0200087F0200087F0200087F0200084C
:100090007F0200087F0200087F0200087F0200083C
:1000A0007F0200087F0200087F0200087F0200082C
:1000B0007F0200087F0200087F0200087F0200081C
:1000C0007F0200087F0200087F0200087F0200080C
:1000D0007F0200087F0200087F0200087F020008FC
:1000E0007F0200087F0200087F0200087F020008EC
:1000F0007F0200087F0200087F0200087F020008DC
:100100007F0200087F0200087F0200087F020008CB
:100110007F0200088D2900087F0200087F02000886
:10012000150600087F0200087F0200087F02000811
:100130007F02000800000000000000007F020008AD
:100140007F0200087F0200087F0200087F0200088B
:100150007F0200087F0200087F0200087F0200087B
:100160007F0200087F0200087F0200087F0200086B
:100170007F0200087F0200087F02000800000000E4
:10018000000000007F0200080000000000000000E6
:100190007F02000800000000000000007F0200084D
:1001A0000000000000000000000000007F020008C6
:1001B0007F0200087F0200087F0200087F0200081B
:1001C0007F02000800F002F800F03CF80AA090E876
:1001D000000C82448344AAF10107DA4501D100F002
:1001E00031F8AFF2090EBAE80F0013F0010F18BF93
:1001F000FB1A43F00103184798380000B838000094
:10020000103A24BF78C878C1FAD8520724BF30C842
:1002100030C144BF04680C60704700000023002414
:1002200000250026103A28BF78C1FBD8520728BF06
:1002300030C148BF0B6070471FB503F00EFC1FBDF7
:1002400010B510BD00F0CFF81146FFF7F5FF02F032
:1002500091FD00F0EDF803B4FFF7F2FF03BC00F0EE
:10026000F5F800000948804709480047FEE7FEE727
:10027000FEE7FEE7FEE7FEE7FEE7FEE7FEE7FEE756
:1002800004480549054A064B70470000A9260008A6
:10029000C501000898050020980B00209807002051
:1002A0009807002053EA020C00F069802DE9F04B1A
:1002B0004FF00006002B1FBFB3FA83F503FA05F4D5
:1002C00024FA05F65E4012BF1643B2FA82F502FA2E
:1002D00005F4C5F120051EBF22FA05FC44EA0C0412
:1002E000203556EA044C4FEA144418BF641C4FF002
:1002F00000084FF00009904271EB030C39D300293C
:1003000019BFB1FA81F701FA07F6B0FA80F700FADF
:1003100007F6C7F120071EBF20FA07FC46EA0C06C5
:100320002037B6FBF4FCA7EB0507103F07F01F0BC7
:10033000CBF120060CFA0BFB2CFA06F644BFB346B1
:100340000026202FA4BF5E464FF0000B5BEA060C90
:1003500008BF4FF0010B19EB0B09ABFB027C48EB1C
:100360000608C01B06FB02CC0BFB03CC71EB0C0197
:10037000C1E70B46024641464846BDE8F08B13B53F
:100380004FF000004FF00001AFF30080BDE81C40CB
:1003900070474FF0000200B5134694469646203948
:1003A00022BFA0E80C50A0E80C50B1F12001BFF42E
:1003B000F7AF090728BFA0E80C5048BF0CC05DF894
:1003C00004EB890028BF40F8042B08BF704748BFE2
:1003D00020F8022B11F0804F18BF00F8012B704756
:1003E000704770477047754600F02CF8AE46050020
:1003F0006946534620F00700854618B020B5FFF740
:100400003FFFBDE820404FF000064FF000074FF0DF
:1004100000084FF0000B21F00701AC46ACE8C00922
:10042000ACE8C009ACE8C009ACE8C0098D4670472B
:1004300010B50446AFF300802046BDE81040FFF73A
:100440000ABF000000487047340500200149182009
:10045000ABBEFEE726000200704710B50146806B78
:10046000026C12F0500F05D0026CD20626D500F0B7
:1004700053FA10BD016C41F40071016401688A688F
:1004800012F0405F17D1027EAAB9CA6A12F4700F47
:1004900002D08A6852050ED44A6822F020024A60CF
:1004A000016C21F480710164016CC90403D4016CF6
:1004B00041F00101016400F02DFA10BD806BC26CA7
:1004C000BDE810400846104710B5806B402101641C
:1004D000416C41F00401416400F01EFA10BD10B5FA
:1004E000806B00F018FA10BD464910B54A6822F436
:1004F00040324A604A6843681A434A6001684A6861
:1005000022F480724A6001684A68036942EA032261
:100510004A6001684A6822F040724A6001684A688D
:1005200083681A434A6001688A6822F400628A601C
:1005300001688A68C3681A438A60816A6FF07062D2
:10054000D14201688A6822F070628A6001688A6814
:100550000CD0836A1A438A6001688A6822F040528C
:100560008A6001688A68C36A1A4301E022F0405237
:100570008A6001688A6822F002028A6001688A68DB
:10058000037E42EA43028A6090F820100029016845
:100590004A680FD042F400624A6001684A6822F457
:1005A00060424A6001684A68174C436A04EB43336F
:1005B0001A4301E022F400624A600168CA6A22F428
:1005C0007002CA620168CA6A838B104C04EB035341
:1005D0001A43CA6201688A6822F400728A6001685C
:1005E0008A6890F8303042EA43228A6001688A685B
:1005F00022F480628A6001688A68406942EA802049
:10060000886010BD0023014000E0FFFF0000F0FF04
:10061000FEE70000014800F0FFBA0000D40400200B
:1006200001681823CAB2103AB2FBF3F2054B6FF31C
:100630000901032A9B5CC36500D9091D8165084631
:10064000704700006E3A000810B5014600208B6923
:100650008A6A4FF0C07453B1B3F5005F15D072B120
:10066000012A0CD0022A0AD0032A09D104E01AB1C7
:10067000012A06D0022A03D1C96AC90100D5012086
:1006800010BDC96AA142FAD010BD002AF7D0012AD4
:10069000F2D0022AF3D0032AF3D010BD30B504689B
:1006A000256825F480252560046863608368402BF5
:1006B000036803D099600068C26030BD9A6000682A
:1006C000C16030BD7047000013480168134A1160D3
:1006D0000021016012480068012819D1114812490F
:1006E000124A006809680144491C11600F49103121
:1006F000401C08600E480068016841F0010101607B
:100700000C480D4A01681268114301D101210160B2
:10071000012000F0F3BB0000240C004090000020FA
:10072000CC000020280000202C0000202C040040D9
:1007300068010020A8000020C800002012480068BE
:100740001249086012480068012819D1114812495D
:10075000124A006809680144491C11600F490831B8
:10076000401C08600E480068016841F0010101600A
:100770000C48016821B90C490968012900D10160C0
:10078000022000F0BBBB0000240C004094000020BD
:10079000CC000020280000202C0000202C08004065
:1007A000B0010020AC000020C800002072B6FEE7B7
:1007B00078B50024009490F83C20012A19D0012239
:1007C00080F83C200A6807230568092A13D9EE68D7
:1007D0000A3A02EB420293409E43EE600B788A682D
:1007E0000A3B03EB43039A400368DD682A43DA605F
:1007F00010E0022078BD2E6902EB420293409E4336
:100800002E610B788A6803EB43039A4003681D69E5
:100810002A431A614A681F23072A13D205686E6BA0
:10082000521E02EB820293409E436E630A8893B28B
:100830000A79521E02EB820293400268556B2B43E9
:10084000536327E005680D2A12D22E6BD21F02EBEC
:10085000820293409E432E630B790A88DB1F92B27B
:1008600003EB83039A4003681D6B2A431A6311E06C
:10087000EE6A0D3A02EB820293409E43EE620B79E0
:100880000A880D3B92B203EB83039A400368DD6A4A
:100890002A43DA621B4B0568194A9D420AD10D684A
:1008A000122D07D1556825F400055560556845F4AB
:1008B0008005556005689D421DD1134D0B68AB4204
:1008C00001D0112B17D1536823F480035360536870
:1008D00043F4000353600968A9420CD10B490C4A48
:1008E0000968B1FBF2F101EB8101490000E0491E0A
:1008F00000910029FBD180F83C40002078BD000029
:100900000023014000200140120000101C010020C3
:1009100040420F0070477047704770B504004FF0B9
:10092000000503D0206C002610B107E0012070BD47
:10093000204600F01DF8666484F83C60206CC00618
:1009400010D4206C20F4885040F00200206420462F
:10095000FFF7CAFD6664206C20F0020040F0010041
:10096000206400E0012584F83C60284670BD00004A
:1009700070B586B0054614216846FFF70AFD1E498A
:100980002868884236D11D480026016841F48061FC
:100990000160006800F48060059018481438016810
:1009A00041F0010101600068694600F00100059016
:1009B0000F2000900320CDE90106114800F0AAFAAB
:1009C000114C104820608005C4E901060014C4E9F8
:1009D0000360400060618000A0614011E06100029E
:1009E000C4E90806204600F0E7F908B1FFF7DEFE8B
:1009F000AC63A56306B070BD0022014044380240DC
:100A00000000024010640240D4040020F8B50446FF
:100A100000200E46009094F83C10012907D00121D7
:100A200084F83C1021688B68DB0702D011E00220BB
:100A3000F8BD8B6843F001038B604049404B096867
:100A4000B1FBF3F101EB410100E0491E00910029E7
:100A5000FBD121688B68DB0503D58B6823F4807399
:100A60008B6021688B68DB075DD0236C40F20165E9
:100A7000AB4343F4807323644968490505D5216C71
:100A800021F4005141F480512164216CC90404D542
:100A9000616C21F00601616400E0606484F83C0050
:100AA000A16B2948274DC863A16B28480864A16B36
:100AB0002748C86421686FF02200086020684168F8
:100AC00041F0806141602068816841F480718160FB
:100AD0002168134632464C31A06B00F0D7F96868A4
:100AE0001C49C006206806D0884224D1816811F0D4
:100AF000405F13D01FE08842F8D0174A904203D1DC
:100B0000D1F80423D206F1D0144A904213D1D1F87F
:100B1000041301F01F011029E8D30CE0816841F0B3
:100B20008041816007E0206C40F010002064606C20
:100B300040F0010060640020F8BD00001C010020AE
:100B400040420F00002301405B040008DF0400085E
:100B5000C90400080020014000210140002201409A
:100B60002DE9F0410446876D00F0C8FA064694F876
:100B700035000025022806D08020606584F83450B6
:100B80000120BDE8F0812068016821F016010160B4
:100B90002068416921F080014161206C08B9A06C96
:100BA00020B12068016821F0080101602068016817
:100BB00021F0010101600CE000F0A0FA801B052883
:100BC00007D920206065032084F8350084F834506C
:100BD000D7E720680068C007EED194F85C103F208A
:100BE0008840B860012084F8350084F83450002033
:100BF000C7E790F83510022903D080214165012014
:100C00007047052180F835100068016821F0010166
:100C100001600020704700002DE9F84304464FF0C2
:100C20000009CDF8009063484FF41651A56D006897
:100C3000B0FBF1F72E6894F85C10082000FA01F17F
:100C400031420FD021680A6852070BD50A6822F09A
:100C500004020A6094F85C108840A860606D40F05F
:100C60000100606594F85C104FF0010808FA01F08B
:100C7000304208D021684969090604D5A860606D32
:100C800040F00200606594F85C1004208840304217
:100C900008D021680968890704D5A860606D40F014
:100CA0000400606594F85C1010208840304218D031
:100CB00021680968090714D5A860206801684903FC
:100CC00004D50068000308D5A16C07E00168C905D8
:100CD00003D4016821F008010160216C09B12046AC
:100CE000884794F85C1020208840304231D0216839
:100CF0000968C9062DD5A86094F835000528206834
:100D0000016806D0490347D5006800031DD4616C13
:100D10001CE021F0160101602068416921F080018A
:100D20004161206C08B9A06C20B12068016821F0F5
:100D30000801016094F85C103F208840A86084F8A6
:100D4000358084F83490216D1FE0E16B09B12046B5
:100D50008847606D00282BD0606DC00714D0052037
:100D600084F835002068016821F0010101600098D5
:100D7000401C0090B84203D820680068C007F6D134
:100D800084F8358084F83490E16C002910D001B0EB
:100D90002046BDE8F04308470168C905D5D401687D
:100DA00021F01001016084F8358084F83490CCE79C
:100DB000BDE8F8831C0100202DE9F041044600F055
:100DC0009DF906465CB1022084F83500002584F8C0
:100DD00034502068016821F0010101600DE001201C
:100DE000BDE8F08100F08AF9801B052805D9202094
:100DF0006065032084F83500F2E720680068C007CA
:100E0000F0D12268116820480140D4E90103184359
:100E1000D4E903363343184363691843A36918437D
:100E2000E3691843236A18430843616A042903D11C
:100E3000D4E90B1319430843106020684069666ABF
:100E400020F0070130460E43012704280CD1A06A88
:100E50000643E06A40B12046FFF7F6FB20B1402090
:100E6000606584F83570BAE7206846612046FFF770
:100E7000D7FB94F85C203F2191408160656584F840
:100E800035700020ACE700003F8010F02DE9F04104
:100E90000446866D90F83400002501280DD001200D
:100EA00084F8340094F835700020012F07D084F8BE
:100EB000340002252846BDE8F0810220FBE7022726
:100EC00084F8357060652046FFF7E8FB94F85C1005
:100ED0003F208840B0602068016841F01601016041
:100EE000206C20B12068016841F008010160206891
:100EF000016841F001010160DCE77047044910B569
:100F00000A68024202D00860FFF7F7FF10BD000038
:100F1000143C01402DE9F84FDFF8ACA10022012478
:100F200003254FF00F090AF1040BAAF1040E00BFCC
:100F30000B6804FA02F63340B3426ED10F7907F022
:100F40000307012F01D0022F16D187684FEA42080C
:100F500005FA08FC27EA0C07D1F80CC00CFA08FCCB
:100F60004CEA070CC0F808C04768B7430E79C6F3CF
:100F7000001696403E4346600E79F643B6070AD007
:100F8000C6684FEA420C05FA0CF7BE438F6807FAB1
:100F90000CF73743C7600E7906F00306022E10D116
:100FA000D60800EB8608D8F8206057074FEAD76CC0
:100FB00009FA0CF7BE430F6907FA0CF73743C8F874
:100FC000207006684FEA420C05FA0CF7BE430F7911
:100FD00007F0030707FA0CF7374307604E6816F46B
:100FE000403F6BD0394E376847F4804737603668EA
:100FF00022F0030706F480460096354E07EB060CF8
:10100000DCF8086897074FEA177809FA08F7BE4333
:10101000304FB84202D100271FE04FE02E4FB842B8
:1010200001D1012719E02D4FB84201D1022714E068
:101030002B4FB84201D103270FE02A4FB84201D10C
:1010400004270AE0284FB84201D1052705E0274FC1
:10105000B84201D1062700E0072707FA08F737430F
:10106000CCF80878DAF800605746D1F804C09E43FF
:101070005FEACC2C00D51E433E60DBF800605F4683
:10108000D1F804C09E435FEA8C2C00D51E433E601D
:10109000DEF800607746D1F804C09E435FEA8C3CDE
:1010A00000D51E433E60084F083F3E68D1F804C09B
:1010B0009E435FEACC3C00D51E433E60521C102A82
:1010C000FFF436AFBDE8F88F083C014044380240D9
:1010D00000300140000002400004024000080240CD
:1010E000000C0240001002400014024000180240B0
:1010F0000AB1816170470904FBE70000014880687C
:1011000070470000100100200248816802781144F5
:1011100081607047100100200B4810B5016841F450
:1011200000710160016841F480610160016841F46F
:1011300080710160032000F06FF80F2000F006F8C6
:1011400000F024F8002010BD003C024070B50D4DA9
:1011500004464FF47A712878B1FBF0F00A49096827
:10116000B1FBF0F000F074FB48B9102C07D200225C
:101170002146501E00F030F800206C6070BD012048
:1011800070BD0000100100201C0100200A4808B5B5
:10119000016841F480410160006800F480400090E3
:1011A0000548001F016841F080510160006800F0AF
:1011B0008050009008BD000044380240002809DB40
:1011C00000F01F02012191404009800000F1E02061
:1011D000C0F8001170470000F0B40E4B1B680C46BD
:1011E000C3F30223C3F10705042D00D90425191DFB
:1011F000072901D2002300E0DB1E012606FA05F1D3
:10120000491E214099409E40761E16403143F0BC55
:1012100001F0D9BC0CED00E0064900F007020868B7
:101220004FF6FF03184040EA0220034A10430860CB
:10123000704700000CED00E00000FA052DE9F843CE
:101240001748016841F0805101600068154F00F0B7
:101250008050012600903E64FFF750FF05464FF492
:101260007A78114C05E000BFFFF748FF401B40456E
:101270000DD86068C003F7D57E64FFF73FFF0546D1
:10128000464607E0FFF73AFF401BB04202D9032071
:10129000BDE8F88360688003F4D50020F8E700001B
:1012A0004038024000000E42007000402DE9F04737
:1012B0000E46050065D0DFF81481D8F80000F7B2BB
:1012C00000F00F00B04207D288F80070D8F8000094
:1012D00000F00F00B04254D128683D4C810712D570
:1012E000400703D5206840F4E050206028780007CC
:1012F00003D5206840F4604020602068A96820F091
:10130000F000084320602878C0072DD03049686875
:101310000839012812D0022813D0032811D00968F7
:10132000890700292DDA216821F00301014321609A
:10133000FFF7E4FE814641F2883A0EE0096889032E
:10134000EFE709688901ECE7FFF7D8FEA0EB090198
:10135000514502D90320BDE8F0872068696800F094
:101360000C00B0EB810FEFD1D8F80010404601F02F
:101370000F01B14207D90770006800F00F00B042BA
:1013800001D00120E7E72878400705D52068E96803
:1013900020F4E050084320602878000706D5206834
:1013A000296920F4604040EAC100206000F038F86C
:1013B0002168084AC1F30311515CC840064908601E
:1013C00006480068FFF7C2FE0020C4E7003C024068
:1013D00008380240763A00081C0100201401002061
:1013E0000448054900680968044AC1F38221515C38
:1013F000C84070471C01002008380240863A0008A7
:101400000448054900680968044AC1F34231515C47
:10141000C84070471C01002008380240863A000886
:10142000224810B5006810F00C02214815D021495F
:10143000042A11D01D4C241F082A0FD00C2A0CD1CD
:101440002268236802F03F025B0221D52068C0F3C6
:101450008810A0FB010120E0084610BD2268236827
:1014600002F03F025B0205D52068C0F38810A0FBA4
:10147000010104E02168C1F38811A1FB00010023F0
:10148000FEF710FF2168C1F30141491C49000AE041
:101490002168C1F38811A1FB00010023FEF702FFC0
:1014A0002168C1F30271B0FBF1F010BD08380240B1
:1014B0000024F40040787D012DE9F84F04007DD030
:1014C000DFF878B32078ABF10407C007A7F1040573
:1014D00050D0DBF800105846C1F3810101290FD02C
:1014E0000168C1F38101022902D13968490207D498
:1014F0000068C0F38100032809D13868400206D58E
:101500002868800336D560680028D8D032E060684B
:10151000B0F5803F10D0B0F5A02F286810D020F48F
:1015200080302860286820F4802028606068A0B19E
:10153000FFF7E4FD06460CE0286840F48030F4E74D
:1015400040F480202860F7E7FFF7D8FD801B64286F
:1015500076D828688003F7D50CE0FFF7CFFD064664
:1015600005E000BFFFF7CAFD801B6428F0D828689B
:101570008003F7D42078DFF8C89280074FF0000A84
:1015800044D5DBF80010584611F00C0F0FD001685D
:10159000C1F38101022902D13968490207D50068E7
:1015A000C0F3810003280AD13868400207D42868B4
:1015B000800715D5E068012800D111E03AE1E06824
:1015C000B0B10120C9F80000FFF798FD064604E01D
:1015D000FFF794FD801B0228BAD828688007F7D54A
:1015E0002868216920F0F80040EAC10028600DE079
:1015F000C9F800A0FFF782FD064604E0FFF77EFD74
:10160000801B02281CD828688007F7D420780007A0
:1016100027D5DFF828828B48616908F16C0881B111
:1016200001210160FFF76AFD064604E0FFF766FD51
:10163000801B022804D8D8F800008007F6D510E0F7
:1016400089E0C0F800A0FFF759FD064605E000BF9D
:10165000FFF754FD801B02287DD8D8F800008007D2
:10166000F6D42078400769D574484FF00008383028
:101670000068C0000BD471483830016841F08051D7
:10168000016000684FF0010800F0805000906E4E3D
:101690003068C00511D4306840F480703060FFF7C6
:1016A0002DFD009006E000BFFFF728FD0099401ACD
:1016B000022850D83068C005F6D5604EA06868365C
:1016C00001280FD00528306810D020F001003060CC
:1016D000306820F004003060A068B8B1FFF70EFD5C
:1016E00000900FE0306840F00100F4E740F00400A3
:1016F0003060F7E7FFF702FD0099411A41F28830A8
:10170000814264D830688007F4D50EE0FFF7F6FC1C
:10171000009007E0FFF7F2FC0099411A41F288308F
:10172000814254D830688007F4D4B8F1000F05D056
:1017300042483830016821F080510160A069A8B3A7
:10174000DBF80010C1F38101022947D00228C9F853
:1017500060A005D000E03AE0FFF7D0FC044639E095
:10176000FFF7CCFC064604E0FFF7C8FC801B02280C
:101770002DD828688001F7D4F4E907010843E1680F
:10178000324A490802EB0141A26841EA821108434A
:10179000217C40EA0160217D40EA0170386001202F
:1017A000C9F86000FFF7AAFC044606E044E000BF69
:1017B000FFF7A4FC001B022809D828688001F7D590
:1017C0003AE000BFFFF79AFC001B022802D9032071
:1017D000BDE8F88F28688001F4D42DE00128F7D007
:1017E0003868E26900F48001914223D1226A00F056
:1017F0003F0191421ED147F6C071626A0140B1EBD0
:10180000821F17D1A26A4FF0FF3300F4403103EB7F
:101810005202B1EB024F0DD194F82C2000F0706110
:10182000B1EB026F06D194F8301000F0E040B0EB5D
:10183000017F01D00120CBE70020C9E70838024032
:1018400000004742800E4742007000400000FFFF4A
:1018500010B5401EB0F1807F01D3012010BD4FF0C4
:10186000E02460610F21601701F0ADF90020A06154
:1018700007202061002010BD70B590F83C20012A9F
:1018800032D0012480F83C40022280F83D200368D9
:101890005A689D6822F070060A6832435A60134BFA
:1018A00002689A4214D0B2F1804F11D0104B9A4284
:1018B0000ED0104B9A420BD00F4B9A4208D00F4BD0
:1018C0009A4205D00E4B9A4202D00E4B9A4204D156
:1018D000496825F080031943916080F83D4000215C
:1018E00080F83C10084670BD022070BD0000014029
:1018F0000004004000080040000C004000040140CB
:10190000004001400018004010B5040003D094F8D6
:101910003D0010B107E0012010BD002084F83C001C
:10192000204600F01FF8022084F83D00211D2068A9
:1019300000F0C2FE012084F8460084F83E0084F8DE
:101940003F0084F8400084F8410084F8420084F8A5
:10195000430084F8440084F8450084F83D000020EA
:1019600010BD000008B5124A01681248914207D123
:10197000016841F002010160006800F0020009E026
:101980000D4A914208D1016841F0040101600068EC
:1019900000F00400009008BD084A9142FBD10168A4
:1019A00041F008010160006800F00800F2E7000063
:1019B000000400404038024000080040000C004095
:1019C00090F83D10012901D001207047022180F8D4
:1019D0003D1000681149884214D0B0F1804F11D0F9
:1019E0000F4988420ED00F4988420BD00E498842D9
:1019F00008D00E49884205D00D49884202D00D49D1
:101A0000884204D1816801F00701062903D00168EA
:101A100041F001010160002070470000000001401A
:101A20000004004000080040000C00400004014099
:101A3000004001400018004070B5044690F83C009A
:101A40000025012817D0012684F83C60022084F884
:101A50003D002068826822F0770222F47F42826093
:101A60000868502838D00DDC20284FD005DC90B312
:101A7000102811D14AE0022070BD302846D04028FD
:101A80000AD13BE060282FD070280DD0B0F5805FE0
:101A900003D0B0F5005F12D0012584F83D6000202E
:101AA00084F83C00284670BDCB68D1E9012120684C
:101AB00000F073FE2068816841F0770109E0CB688F
:101AC000D1E90121206800F068FE2068816841F4B6
:101AD00080418160E1E719E0CA684968206800F048
:101AE00031FF5021206806E0CA684968206800F08C
:101AF0003AFF6021206800F05AFECEE7CA684968C4
:101B0000206800F01FFF40212068F4E722680146AA
:101B10001046F0E730B587B0044614216846FEF75A
:101B200038FC2468154D0022154802210323AC42DD
:101B30000ED1046844F004040460006800F004005E
:101B40000590C8018DE80F00049169460D4810E02A
:101B50000D4DAC420FD1046844F0020404600068EB
:101B600000F00200059040208DE80F0004916946C6
:101B70000648FFF7CFF907B030BD00000004004071
:101B800030380240000802400008004000040240D3
:101B900070B50D46040003D094F83D0010B107E085
:101BA000012070BD002084F83C00204600F01BF8A6
:101BB000022084F83D00211D206800F07DFD206892
:101BC000016821F00801016054F8460B01682943BF
:101BD0000160012004F81F09E0752076E076207787
:101BE000A075002070BD704770B5044690F83C00A9
:101BF00000260D4601280FD0012084F83C006AB170
:101C0000042A1DD0082A2FD00C2A3FD001260020FC
:101C100084F83C00304670BD022070BD206800F0A2
:101C2000CFFD2068816941F00801816120688169E8
:101C300021F004018161206881692A69114311E062
:101C4000206800F0EDFD2068816941F40061816148
:101C50002068816921F480618161206881692A6935
:101C600041EA02218161D2E7206800F00FFE20687E
:101C7000C16941F00801C1612068C16921F0040116
:101C8000C1612068C1692A69114311E0206800F030
:101C900031FE2068C16941F40061C1612068C169F9
:101CA00021F48061C1612068C1692A6941EA022189
:101CB000C161ACE710B5040003D094F83D0010B149
:101CC00007E0012010BD002084F83C00204600F011
:101CD0001EF8022084F83D00211D206800F0ECFC75
:101CE000012084F8460084F83E0084F83F0084F820
:101CF000400084F8410084F8420084F8430084F8EE
:101D0000440084F8450084F83D00002010BD704771
:101D100070477047F8B5016804460868CA684B699F
:101D200010F00F0F4FF0000559D003F0010602F438
:101D30009077374365D0C10705D0D10503D5216C15
:101D400041F001012164410705D5D90703D0216C79
:101D500041F002012164810705D5D90703D0216C28
:101D600041F004012164010707D502F0200131434D
:101D700003D0216C41F008012164216C00293AD084
:101D8000800604D5900602D5204600F034FE206877
:101D90004069216CC0F38010090700D460B320466D
:101DA00000F002FE20684069400621D5206814300A
:101DB00050E8001F21F0400140E80012002AF5D150
:101DC000A06BA8B16C490165A06BFEF712FF00285B
:101DD00011D0A06B016D01B0BDE8F040084783064B
:101DE0000FD593060DD52046BDE8F84000F003BEA0
:101DF0002046FFF78EFFF8BD2046FFF78AFF2564D7
:101E0000F8BD266B2023012E79D1C60677D5D606DC
:101E100075D50868486800904869400640D5A16BB0
:101E2000086840680004000CEAD0A28D8242E7D91D
:101E3000E085C869B0F5807F2DD020680C3050E86F
:101E4000001F21F4807140E80012002AF5D12068BB
:101E5000143050E8001F21F0010140E80012002A70
:101E6000F5D12068143050E8001F21F0400140E80F
:101E70000012002AF5D184F83E30256320680C302A
:101E800050E8001F21F0100140E80012002AF5D1AF
:101E9000A06BFEF765FEA08DE18D401A81B229E0AE
:101EA000A08DE18D401A81B2E08D0028A8D00029D4
:101EB000A6D020680C3050E8002F22F4907240E841
:101EC0000026002EF5D12068143050E8002F22F0B3
:101ED000010240E80026002EF5D184F83E3025634B
:101EE00020680C3050E8002F22F0100240E8002358
:101EF000002BF5D12046FFF70BFFF8BDFFE70506E5
:101F00002BD5150629D594F83D002128F5D1A068D8
:101F1000B0F5805F01D12069B0B1206A411C216217
:101F2000216800784860E08C401E0004000CE084CA
:101F3000E3D12068C16821F08001C1602068C168D8
:101F400041F04001C160D8E7206A0088C0F3080072
:101F50004860206A801C2062E5E74006CDD5500627
:101F6000CBD5CA68204622F04002CA6084F83D30D2
:101F700000F098F8C1E700009929000870B5040046
:101F800004D094F83D00002510B106E0012070BD9A
:101F900084F83C50204600F023F8242084F83D00CB
:101FA0002068C16821F40051C160204600F084FD22
:101FB0002068016921F4904101612068416921F0A4
:101FC0002A0141612068C16841F40051C160256463
:101FD000202084F83D0084F83E00002070BD000001
:101FE000F0B587B0044614216846FEF7D2F92149BE
:101FF000206888423BD120480024016841F48011C8
:102000000160006800F4801005901B4810380168DA
:1020100041F004010160016801F0040105910168CB
:1020200041F0080101600068022500F008000590F9
:102030004FF48050CDE9000502AA0326082782E864
:10204000D00069460D48FEF765FF0420CDE9000584
:1020500002AA694682E8D0000948FEF75BFF002229
:1020600011463520FFF7B8F83520FFF7A7F807B07D
:10207000F0BD00000050004040380240000802401F
:10208000000C0240064A08B50121116001680A6887
:1020900049680091016C41F00801016408BD00002D
:1020A000000100207047FEE77FB500242648009419
:1020B0000194029423490394016001254FF4803177
:1020C0000561C0E90114057680F820401F49C0E988
:1020D0000A140426C661C46080F830404461FEF7EB
:1020E0001CFC08B172B6FEE7CDE90045694616480A
:1020F0000295FEF75DFB08B172B6FEE70224CDE95A
:10210000005469461048FEF753FB08B172B6FEE76B
:102110000094032469460C480194FEF749FB08B17A
:1021200072B6FEE7CDE9004669460748FEF740FB78
:1021300008B172B6FEE7042205490348FEF766FCC3
:102140007FBD000000220140200100200100000F9F
:102150008402002070B586B014216846FEF719F994
:102160002B480024016841F001010160016801F081
:1021700001010591016841F002010160016801F06F
:1021800002010591016841F004010160016801F05C
:1021900004010591016841F00801016000681D4DCE
:1021A00000F008000590012240212846FEF7A0FF1C
:1021B000032000904FF40410CDE90104164E694647
:1021C0003046FEF7A7FE4FF48040CDE90004694693
:1021D00030460294FEF79EFE402000900120CDE99B
:1021E0000104694628460394FEF794FE0022114636
:1021F0000620FEF7F1FF0620FEF7E0FF0022114661
:102200000720FEF7E9FF0720FEF7D8FF06B070BDF4
:1022100030380240000802400004024030B58DB062
:1022200000240794089409940A940B941C2168468E
:102230000C94FEF7AEF82B4D29482860B320C5E971
:1022400001044FF6FF70C5E903048020A861284609
:10225000FFF75AFB08B172B6FEE74FF480500790C3
:1022600007A92048FFF7E8FB08B172B6FEE71D4852
:10227000FFF720FD08B172B6FEE708211948FFF705
:1022800087FC08B172B6FEE70B940BA915480C94B5
:10229000FFF7F2FA08B172B6FEE760200090012065
:1022A0000190022002900822694604940D48FFF72D
:1022B0009BFC08B172B6FEE701220821286800F0F5
:1022C0005FFA29686FF0010008612868C16841F071
:1022D0000101C1600348FFF71DFC0DB030BD0000D7
:1022E000000400406801002030B58DB00024079440
:1022F000089409940A940B941C2168460C94FEF7E8
:1023000048F82B4D29482860B320C5E901044FF651
:10231000FF70C5E903048020A8612846FFF7F4FA9E
:1023200008B172B6FEE74FF48050079007A9204825
:10233000FFF782FB08B172B6FEE71D48FFF7BAFC53
:1023400008B172B6FEE708211948FFF721FC08B171
:1023500072B6FEE70B940BA915480C94FFF78CFAA4
:1023600008B172B6FEE760200090012001900220C3
:1023700002900022694604940D48FFF735FC08B12D
:1023800072B6FEE701220021286800F0F9F92968F9
:102390006FF0010008612868C16841F00101C16067
:1023A0000348FFF7B7FB0DB030BD00000008004048
:1023B000B001002010B586B00024174800940194A5
:1023C0000294039404941349059401605921C0E9CF
:1023D0000114611EC0E9031480218161FFF794FAA2
:1023E00008B172B6FEE74FF48050009069460A4883
:1023F000FFF722FB08B172B6FEE7049404A9064871
:102400000594FFF739FA002801D072B6FEE706B04E
:1024100010BD0000000C0040F8010020FEE7FEE7C0
:102420002248816A012902D0C16A01293AD1416852
:1024300090ED150A012936D0D0ED0C0A1B4930EE7B
:10244000600A803980ED1B0A90ED1C0AD0ED1B0A52
:1024500070EE201AC0ED1C1A90ED1E0A30EEC01A64
:1024600080ED1D1A91ED100A91ED112A20EE200A3F
:1024700002EE210AD1ED121A01EE810A80ED1F0A47
:10248000C0ED1E0AD1ED140AB4EEE00AF1EE10FA26
:1024900006DCD1ED130AB4EEE00AF1EE10FA01D237
:1024A000C0ED1F0A7047D0ED100AC7E7800000207A
:1024B000704700002DE9F0414B4D00272DED088BB2
:1024C00005F1800495ED098A94ED160AB4EE408A70
:1024D000F1EE10FA16D084ED168A2765D4ED150AB0
:1024E000284690ED0C0AB4EEE08AF1EE10FA02DD17
:1024F00078EE600A02E005D270EEC80A80EE801A1B
:1025000084ED171A394800680A2857D3206E01262F
:102510009FED379B9FED38BB00284FD12666606D3D
:1025200001F02AFA53EC192B01F0F2F841EC1A0BE6
:1025300018EE100A01F020FA53EC1A2B01F0E6F91C
:1025400001D2206DF0B3606D01F016FA53EC1B2B35
:1025500001F0DEF841EC180B686A01F00DFA53EC5B
:10256000182B01F099F801D2206D60B395ED090A9E
:1025700084ED150A10EE100A01F0FEF953EC1B2B46
:1025800001F0C6F841EC180B206B01F0F5F953ECA3
:10259000182B01F0BBF925D8606D01F0EDF953EC73
:1025A000192B01F0B5F841EC180B206B01F0E4F9A0
:1025B00053EC182B01F070F814D82665BDEC088B8D
:1025C000BDE8F08100E006E094ED150AD4ED170AAD
:1025D00030EE200ACCE794ED150AD4ED170A30EE60
:1025E000600AC5E72765E9E700000020240C0040E9
:1025F000295C8FC2F528F03FAE47E17A14AEEF3F79
:102600007047FEF781BD000030B593B034216846B5
:10261000FDF7BFFE14210DA8FDF7BBFE20480025E5
:10262000016841F080510160006800F08050129014
:102630001C48016841F4404101600068022400F434
:1026400040401290012003901020049000940694C2
:102650000820CDE90750B420CDE909040B94684661
:102660000C94FEF729FF08B172B6FEE7FEF7E6FD0F
:1026700008B172B6FEE70DA90F2081E831004FF4D2
:10268000A05010904FF48050119005210DA8FEF736
:102690000DFE002801D072B6FEE713B030BD000079
:1026A00040380240007000400248016841F4700167
:1026B0000160704788ED00E0F0B50268254C264DBA
:1026C000264E274F274B4FF0804CA04209D0604543
:1026D00007D0A84205D0B04203D0B84201D09842FA
:1026E00004D122F0700E4A6842EA0E02A0421BD0CA
:1026F000604519D0A84217D0B04215D0B84213D0C7
:10270000984211D0184DA8420ED0184DA8420BD0B7
:10271000174DA84208D0174DA84205D0164DA84223
:1027200002D0164DA84203D122F44075CA682A434C
:102730004D6922F080022A4302608A68C2620A68F8
:102740008262A04201D0984201D10969016301214E
:102750004161F0BD0000014000040040000800405D
:10276000000C0040000401400040014000440140D2
:102770000048014000180040001C004000200040BC
:1027800010B501F01F030121046A99408C430462D3
:10279000016A9A401143016210BD10B5846842EA93
:1027A000032224F47F440A432243826010BD8268DE
:1027B00022F070020A4342F0070181607047000076
:1027C000F0B5026A22F001020262036A426884697B
:1027D000124E24F073050C682C4323F002058B681D
:1027E0002B430D4DA84201D0B04205D123F008077C
:1027F000CB683B4323F00403A84201D0B04205D18B
:102800004D6922F4407215438A692A43426084610B
:10281000496841630362F0BD0000014000040140CB
:10282000F0B5026A22F010020262026A436884690B
:102830000D6824F4E64444EA05248D6822F0200261
:1028400042EA05120F4D104EA84201D0B04206D107
:10285000CF6822F0800242EA071222F04002A8422A
:1028600001D0B04207D14D6923F4406343EA8503A8
:102870008D6943EA8503436084614968816302622C
:10288000F0BD00000000014000040140F0B5026A04
:1028900022F480720262026A4368C46922F4007200
:1028A00024F073050C68124E2C438D6842EA052211
:1028B0000E4DA84201D0B04206D1CF6822F400628A
:1028C00042EA072222F48062A84201D0B04207D136
:1028D0004D6923F4405343EA05138D6943EA051318
:1028E0004360C4614968C1630262F0BD00000140F9
:1028F0000004014030B5026A22F480520262046A88
:102900004268C3690D6823F4E64343EA05238D68F2
:1029100024F4005444EA0534084DA84202D0084D7E
:10292000A84204D14D6922F4804242EA85124260F5
:10293000C36149680164046230BD000000000140C9
:102940000004014010B5036A046A24F00104046223
:10295000846924F0F00444EA021423F00A020A43D2
:102960008461026210BD10B5036A23F01003036294
:102970008369046A23F4704343EA023224F0A0031B
:1029800043EA01118261016210BD00000148FFF7B6
:10299000C1B900004002002010B5806B0021C18544
:1029A000C184FFF7B6F910BD01680C3151E8002F62
:1029B00022F4907241E80023002BF5D10168143114
:1029C00051E8002F22F0010241E80023002BF5D14D
:1029D000016B012909D101680C3151E8002F22F067
:1029E000100241E80023002BF5D1202180F83E1091
:1029F00000210163704708B590F83E10222901D0EC
:102A0000022008BD82684FF480539A4201D10169C7
:102A100021B1816A9A421BD04AB10AE00268816AF8
:102A20005268C2F308020A80816A891C08E00269C0
:102A300072B10268526802F07F020A70816A491C12
:102A40008162C18D491E0904090CC18503D019E0BA
:102A500002685268F1E70168CA6822F02002CA6081
:102A60000168CA6822F48072CA6001684A6922F06B
:102A700001024A61202180F83E10016B012903D038
:102A8000FFF700FB002008BD0021016301680C3145
:102A900051E8002F22F0100241E80023002BF5D16D
:102AA00001680A68D20602D50A6849680091818DDA
:102AB000FFF72EF9E6E7000070B5044600680169EB
:102AC000E26821F44051114301612169A068E26983
:102AD00008436169114308432168CA6849F20C63DD
:102AE0009A430243CA6020684169A26921F4407197
:102AF0001143416131492068884202D030498842FF
:102B000002D1FEF77DFC01E0FEF76AFCE2690023DA
:102B1000192164253226B2F5004F626828D0A0FB47
:102B20000101930F9200FDF7BDFB0146B0FBF5F0EC
:102B30006FF01802504301EB800006EB0010B0FB71
:102B4000F5F000F0F002B1FBF5F002EB0012B1FB82
:102B5000F5F06FF01803584301EB800006EB00100E
:102B6000B0FBF5F000F00F0021681044886070BDE4
:102B7000A0FB010192185B41FDF794FB0146B0FBFD
:102B8000F5F00201B1FBF5F06FF01803584301EBCB
:102B9000800006EBC000B0FBF5F000F0F80002EB9F
:102BA0004002B1FBF5F0584301EB800006EBC0009A
:102BB000B0FBF5F000F00700D6E700000010014080
:102BC00000140140FEE70907090E002804DB00F1AC
:102BD000E02080F80014704700F00F0000F1E020C2
:102BE00080F8141D70470000F0B52D4C1321002013
:102BF00004EB011202EB800353F8103C42F8203042
:102C0000401C0428F6DD491EF1D50022254B114653
:102C100010461A661D6804E004EB0116491C36686C
:102C20003044A942F8DB1F4E1866803610B1B0FB65
:102C3000F5F0B06310465A66002501465A6804E074
:102C400004EB05176D1C7F6839449542F8DB596623
:102C500011B1B1FBF2F1F1639866002102469D6863
:102C600005E000BF04EB0116491CB6683244A942D6
:102C7000F8DB9A6612B1B2FBF5F19965D8660021CE
:102C8000DA6804E004EB0115491CED682844914220
:102C9000F8DBD866002802D0B0FBF2F0D865F0BDB2
:102CA000940200200000002010B52D482C4C2DED82
:102CB000048B803C8068D0B1012815D104F5807068
:102CC00090ED010AB8EE400ABCEEC00A84ED070A96
:102CD00090ED020AB8EE400ABCEEC00A84ED080A84
:102CE00090ED030A84ED090ABDEC048B10BD94ED50
:102CF000160AB8EE400A10EE100A00F03DFE9FEDF5
:102D0000199B53EC192B00F003FD00F097FCE061D8
:102D100094ED178AB8EE480A10EE100A00F02CFE67
:102D200053EC192B00F0F4FC00F088FCB8EE480AD4
:102D3000206210EE100A00F01FFE41EC180B606DCF
:102D400000F01AFE9FED091B53EC112B00F0E0FC84
:102D500053EC182B00F0DCFC00F0DAFA6062C3E7F9
:102D600080000020000000000040CF3F0000000075
:102D70000000303F2DED028B82B0FEF7CDF9FFF75A
:102D800043FCFFF7E7F93D480025016841F4800165
:102D9000016000682A4600F480000090294638202F
:102DA000FEF71AFA3820FEF709FAFFF737FAFFF7AD
:102DB0009BFAFFF7FFFAFFF777F9324830490160D5
:102DC0004FF4E131C0E901150C21C560C0E904519F
:102DD0008561C561FFF7D2F808B172B6FEE72948F0
:102DE0004838FEF7EDFD2848016841F040010160D8
:102DF000264C9FED270A04F180066564E562A56212
:102E0000A561E56184ED0D0A84ED0C0AA4F180054D
:102E10009FED208ADFED208A00F0DAF83068012883
:102E200001D100F061FAE86F01280DD100F058F9E6
:102E300000F0C8F92068012806D1E06C012803D110
:102E4000FFF7EEFAFFF736FBFFF7CEFEFFF72CFF9A
:102E500094ED0E0AB8EE400A20EE080A85ED1D0A30
:102E600094ED0F0AB8EE400A20EE280A85ED1E0AFE
:102E700000F014F800F000F9CEE70000303802400E
:102E8000005000404002002018080240800000204E
:102E900000000000FCE9C73C0000203B2DE9F041A8
:102EA000434D2DED088BAE69002E7AD000EE106AEE
:102EB000F8EE400A9FED3F1AA5F1800481EE200A4A
:102EC00085ED0D0A94ED061AC0EE010A9FED3A0A4F
:102ED00020EE800A85ED0C0A94ED070AB8EE400A50
:102EE00010EE100A00F048FD00EE106A41EC1A0BDB
:102EF000B8EE400A10EE100A00F03EFD9FED2F9B49
:102F000053EC192B00F004FC9FED2E8B53EC182B87
:102F100000F03CFA53EC1A2B00F0FAFB00F08EFBA9
:102F20000746A062E86F00F027FD94ED080A41EC27
:102F30001A0BB8EE400A10EE100A00F01DFD00EE6C
:102F4000106A41EC1B0BB8EE400A10EE100A00F0BC
:102F500013FD53EC192B00F0DBFB53EC182B00F0A6
:102F600015FA53EC1B2B00F0D3FB53EC192B00F09C
:102F7000CFFB53EC182B00F009FA53EC1A2B00F09E
:102F8000C7FB00F05BFBE0623844B0F5803F03D341
:102F90004FF6FE70C01BE062BDEC088BBDE8F0810F
:102FA000FFE79FED0A0A85ED0C0A85ED0D0AF3E7B0
:102FB00080000020002474490000704200000000DE
:102FC0000000E03F0000000000408F4000000000D3
:102FD00030B5244B0021244ADC6F9FED240A03F115
:102FE0008000012C01D0E4B12BE0456C4DBB15688D
:102FF00045F4800515604FF4FA72DA621C4A1160DC
:103000000121416493ED091AD3ED0F0AB0EE082AAD
:1030100071EE601A81EE821A71EE200AC0ED150A77
:103020000FE0436C012B0CD1136843F04003136095
:103030004164C16281628161C16180ED0D0A80EDF0
:103040000C0A016809B1002C0BD180ED1B0A80ED40
:103050001C0A80ED1D0A80ED1E0A9FED060A80ED18
:103060001F0A30BD000000201808024000000000C8
:10307000240C004000007A44174810B5A0F18003EA
:1030800090ED0D0AD3ED0F0A19460022B4EEE00AC6
:10309000C96FF1EE10FA01DD012901D049B109E053
:1030A0000124C4640468012C04D14FF47A741C62B6
:1030B00000E0C264836A012B01D102668262C36AA6
:1030C000012B01D10266C262002903D19FED030AE0
:1030D00080ED150A10BD00008000002000000000F7
:1030E000F0B533480022A0F18001C36C2BB1012B55
:1030F00002D1496BC0E91912F0BD876E012677B184
:103100002C4C2D4D04F1480324681B68012F14D06A
:10311000022FF1D1866C012E20D07EB33EE02749EC
:103120000E60264A4FF6FE71103A1160244A16606E
:10313000234A083A11608666F0BD2A60816C39B175
:10314000196841F001011960826402218166F0BDB5
:10315000216841F0010121608664F6E72C68456E24
:10316000B4EB550F1AD382641A6842F001021A6058
:10317000426E8B6B9A4211D9D21A0EE0FFE72B6890
:10318000466EB3420AD32A60226842F001022260EE
:10319000436E8A6B934201D99A1A4266426E8B6BD8
:1031A0009A42D4D2C26C002AD1D1496B4166F0BD9B
:1031B0008000002068010020240C00403C040040F6
:1031C0003408004070B54548454AA0F1800490EDB0
:1031D0000C0A002382ED000A216906E002EB830558
:1031E0005B1C15ED010A85ED000A8B42F6DD00231C
:1031F0009FED3C0A84ED1C0A07E000BF02EB83054B
:103200005B1CD5ED000A30EE800A0D468B42F5DBE3
:10321000B5EEC00A84ED1C0AF1EE10FA07DD00EEEF
:10322000905AF8EEE00A80EE201A80ED101AC1687C
:10323000012903D04169C16101694DE090ED050AA2
:10324000274BB8EE400A5033002283ED000A90ED80
:10325000040AB8EE400A83ED010A64690BE000BF7E
:1032600003EBC201521C11ED020A81ED000A11EDBF
:10327000010A81ED010AA242F2DD002101620D4640
:103280000A4641621BE000BF00EE101A03EBC506C0
:103290006D1CB8EE400AD6ED000A30EE800AD6ED7D
:1032A000010ABCEEC00A10EE101A00EE102AB8EEA9
:1032B000400A30EE800ABCEEC00A10EE102A264604
:1032C000A542E1DBC0E9082111B1B1FBF4F1C16114
:1032D000002A02D0B2FBF6F1816170BD80000020AF
:1032E000D40300200000000007480022835C521C29
:1032F0000F2AFBDD00210A464254491C0F29FBDD41
:103300000248026070470000C40400200001002051
:1033100021F00042A2F16052B2F5801F01F000439B
:1033200028BFD2F17F6C0BD95FEA001C43EAC202CE
:1033300042EB507018BF704728BF20F00100704763
:10334000B2F5801FBCBF184670474FEA410C1CF510
:10335000001F02D2084600F085BB70B500F082FA6B
:1033600000000089FFF7F6BF4FF00040A0F5800095
:103370007047491058BFC1F140415B1058BFC3F1BD
:1033800040438B42EFF30080704700002DE9C041BD
:1033900030B4DFF8A0C23CEA111418BF3CEA1314A1
:1033A00000F0EC8081EA03051CEA111444EAD574AC
:1033B00018BF1CEA131500F0C780A4EB05044FF0FA
:1033C000004545EAC12145EAC32341EA505143EA99
:1033D000525304F17F74994204F500344FEAC0203F
:1033E0004FEAC22208BF904200F09C804FEA13656A
:1033F0000FF24016765D4FEA134506FB05F7C7F15D
:10340000807706FB07F74FEAD737A7FB03687642BA
:10341000C8F58038A7FB06CE38BFA8F1010807FB26
:1034200008E64FF0000EA6FB028CE6FB03CEDCF1B3
:10343000000CCEF1004E38BFAEF1010EA6FB0C58C9
:103440004FF000074FF00005E6FB0E87A1FB08C612
:10345000A0FB07CE16EB0E0645F10005E1FB076564
:1034600015F1E04E7EBFA4F580345FEA46066D415B
:1034700016F1800745F100054FEA17274FEA066667
:1034800047EA0567A6F1DE46B6F1805F4FEA1525EB
:103490001FD9384624F0010C05EBC471BCF1FE6F56
:1034A00001EB0C1102D8F0BCBDE8008124425CBFE6
:1034B00001F5801E9EEAC47F02D4F0BCBDE8008105
:1034C000244238D4F0BCA1F1C041BDE8004100F075
:1034D00017BA4FEAD22242EA43524FEAD323A7FB5C
:1034E00002864FEAD02040EA415007FB03661EEAFD
:1034F0000E0F4FEAD12105FB026658BFA6EB00561E
:10350000B6EB00564FEA520E4EEAC37E18EB0E0E93
:1035100056EB530EBDD518EB02085E417F1C55F1EA
:103520000005B6E74FF480154FF000074FF0000696
:103530004FF00008ADE7F0BC4FF0000001F1C041D2
:1035400001F00041BDE8008111EA0C1F0CEA1315DF
:1035500000D00CE013EA0C1F00F025804FF00000B3
:10356000F0BC81EA030101F00041BDE80081F0BC3C
:10357000BDE8004181EA030100F0C2B9F0BCBDE83A
:10358000004170B500F06EF9097EFC3E00F007B80E
:1035900081EA03014FF0000001F00041704781EA29
:1035A000030100F0ADB9F0BCBDE800414FF00000F0
:1035B00021497047FFFDFBF9F7F5F4F2F0EEEDEB72
:1035C000E9E8E6E4E3E1E0DEDDDBDAD8D7D5D4D321
:1035D000D1D0CFCDCCCBCAC8C7C6C5C4C2C1C0BF6D
:1035E000BEBDBCBBBAB9B8B7B6B5B4B3B2B1B0AF73
:1035F000AEADACABAAA9A8A8A7A6A5A4A3A3A2A157
:10360000A09F9F9E9D9C9C9B9A9999989797969511
:1036100095949393929191908F8F8E8E8D8C8C8BAD
:103620008B8A898988888787868585848483838235
:10363000828181800000FF070000F87F4FEA11536C
:10364000A3F58063D3F11E03A8BFD3F1200C08DBE0
:103650004FF0004242EAC12252EA505232FA03F0DD
:10366000704709420BD4102BC4BF0020704703F5EC
:10367000787CBCF1FF3F05D04FF0FF3070474FF032
:103680000000704770B500F0EDF800BF499224804B
:1036900000207047F0E7000051EA030C17D41CF536
:1036A000801F58BFBCF5801F00F10680994218BFEB
:1036B000704708BF9042704707D711F5801F58BF69
:1036C00013F5801F19D499427047894270471CF541
:1036D000801F08D5BCF5801FF7D58B4218BF7047F7
:1036E00008BF824270474FF4001C1CEB410F38BFEB
:1036F0001CEB430F01D28B42704770B500F0B2F85B
:10370000922449004FF000514FF08053FFF731BE33
:10371000DFF848C170B51CEA111E1EBF1CEA131564
:103720009EEA0C0F95EA0C0F00F06F8081EA03040B
:1037300023EA4C134EEAD47E21EA4C1141F4801165
:1037400043F48013AE44A1FB024CA0FB0365AEF131
:103750007F7E361955EB0C05A1FB034C4CF10003A1
:10376000A0FB021C16EB0C06654153F10003094255
:1037700018BF46F0010613F4007F0BD14FEA033166
:103780004FEA0530340341EA155140EA16506FF014
:1037900003020AE04FEAC3214FEAC520F40241EADE
:1037A000555140EA56506FF0020202EB2E4201EBF7
:1037B000025585EACE710AD05FEA440C18BF24F0A6
:1037C000004450F1000041F1000120EAD47040F2C1
:1037D000FE7C624500D270BDA84214BF4FF0804409
:1037E0004FF04044002E08BF0024BEF1806FA8BFF8
:1037F000A1F1C041BDE8704080F282804FF000002E
:1038000001F1C04101F0004170479EEA0C0F0CEA43
:10381000131518BF95EA0C0F06D04FF0000081EA8F
:10382000030E0EF0004170BD00F01CF88900013E4F
:1038300000F007B800F009B84FEA430C5FEA5C5C9F
:1038400008D081EA030100F05BB84FEA410C5FEA5F
:103850005C5CF6D14FF00000014970470000FF07A3
:103860000000F87F0EF1020E2EF0030E5EF8046BDE
:10387000364205D4012A43EB030515F5001F12D883
:10388000012841EB010C1CF5001F0CD80ED14FEAAA
:10389000D17C15F5001F0CEB4C0C0CF1020C08BF91
:1038A0004CEBD37C04E04FF0080C01E04FEAD37CF2
:1038B0000CEB4C0526FA05F606F00706B6F1040CEB
:1038C00006D20EEB860CBDE870404CF0010C604750
:1038D000DFE80CF0090B02024FF000414FF000004E
:1038E000A1F5002170BD19461046012851EB0104D5
:1038F00018BFD4F5001484BF002001F0004170BD52
:103900000808A0F500114FEA3101704753EA010C95
:1039100017D41CF5801F58BFBCF5801F00F106802E
:103920008B4218BF704708BF8242704707D713F514
:10393000801F58BF11F5801F19D48B4270479B42DE
:1039400070471CF5801F08D5BCF5801FF7D599423C
:1039500018BF704708BF904270474FF4001C1CEB23
:10396000430F38BF1CEB410F01D2994270470FB48F
:103970000CBC03BCFFF7C1BE43004FEAD30C4FEAB7
:103980003C0C43401FBF40070CF1605113F0FE4F49
:1039900070471CF0006F03D100200CF0004170470D
:1039A0000CF0004343EA507010B540EACC0000F040
:1039B0000EF800BF000000924FEA0001FFF7A0BF21
:1039C0004FF000414FF00000A1F5002170470EF1CB
:1039D000020E2EF0030E5EF8044B244204D44FEA8C
:1039E0004102B2F17F4F11D84FEA4003B3F17F4F4C
:1039F0000CD80ED14FEAD07CB2F17F4F0CEB4C0CBF
:103A00000CF1020C08BF4CEBD17C04E04FF0080C29
:103A100001E04FEAD17C0CEB4C0324FA03F404F0F0
:103A20000704B4F1040C06D20EEB840CBDE8104080
:103A30004CF0010C6047DFE80CF0070802024FF081
:103A40000040A0F5800010BD0846420018BFD2F12A
:103A5000807288BF00F0004010BD4FF04070E1EE72
:103A6000100A7047FF2141EAD050C0057047000698
:103A700010160006101600000000000000000102F1
:103A80000304060708090000000001020304000007
:103A9000B03A0008000000202001000000020008E9
:103AA000D03B000820010020780A00001C0200081A
:103AB0000A0000000A0000001400000014000000CA
:103AC0000A00000005000000000040400000000067
:103AD000E803000000007A4400000000F401000048
:103AE0000000C84240420F00E80300000000C04050
:103AF0000000F0406F12833ACDCCCC3D0000803FF7
:103B00000000614400007A45000000000000000051
:103B100000000000000000000000000000000000A5
:103B20000000000000000000000000000000000095
:103B30000000000000000000000000000000000085
:103B40000000000000000000000000000000000075
:103B50000000000000000000000000000000000065
:103B60000000000000000000000000000000000055
:103B70000000000000000000000000000000000045
:103B80000000000000000000000000000000000035
:103B90000000000000000000000000000000000025
:103BA0000000000000000000000000000000000015
:103BB0000000000000000000000000000000000005
:103BC0000100000010000000000000000024F400CC
:04000005080001C529
:00000001FF
