:020000040800F2
:10000000100C0020A502000863250008B921000893
:100010006125000851060008852D00080000000039
:100020000000000000000000000000004927000858
:100030000507000800000000F92500084B2700080C
:10004000BF020008BF020008BF020008BF0200088C
:10005000BF020008BF020008090700087D0700086A
:10006000BF020008BF020008BF020008BF0200086C
:10007000BF020008BF020008BF020008BF0200085C
:10008000BF020008BF020008BF020008BF0200084C
:10009000BF020008BF020008BF020008BF0200083C
:1000A000BF020008BF020008BF020008BF0200082C
:1000B000BF020008BF020008BF020008BF0200081C
:1000C000BF020008BF020008BF020008BF0200080C
:1000D000BF020008BF020008BF020008BF020008FC
:1000E000BF020008BF020008BF020008BF020008EC
:1000F000BF020008BF020008BF020008BF020008DC
:10010000BF020008BF020008BF020008BF020008CB
:10011000BF020008D52A0008BF020008BF0200087D
:1001200055060008BF020008BF020008BF02000811
:10013000BF0200080000000000000000BF0200082D
:10014000BF020008BF020008BF020008BF0200088B
:10015000BF020008BF020008BF020008BF0200087B
:10016000BF020008BF020008BF020008BF0200086B
:10017000BF020008BF020008BF0200080000000024
:1001800000000000BF0200080000000000000000A6
:10019000BF0200080000000000000000BF020008CD
:1001A000000000000000000000000000BF02000886
:1001B000BF020008BF020008BF020008BF0200081B
:1001C000BF02000800F002F800F05CF80AA090E816
:1001D000000C82448344AAF10107DA4501D100F002
:1001E00051F8AFF2090EBAE80F0013F0010F18BF73
:1001F000FB1A43F0010318470840000028400000A4
:100200000A444FF0000C10F8013B13F0070408BF3C
:1002100010F8014B1D1108BF10F8015B641E05D0DA
:1002200010F8016B641E01F8016BF9D113F0080F8F
:100230001EBF10F8014BAD1C0C1B09D16D1E58BF21
:1002400001F801CBFAD505E014F8016B01F8016B58
:100250006D1EF9D59142D6D37047000000230024CB
:1002600000250026103A28BF78C1FBD8520728BFC6
:1002700030C148BF0B6070471FB503F0A6FF1FBD1C
:1002800010B510BD00F0CFF81146FFF7F5FF02F0F2
:100290006DFE00F0EDF803B4FFF7F2FF03BC00F0D1
:1002A000F5F800000948804709480047FEE7FEE7E7
:1002B000FEE7FEE7FEE7FEE7FEE7FEE7FEE7FEE716
:1002C00004480549054A064B70470000F12700081D
:1002D000C501000810060020100C002010080020A6
:1002E0001008002053EA020C00F069802DE9F04B61
:1002F0004FF00006002B1FBFB3FA83F503FA05F495
:1003000024FA05F65E4012BF1643B2FA82F502FAED
:1003100005F4C5F120051EBF22FA05FC44EA0C04D1
:10032000203556EA044C4FEA144418BF641C4FF0C1
:1003300000084FF00009904271EB030C39D30029FB
:1003400019BFB1FA81F701FA07F6B0FA80F700FA9F
:1003500007F6C7F120071EBF20FA07FC46EA0C0685
:100360002037B6FBF4FCA7EB0507103F07F01F0B87
:10037000CBF120060CFA0BFB2CFA06F644BFB34671
:100380000026202FA4BF5E464FF0000B5BEA060C50
:1003900008BF4FF0010B19EB0B09ABFB027C48EBDC
:1003A0000608C01B06FB02CC0BFB03CC71EB0C0157
:1003B000C1E70B46024641464846BDE8F08B13B5FF
:1003C0004FF000004FF00001AFF30080BDE81C408B
:1003D00070474FF0000200B5134694469646203908
:1003E00022BFA0E80C50A0E80C50B1F12001BFF4EE
:1003F000F7AF090728BFA0E80C5048BF0CC05DF854
:1004000004EB890028BF40F8042B08BF704748BFA1
:1004100020F8022B11F0804F18BF00F8012B704715
:10042000704770477047754600F02CF8AE460500DF
:100430006946534620F00700854618B020B5FFF7FF
:100440003FFFBDE820404FF000064FF000074FF09F
:1004500000084FF0000B21F00701AC46ACE8C009E2
:10046000ACE8C009ACE8C009ACE8C0098D467047EB
:1004700010B50446AFF300802046BDE81040FFF7FA
:100480000ABF000000487047AC0500200149182051
:10049000ABBEFEE726000200704710B50146806B38
:1004A000026C12F0500F05D0026CD20626D500F077
:1004B00053FA10BD016C41F40071016401688A684F
:1004C00012F0405F17D1027EAAB9CA6A12F4700F07
:1004D00002D08A6852050ED44A6822F020024A608F
:1004E000016C21F480710164016CC90403D4016CB6
:1004F00041F00101016400F02DFA10BD806BC26C67
:10050000BDE810400846104710B5806B40210164DB
:10051000416C41F00401416400F01EFA10BD10B5B9
:10052000806B00F018FA10BD464910B54A6822F4F5
:1005300040324A604A6843681A434A6001684A6820
:1005400022F480724A6001684A68036942EA032221
:100550004A6001684A6822F040724A6001684A684D
:1005600083681A434A6001688A6822F400628A60DC
:1005700001688A68C3681A438A60816A6FF0706292
:10058000D14201688A6822F070628A6001688A68D4
:100590000CD0836A1A438A6001688A6822F040524C
:1005A0008A6001688A68C36A1A4301E022F04052F7
:1005B0008A6001688A6822F002028A6001688A689B
:1005C000037E42EA43028A6090F820100029016805
:1005D0004A680FD042F400624A6001684A6822F417
:1005E00060424A6001684A68174C436A04EB43332F
:1005F0001A4301E022F400624A600168CA6A22F4E8
:100600007002CA620168CA6A838B104C04EB035300
:100610001A43CA6201688A6822F400728A6001681B
:100620008A6890F8303042EA43228A6001688A681A
:1006300022F480628A6001688A68406942EA802008
:10064000886010BD0023014000E0FFFF0000F0FFC4
:10065000FEE70000014800F00FBB00004C05002041
:1006600001681823CAB2103AB2FBF3F2054B6FF3DC
:100670000901032A9B5CC36500D9091D81650846F1
:1006800070470000DE41000810B5014600208B696C
:100690008A6A4FF0C07453B1B3F5005F15D072B1E0
:1006A000012A0CD0022A0AD0032A09D104E01AB187
:1006B000012A06D0022A03D1C96AC90100D5012046
:1006C00010BDC96AA142FAD010BD002AF7D0012A94
:1006D000F2D0022AF3D0032AF3D010BD30B504685B
:1006E000256825F480252560046863608368402BB5
:1006F000036803D099600068C26030BD9A600068EA
:10070000C16030BD7047000013480168134A116092
:100710000021016012480068012819D111481249CE
:10072000124A006809680144491C11600F491031E0
:10073000401C08600E480068016841F0010101603A
:100740000C480D4A01681268114301D10121016072
:10075000012000F003BC0000240C0040A800002091
:10076000E80000202C000020300000202C04004075
:1007700090010020C0000020E40000201248006822
:100780001249086012480068012819D1114812491D
:10079000124A006809680144491C11600F49083178
:1007A000401C08600E480068016841F001010160CA
:1007B0000C48016821B90C490968012900D1016080
:1007C000022000F0CBBB0000240C0040AC00002055
:1007D000E80000202C000020300000202C08004001
:1007E000D8010020C4000020E400002072B6FEE71B
:1007F00078B50024009490F83C20012A19D00122F9
:1008000080F83C200A6807230568092A13D9EE6896
:100810000A3A02EB420293409E43EE600B788A68EC
:100820000A3B03EB43039A400368DD682A43DA601E
:1008300010E0022078BD2E6902EB420293409E43F5
:100840002E610B788A6803EB43039A4003681D69A5
:100850002A431A614A681F23072A13D205686E6B60
:10086000521E02EB820293409E436E630A8893B24B
:100870000A79521E02EB820293400268556B2B43A9
:10088000536327E005680D2A12D22E6BD21F02EBAC
:10089000820293409E432E630B790A88DB1F92B23B
:1008A00003EB83039A4003681D6B2A431A6311E02C
:1008B000EE6A0D3A02EB820293409E43EE620B79A0
:1008C0000A880D3B92B203EB83039A400368DD6A0A
:1008D0002A43DA621B4B0568194A9D420AD10D680A
:1008E000122D07D1556825F400055560556845F46B
:1008F0008005556005689D421DD1134D0B68AB42C4
:1009000001D0112B17D1536823F48003536053682F
:1009100043F4000353600968A9420CD10B490C4A07
:100920000968B1FBF2F101EB8101490000E0491EC9
:1009300000910029FBD180F83C40002078BD0000E8
:10094000002301400020014012000010440100205B
:1009500040420F0070477047704770B504004FF079
:10096000000503D0206C002610B107E0012070BD07
:10097000204600F01DF8666484F83C60206CC006D8
:1009800010D4206C20F4885040F0020020642046EF
:10099000FFF7CAFD6664206C20F0020040F0010001
:1009A000206400E0012584F83C60284670BD00000A
:1009B00070B586B0064614216846FFF70AFD254942
:1009C0003068884244D124480025016841F48061A0
:1009D00001600068204900F48060143905900868BF
:1009E00040F004000860086800F004000590086802
:1009F00040F0010008600868032400F00100059041
:100A000001208DE831006946144800F0B3FA0F2048
:100A10008DE831006946124800F0ACFA124C1148DA
:100A200020608005C4E901050014C4E903504000BA
:100A300060618000A0614011E0610002C4E9080526
:100A4000204600F0E9F908B1FFF7D0FEB463A663D1
:100A500006B070BD00220140443802400008024048
:100A600000000240106402404C050020F8B5044626
:100A700000200E46009094F83C10012907D0012177
:100A800084F83C1021688B68DB0702D011E002205B
:100A9000F8BD8B6843F001038B604049404B096807
:100AA000B1FBF3F101EB410100E0491E0091002987
:100AB000FBD121688B68DB0503D58B6823F4807339
:100AC0008B6021688B68DB075DD0236C40F2016589
:100AD000AB4343F4807323644968490505D5216C11
:100AE00021F4005141F480512164216CC90404D5E2
:100AF000616C21F00601616400E0606484F83C00F0
:100B0000A16B2948274DC863A16B28480864A16BD5
:100B10002748C86421686FF0220008602068416897
:100B200041F0806141602068816841F4807181609A
:100B30002168134632464C31A06B00F0D7F9686843
:100B40001C49C006206806D0884224D1816811F073
:100B5000405F13D01FE08842F8D0174A904203D17B
:100B6000D1F80423D206F1D0144A904213D1D1F81F
:100B7000041301F01F011029E8D30CE0816841F053
:100B80008041816007E0206C40F010002064606CC0
:100B900040F0010060640020F8BD00004401002026
:100BA00040420F00002301409B0400081F0500087D
:100BB00009050008002001400021014000220140F9
:100BC0002DE9F0410446876D00F0C8FA064694F816
:100BD00035000025022806D08020606584F8345056
:100BE0000120BDE8F0812068016821F01601016054
:100BF0002068416921F080014161206C08B9A06C36
:100C000020B12068016821F00801016020680168B6
:100C100021F0010101600CE000F0A0FA801B052822
:100C200007D920206065032084F8350084F834500B
:100C3000D7E720680068C007EED194F85C103F2029
:100C40008840B860012084F8350084F834500020D2
:100C5000C7E790F83510022903D0802141650120B3
:100C60007047052180F835100068016821F0010106
:100C700001600020704700002DE9F84304464FF062
:100C80000009CDF8009063484FF41651A56D006837
:100C9000B0FBF1F72E6894F85C10082000FA01F11F
:100CA00031420FD021680A6852070BD50A6822F03A
:100CB00004020A6094F85C108840A860606D40F0FF
:100CC0000100606594F85C104FF0010808FA01F02B
:100CD000304208D021684969090604D5A860606DD2
:100CE00040F00200606594F85C10042088403042B7
:100CF00008D021680968890704D5A860606D40F0B4
:100D00000400606594F85C1010208840304218D0D0
:100D100021680968090714D5A8602068016849039B
:100D200004D50068000308D5A16C07E00168C90577
:100D300003D4016821F008010160216C09B120464B
:100D4000884794F85C1020208840304231D02168D8
:100D50000968C9062DD5A86094F8350005282068D3
:100D6000016806D0490347D5006800031DD4616CB3
:100D70001CE021F0160101602068416921F080012A
:100D80004161206C08B9A06C20B12068016821F095
:100D90000801016094F85C103F208840A86084F846
:100DA000358084F83490216D1FE0E16B09B1204655
:100DB0008847606D00282BD0606DC00714D00520D7
:100DC00084F835002068016821F001010160009875
:100DD000401C0090B84203D820680068C007F6D1D4
:100DE00084F8358084F83490E16C002910D001B08B
:100DF0002046BDE8F04308470168C905D5D401681D
:100E000021F01001016084F8358084F83490CCE73B
:100E1000BDE8F883440100202DE9F041044600F0CC
:100E20009DF906465CB1022084F83500002584F85F
:100E300034502068016821F0010101600DE00120BB
:100E4000BDE8F08100F08AF9801B052805D9202033
:100E50006065032084F83500F2E720680068C00769
:100E6000F0D12268116820480140D4E901031843F9
:100E7000D4E903363343184363691843A36918431D
:100E8000E3691843236A18430843616A042903D1BC
:100E9000D4E90B1319430843106020684069666A5F
:100EA00020F0070130460E43012704280CD1A06A28
:100EB0000643E06A40B12046FFF7E6FB20B1402040
:100EC000606584F83570BAE7206846612046FFF710
:100ED000C7FB94F85C203F2191408160656584F8F0
:100EE00035700020ACE700003F8010F02DE9F041A4
:100EF0000446866D90F83400002501280DD00120AD
:100F000084F8340094F835700020012F07D084F85D
:100F1000340002252846BDE8F0810220FBE70227C5
:100F200084F8357060652046FFF7D8FB94F85C10B4
:100F30003F208840B0602068016841F016010160E0
:100F4000206C20B12068016841F008010160206830
:100F5000016841F001010160DCE77047044910B508
:100F60000A68024202D00860FFF7F7FF10BD0000D8
:100F7000143C01402DE9F84FDFF8ACA10022012418
:100F800003254FF00F090AF1040BAAF1040E00BF6C
:100F90000B6804FA02F63340B3426ED10F7907F0C2
:100FA0000307012F01D0022F16D187684FEA4208AC
:100FB00005FA08FC27EA0C07D1F80CC00CFA08FC6B
:100FC0004CEA070CC0F808C04768B7430E79C6F36F
:100FD000001696403E4346600E79F643B6070AD0A7
:100FE000C6684FEA420C05FA0CF7BE438F6807FA51
:100FF0000CF73743C7600E7906F00306022E10D1B6
:10100000D60800EB8608D8F8206057074FEAD76C5F
:1010100009FA0CF7BE430F6907FA0CF73743C8F813
:10102000207006684FEA420C05FA0CF7BE430F79B0
:1010300007F0030707FA0CF7374307604E6816F40A
:10104000403F6BD0394E376847F480473760366889
:1010500022F0030706F480460096354E07EB060C97
:10106000DCF8086897074FEA177809FA08F7BE43D3
:10107000304FB84202D100271FE04FE02E4FB84258
:1010800001D1012719E02D4FB84201D1022714E008
:101090002B4FB84201D103270FE02A4FB84201D1AC
:1010A00004270AE0284FB84201D1052705E0274F61
:1010B000B84201D1062700E0072707FA08F73743AF
:1010C000CCF80878DAF800605746D1F804C09E439F
:1010D0005FEACC2C00D51E433E60DBF800605F4623
:1010E000D1F804C09E435FEA8C2C00D51E433E60BD
:1010F000DEF800607746D1F804C09E435FEA8C3C7E
:1011000000D51E433E60084F083F3E68D1F804C03A
:101110009E435FEACC3C00D51E433E60521C102A21
:10112000FFF436AFBDE8F88F083C01404438024078
:10113000003001400000024000040240000802406C
:10114000000C02400010024000140240001802404F
:101150000AB1816170470904FBE70000014880681B
:10116000704700003801002002488168027811446D
:1011700081607047380100200B4810B5016841F4C8
:1011800000710160016841F480610160016841F40F
:1011900080710160032000F06FF80F2000F006F866
:1011A00000F024F8002010BD003C024070B50D4D49
:1011B00004464FF47A712878B1FBF0F00A490968C7
:1011C000B1FBF0F000F074FB48B9102C07D20022FC
:1011D0002146501E00F030F800206C6070BD0120E8
:1011E00070BD000038010020440100200A4808B505
:1011F000016841F480410160006800F48040009083
:101200000548001F016841F080510160006800F04E
:101210008050009008BD000044380240002809DBDF
:1012200000F01F02012191404009800000F1E02000
:10123000C0F8001170470000F0B40E4B1B680C465C
:10124000C3F30223C3F10705042D00D90425191D9A
:10125000072901D2002300E0DB1E012606FA05F172
:10126000491E214099409E40761E16403143F0BCF5
:1012700001F089BD0CED00E0064900F007020868A6
:101280004FF6FF03184040EA0220034A104308606B
:10129000704700000CED00E00000FA052DE9F8436E
:1012A0001748016841F0805101600068154F00F057
:1012B0008050012600903E64FFF750FF05464FF432
:1012C0007A78114C05E000BFFFF748FF401B40450E
:1012D0000DD86068C003F7D57E64FFF73FFF054671
:1012E000464607E0FFF73AFF401BB04202D9032011
:1012F000BDE8F88360688003F4D50020F8E70000BB
:101300004038024000000E42007000402DE9F047D6
:101310000E46050065D0DFF81481D8F80000F7B25A
:1013200000F00F00B04207D288F80070D8F8000033
:1013300000F00F00B04254D128683D4C810712D50F
:10134000400703D5206840F4E0502060287800076B
:1013500003D5206840F4604020602068A96820F030
:10136000F000084320602878C0072DD03049686815
:101370000839012812D0022813D0032811D0096897
:10138000890700292DDA216821F00301014321603A
:10139000FFF7E4FE814641F2883A0EE009688903CE
:1013A000EFE709688901ECE7FFF7D8FEA0EB090138
:1013B000514502D90320BDE8F0872068696800F034
:1013C0000C00B0EB810FEFD1D8F80010404601F0CF
:1013D0000F01B14207D90770006800F00F00B0425A
:1013E00001D00120E7E72878400705D52068E968A3
:1013F00020F4E050084320602878000706D52068D4
:10140000296920F4604040EAC100206000F038F80B
:101410002168084AC1F30311515CC84006490860BD
:1014200006480068FFF7C2FE0020C4E7003C024007
:1014300008380240E6410008440100203C01002039
:101440000448054900680968044AC1F38221515CD7
:10145000C84070474401002008380240F6410008A7
:101460000448054900680968044AC1F34231515CE7
:10147000C84070474401002008380240F641000887
:10148000224810B5006810F00C02214815D02149FF
:10149000042A11D01D4C241F082A0FD00C2A0CD16D
:1014A0002268236802F03F025B0221D52068C0F366
:1014B0008810A0FB010120E0084610BD22682368C7
:1014C00002F03F025B0205D52068C0F38810A0FB44
:1014D000010104E02168C1F38811A1FB0001002390
:1014E000FEF700FF2168C1F30141491C49000AE0F1
:1014F0002168C1F38811A1FB00010023FEF7F2FE71
:101500002168C1F30271B0FBF1F010BD0838024050
:101510000024F40040787D012DE9F84F04007DD0CF
:10152000DFF878B32078ABF10407C007A7F1040512
:1015300050D0DBF800105846C1F3810101290FD0CB
:101540000168C1F38101022902D13968490207D437
:101550000068C0F38100032809D13868400206D52D
:101560002868800336D560680028D8D032E06068EB
:10157000B0F5803F10D0B0F5A02F286810D020F42F
:1015800080302860286820F4802028606068A0B13E
:10159000FFF7E4FD06460CE0286840F48030F4E7ED
:1015A00040F480202860F7E7FFF7D8FD801B64280F
:1015B00076D828688003F7D50CE0FFF7CFFD064604
:1015C00005E000BFFFF7CAFD801B6428F0D828683B
:1015D0008003F7D42078DFF8C89280074FF0000A24
:1015E00044D5DBF80010584611F00C0F0FD00168FD
:1015F000C1F38101022902D13968490207D5006887
:10160000C0F3810003280AD13868400207D4286853
:10161000800715D5E068012800D111E03AE1E068C3
:10162000B0B10120C9F80000FFF798FD064604E0BC
:10163000FFF794FD801B0228BAD828688007F7D5E9
:101640002868216920F0F80040EAC10028600DE018
:10165000C9F800A0FFF782FD064604E0FFF77EFD13
:10166000801B02281CD828688007F7D42078000740
:1016700027D5DFF828828B48616908F16C0881B1B1
:1016800001210160FFF76AFD064604E0FFF766FDF1
:10169000801B022804D8D8F800008007F6D510E097
:1016A00089E0C0F800A0FFF759FD064605E000BF3D
:1016B000FFF754FD801B02287DD8D8F80000800772
:1016C000F6D42078400769D574484FF000083830C8
:1016D0000068C0000BD471483830016841F0805177
:1016E000016000684FF0010800F0805000906E4EDD
:1016F0003068C00511D4306840F480703060FFF766
:101700002DFD009006E000BFFFF728FD0099401A6C
:10171000022850D83068C005F6D5604EA0686836FB
:1017200001280FD00528306810D020F0010030606B
:10173000306820F004003060A068B8B1FFF70EFDFB
:1017400000900FE0306840F00100F4E740F0040042
:101750003060F7E7FFF702FD0099411A41F2883047
:10176000814264D830688007F4D50EE0FFF7F6FCBC
:10177000009007E0FFF7F2FC0099411A41F288302F
:10178000814254D830688007F4D4B8F1000F05D0F6
:1017900042483830016821F080510160A069A8B347
:1017A000DBF80010C1F38101022947D00228C9F8F3
:1017B00060A005D000E03AE0FFF7D0FC044639E035
:1017C000FFF7CCFC064604E0FFF7C8FC801B0228AC
:1017D0002DD828688001F7D4F4E907010843E168AF
:1017E000324A490802EB0141A26841EA82110843EA
:1017F000217C40EA0160217D40EA017038600120CF
:10180000C9F86000FFF7AAFC044606E044E000BF08
:10181000FFF7A4FC001B022809D828688001F7D52F
:101820003AE000BFFFF79AFC001B022802D9032010
:10183000BDE8F88F28688001F4D42DE00128F7D0A6
:101840003868E26900F48001914223D1226A00F0F5
:101850003F0191421ED147F6C071626A0140B1EB6F
:10186000821F17D1A26A4FF0FF3300F4403103EB1F
:101870005202B1EB024F0DD194F82C2000F07061B0
:10188000B1EB026F06D194F8301000F0E040B0EBFD
:10189000017F01D00120CBE70020C9E708380240D2
:1018A00000004742800E4742007000400000FFFFEA
:1018B00010B5401EB0F1807F01D3012010BD4FF064
:1018C000E02460610F21601701F05DFA0020A06143
:1018D00007202061002010BD70B590F83C20012A3F
:1018E00032D0012480F83C40022280F83D20036879
:1018F0005A689D6822F070060A6832435A60134B9A
:1019000002689A4214D0B2F1804F11D0104B9A4223
:101910000ED0104B9A420BD00F4B9A4208D00F4B6F
:101920009A4205D00E4B9A4202D00E4B9A4204D1F5
:10193000496825F080031943916080F83D400021FB
:1019400080F83C10084670BD022070BD00000140C8
:101950000004004000080040000C0040000401406A
:10196000004001400018004010B5040003D094F876
:101970003D0010B107E0012010BD002084F83C00BC
:10198000204600F01FF8022084F83D00211D206849
:1019900000F036FF012084F8460084F83E0084F809
:1019A0003F0084F8400084F8410084F8420084F845
:1019B000430084F8440084F8450084F83D0000208A
:1019C00010BD000008B5124A01681248914207D1C3
:1019D000016841F002010160006800F0020009E0C6
:1019E0000D4A914208D1016841F00401016000688C
:1019F00000F00400009008BD084A9142FBD1016844
:101A000041F008010160006800F00800F2E7000002
:101A1000000400404038024000080040000C004034
:101A200090F83D10012901D001207047022180F873
:101A30003D1000681149884214D0B0F1804F11D098
:101A40000F4988420ED00F4988420BD00E49884278
:101A500008D00E49884205D00D49884202D00D4970
:101A6000884204D1816801F00701062903D001688A
:101A700041F00101016000207047000000000140BA
:101A80000004004000080040000C00400004014039
:101A9000004001400018004070B5044690F83C003A
:101AA0000025012817D0012684F83C60022084F824
:101AB0003D002068826822F0770222F47F42826033
:101AC0000868502838D00DDC20284FD005DC90B3B2
:101AD000102811D14AE0022070BD302846D040289D
:101AE0000AD13BE060282FD070280DD0B0F5805F80
:101AF00003D0B0F5005F12D0012584F83D600020CE
:101B000084F83C00284670BDCB68D1E901212068EB
:101B100000F0E7FE2068816841F0770109E0CB68BA
:101B2000D1E90121206800F0DCFE2068816841F4E1
:101B300080418160E1E719E0CA684968206800F0E7
:101B4000A5FF5021206806E0CA684968206800F0B7
:101B5000AEFF6021206800F0CEFECEE7CA6849687B
:101B6000206800F093FF40212068F4E722680146D6
:101B70001046F0E730B587B0044614216846FEF7FA
:101B800028FC2468154D0022154802210323AC428D
:101B90000ED1046844F004040460006800F00400FE
:101BA0000590C8018DE80F00049169460D4810E0CA
:101BB0000D4DAC420FD1046844F00204046000688B
:101BC00000F00200059040208DE80F000491694666
:101BD0000648FFF7CFF907B030BD00000004004011
:101BE0003038024000080240000800400004024073
:101BF00070B50D46040003D094F83D0010B107E025
:101C0000012070BD002084F83C00204600F01BF845
:101C1000022084F83D00211D206800F0F1FD2068BD
:101C2000016821F00801016054F8460B016829435E
:101C30000160012004F81F09E0752076E076207726
:101C4000A075002070BD704770B5044690F83C0048
:101C500000260D4601280FD0012084F83C006AB10F
:101C6000042A1DD0082A2FD00C2A3FD0012600209C
:101C700084F83C00304670BD022070BD206800F042
:101C800043FE2068816941F0080181612068816913
:101C900021F004018161206881692A69114311E002
:101CA000206800F061FE2068816941F40061816173
:101CB0002068816921F480618161206881692A69D5
:101CC00041EA02218161D2E7206800F083FE2068AA
:101CD000C16941F00801C1612068C16921F00401B6
:101CE000C1612068C1692A69114311E0206800F0D0
:101CF000A5FE2068C16941F40061C1612068C16925
:101D000021F48061C1612068C1692A6941EA022128
:101D1000C161ACE710B5040003D094F83D0010B1E8
:101D200007E0012010BD002084F83C00204600F0B0
:101D30001EF8022084F83D00211D206800F060FD9F
:101D4000012084F8460084F83E0084F83F0084F8BF
:101D5000400084F8410084F8420084F8430084F88D
:101D6000440084F8450084F83D00002010BD704711
:101D700070477047F8B5016804460868CA684B693F
:101D800010F00F0F4FF0000559D003F0010602F4D8
:101D90009077374365D0C10705D0D10503D5216CB5
:101DA00041F001012164410705D5D90703D0216C19
:101DB00041F002012164810705D5D90703D0216CC8
:101DC00041F004012164010707D502F020013143ED
:101DD00003D0216C41F008012164216C00293AD024
:101DE000800604D5900602D5204600F0A8FE2068A3
:101DF0004069216CC0F38010090700D460B320460D
:101E000000F076FE20684069400621D52068143035
:101E100050E8001F21F0400140E80012002AF5D1EF
:101E2000A06BA8B16C490165A06BFEF712FF0028FA
:101E300011D0A06B016D01B0BDE8F04008478306EA
:101E40000FD593060DD52046BDE8F84000F077BECB
:101E50002046FFF78EFFF8BD2046FFF78AFF256476
:101E6000F8BD266B2023012E79D1C60677D5D6067C
:101E700075D50868486800904869400640D5A16B50
:101E8000086840680004000CEAD0A28D8242E7D9BD
:101E9000E085C869B0F5807F2DD020680C3050E80F
:101EA000001F21F4807140E80012002AF5D120685B
:101EB000143050E8001F21F0010140E80012002A10
:101EC000F5D12068143050E8001F21F0400140E8AF
:101ED0000012002AF5D184F83E30256320680C30CA
:101EE00050E8001F21F0100140E80012002AF5D14F
:101EF000A06BFEF765FEA08DE18D401A81B229E04E
:101F0000A08DE18D401A81B2E08D0028A8D0002973
:101F1000A6D020680C3050E8002F22F4907240E8E0
:101F20000026002EF5D12068143050E8002F22F052
:101F3000010240E80026002EF5D184F83E302563EA
:101F400020680C3050E8002F22F0100240E80023F7
:101F5000002BF5D12046FFF70BFFF8BDFFE7050684
:101F60002BD5150629D594F83D002128F5D1A06878
:101F7000B0F5805F01D12069B0B1206A411C2162B7
:101F8000216800784860E08C401E0004000CE0846A
:101F9000E3D12068C16821F08001C1602068C16878
:101FA00041F04001C160D8E7206A0088C0F3080012
:101FB0004860206A801C2062E5E74006CDD55006C7
:101FC000CBD5CA68204622F04002CA6084F83D3072
:101FD00000F0F1F8C1E70000E12A000870B5040044
:101FE00004D094F83D00002510B106E0012070BD3A
:101FF00084F83C50204600F023F8242084F83D006B
:102000002068C16821F40051C160204600F0F8FD4D
:102010002068016921F4904101612068416921F043
:102020002A0141612068C16841F40051C160256402
:10203000202084F83D0084F83E00002070BD0000A0
:10204000F0B587B0044614216846FEF7C2F921496D
:10205000206888423BD120480024016841F4801167
:102060000160006800F4801005901B48103801687A
:1020700041F004010160016801F00401059101686B
:1020800041F0080101600068022500F00800059099
:102090004FF48050CDE9000502AA0326082782E804
:1020A000D00069460D48FEF765FF0420CDE9000524
:1020B00002AA694682E8D0000948FEF75BFF0022C9
:1020C00011463520FFF7B8F83520FFF7A7F807B01D
:1020D000F0BD0000005000404038024000080240BF
:1020E000000C0240064A08B50121D16101680A6866
:1020F00049680091016C41F00801016408BD0000CD
:10210000000100202DE9F843044690F83D001F46E9
:1021100016460D4620284CD1C5B1BEB194F83C00FE
:10212000012846D0012084F83C004FF00008C4F894
:102130004080212084F83D00FFF710F8A6848146F6
:10214000E684A068B0F5805F03D004E00120BDE81C
:10215000F883206928B12E465FF0000584F83C80A2
:102160000EE00026FAE78021204600F0CFFDA0B95E
:10217000AEB116F8010B21684860E08C401EE08487
:10218000E08C4B464FF0000200970028EBD14FF057
:102190004001204600F0BAFD30B10320D7E735F802
:1021A000020BC0F30800E6E7202084F83D00002081
:1021B000CDE70220CBE77047FEE700007FB50024A3
:1021C0002B4800940194029428490394016001254E
:1021D0004FF480310561C0E90114057680F8204094
:1021E0002449C0E90A140526C661C46080F830405D
:1021F0004461FEF7B2FB08B172B6FEE7CDE90045D7
:1022000069461B480295FEF7F3FA08B172B6FEE77D
:102210000224CDE9005469461548FEF7E9FA08B1F1
:1022200072B6FEE700940324694611480194FEF754
:10223000DFFA08B172B6FEE70420CDE90040694636
:102240000B48FEF7D5FA08B172B6FEE70A20CDE9D1
:10225000000669460648FEF7CBFA08B172B6FEE7FB
:10226000052205490248FEF701FC7FBD002201401E
:10227000480100200100000FAC020020F0B587B03B
:1022800014216846FEF7A5F832480024016841F0A1
:1022900004010160016801F004010591016841F049
:1022A00001010160016801F001010591016841F03F
:1022B00002010160016801F002010591016841F02D
:1022C000080101600068244E00F008004FF400553A
:1022D0000590002229463046FEF73AFF1F4F0122A3
:1022E00040213846FEF734FF032000904FF40410DD
:1022F000CDE9010469463046FEF73CFE0095012514
:10230000CDE90154694630460394FEF733FEA80335
:10231000CDE90004694630460294FEF72BFE4020CA
:102320000090CDE90154694638460394FEF722FE39
:10233000002211460620FEF77FFF0620FEF76EFF03
:10234000002211460720FEF777FF0720FEF766FF01
:1023500007B0F0BD303802400004024000080240DF
:1023600030B58DB000240794089409940A940B9416
:102370001C2168460C94FEF72CF82B4D2948286048
:10238000B320C5E901044FF6FF70C5E903048020BE
:10239000A8612846FFF7E8FA08B172B6FEE74FF4E5
:1023A0008050079007A92048FFF776FB08B172B666
:1023B000FEE71D48FFF7AEFC08B172B6FEE7082144
:1023C0001948FFF715FC08B172B6FEE70B940BA98C
:1023D00015480C94FFF780FA08B172B6FEE760204A
:1023E0000090012001900220029008226946049486
:1023F0000D48FFF729FC08B172B6FEE7012208215B
:10240000286800F061FA29686FF001000861286807
:10241000C16841F00101C1600348FFF7ABFB0DB09B
:1024200030BD0000000400409001002030B58DB0A8
:1024300000240794089409940A940B941C2168467C
:102440000C94FDF7C6FF2B4D29482860B320C5E941
:1024500001044FF6FF70C5E903048020A8612846F7
:10246000FFF782FA08B172B6FEE74FF4805007908A
:1024700007A92048FFF710FB08B172B6FEE71D4818
:10248000FFF748FC08B172B6FEE708211948FFF7CC
:10249000AFFB08B172B6FEE70B940BA915480C947C
:1024A000FFF71AFA08B172B6FEE76020009001202B
:1024B0000190022002900022694604940D48FFF723
:1024C000C3FB08B172B6FEE701220021286800F0C4
:1024D000FBF929686FF0010008612868C16841F0C4
:1024E0000101C1600348FFF745FB0DB030BD00009E
:1024F00000080040D801002010B586B0002417481D
:102500000094019402940394049413490594016087
:102510005921C0E90114611EC0E9031480218161C1
:10252000FFF722FA08B172B6FEE74FF48050009030
:1025300069460A48FFF7B0FA08B172B6FEE704949C
:1025400004A906480594FFF7C7F9002801D072B620
:10255000FEE706B010BD0000000C00402002002085
:10256000FEE7FEE72349086C012802D0486C0128E9
:102570003CD12048CA69803091ED1C0A012A36D02E
:10258000D1ED120A1B4930EE600A803980ED020A53
:1025900090ED030AD0ED020A70EE201AC0ED031A86
:1025A00090ED050A30EEC01A80ED041A91ED110A83
:1025B00091ED122A20EE200A02EE210AD1ED131A23
:1025C00001EE810A80ED060AC0ED050AD1ED150A7B
:1025D000B4EEE00AF1EE10FA06DCD1ED140AB4EE26
:1025E000E00AF1EE10FA01D2C0ED060A7047D1ED13
:1025F000170AC7E780000020704700002DE9F0416E
:102600004B4D00272DED088B05F1800495ED0A8ACE
:1026100094ED1D0AB4EE408AF1EE10FA16D084ED66
:102620001D8AE766D4ED1C0A284690ED0D0AB4EE2B
:10263000E08AF1EE10FA02DD78EE600A02E005D2DF
:1026400070EEC80A80EE801A84ED1E1A39480068C0
:102650000A2857D3E06F01269FED379B9FED38BBCB
:1026600000284FD1E667206F01F03EFD53EC192B97
:1026700001F006FC41EC1A0B18EE100A01F034FDD3
:1026800053EC1A2B01F0FAFC01D2E06EF0B3206F8C
:1026900001F02AFD53EC1B2B01F0F2FB41EC180B6F
:1026A000A86A01F021FD53EC182B01F0ADFB01D21B
:1026B000E06E60B395ED0A0A84ED1C0A10EE100A74
:1026C00001F012FD53EC1B2B01F0DAFB41EC180B6F
:1026D000A06C01F009FD53EC182B01F0CFFC25D8BC
:1026E000206F01F001FD53EC192B01F0C9FB41EC07
:1026F000180BA06C01F0F8FC53EC182B01F084FBD4
:1027000014D8E666BDEC088BBDE8F08100E006E079
:1027100094ED1C0AD4ED1E0A30EE200ACCE794EDAD
:102720001C0AD4ED1E0A30EE600AC5E7E766E9E749
:1027300000000020240C0040295C8FC2F528F03FE7
:10274000AE47E17A14AEEF3F7047FEF70DBD0000D3
:1027500030B593B034216846FDF73BFE14210DA837
:10276000FDF737FE20480025016841F080510160E7
:10277000006800F0805012901C48016841F440410C
:1027800001600068022400F4404012900120039090
:1027900010200490009406940820CDE90750B4203E
:1027A000CDE909040B9468460C94FEF7B5FE08B118
:1027B00072B6FEE7FEF772FD08B172B6FEE70DA92C
:1027C0000F2081E831004FF4A05010904FF480505A
:1027D000119005210DA8FEF799FD002801D072B6D1
:1027E000FEE713B030BD00004038024000700040EA
:1027F0000248016841F470010160704788ED00E013
:10280000F0B50268254C264D264E274F274B4FF03A
:10281000804CA04209D0604507D0A84205D0B04204
:1028200003D0B84201D0984204D122F0700E4A6819
:1028300042EA0E02A0421BD0604519D0A84217D030
:10284000B04215D0B84213D0984211D0184DA842CA
:102850000ED0184DA8420BD0174DA84208D0174DE6
:10286000A84205D0164DA84202D0164DA84203D169
:1028700022F44075CA682A434D6922F080022A4337
:1028800002608A68C2620A688262A04201D09842ED
:1028900001D10969016301214161F0BD00000140DE
:1028A0000004004000080040000C0040000401400B
:1028B0000040014000440140004801400018004031
:1028C000001C00400020004010B501F01F03012152
:1028D000046A99408C430462016A9A401143016280
:1028E00010BD10B5846842EA032224F47F440A43F1
:1028F0002243826010BD826822F070020A4342F0D7
:102900000701816070470000F0B5026A22F0010201
:102910000262036A42688469124E24F073050C68EF
:102920002C4323F002058B682B430D4DA84201D0A8
:10293000B04205D123F00807CB683B4323F00403E2
:10294000A84201D0B04205D14D6922F4407215432E
:102950008A692A4342608461496841630362F0BD29
:102960000000014000040140F0B5026A22F01002AC
:102970000262026A436884690D6824F4E64444EA0A
:1029800005248D6822F0200242EA05120F4D104EF8
:10299000A84201D0B04206D1CF6822F0800242EABC
:1029A000071222F04002A84201D0B04207D14D697F
:1029B00023F4406343EA85038D6943EA850343605A
:1029C0008461496881630262F0BD0000000001403B
:1029D00000040140F0B5026A22F480720262026AC9
:1029E0004368C46922F4007224F073050C68124E27
:1029F0002C438D6842EA05220E4DA84201D0B04218
:102A000006D1CF6822F4006242EA072222F48062F3
:102A1000A84201D0B04207D14D6923F4405343EAA4
:102A200005138D6943EA05134360C4614968C163B6
:102A30000262F0BD000001400004014030B5026AAE
:102A400022F480520262046A4268C3690D6823F46A
:102A5000E64343EA05238D6824F4005444EA053430
:102A6000084DA84202D0084DA84204D14D6922F475
:102A7000804242EA85124260C3614968016404628F
:102A800030BD0000000001400004014010B5036AA1
:102A9000046A24F001040462846924F0F00444EA26
:102AA000021423F00A020A438461026210BD10B5C9
:102AB000036A23F0100303628369046A23F47043FA
:102AC00043EA023224F0A00343EA01118261016269
:102AD00010BD00000148FFF74DB90000680200205A
:102AE00010B5806B0021C185C184FFF742F910BD8C
:102AF00001680C3151E8002F22F4907241E8002364
:102B0000002BF5D10168143151E8002F22F00102A9
:102B100041E80023002BF5D1016B012909D101689F
:102B20000C3151E8002F22F0100241E80023002B65
:102B3000F5D1202180F83E1000210163704708B5CF
:102B400090F83E10222901D0022008BD82684FF47F
:102B500080539A4201D1016921B1816A9A421BD006
:102B60004AB10AE00268816A5268C2F308020A8028
:102B7000816A891C08E0026972B10268526802F039
:102B80007F020A70816A491C8162C18D491E090455
:102B9000090CC18503D019E002685268F1E70168A9
:102BA000CA6822F02002CA600168CA6822F48072F2
:102BB000CA6001684A6922F001024A61202180F856
:102BC0003E10016B012903D0FFF78CFA002008BDED
:102BD0000021016301680C3151E8002F22F010023E
:102BE00041E80023002BF5D101680A68D20602D51E
:102BF0000A6849680091818DFFF7BAF8E6E700009E
:102C000070B5044600680169E26821F4405111433F
:102C100001612169A068E2690843616911430843C1
:102C20002168CA6849F20C639A430243CA6020686B
:102C30004169A26921F44071114341613149206821
:102C4000884202D03049884202D1FEF709FC01E0F7
:102C5000FEF7F6FBE2690023192164253226B2F55E
:102C6000004F626828D0A0FB0101930F9200FDF78E
:102C700039FB0146B0FBF5F06FF01802504301EB51
:102C8000800006EB0010B0FBF5F000F0F002B1FBA5
:102C9000F5F002EB0012B1FBF5F06FF018035843AA
:102CA00001EB800006EB0010B0FBF5F000F00F0028
:102CB00021681044886070BDA0FB010192185B413F
:102CC000FDF710FB0146B0FBF5F00201B1FBF5F09A
:102CD0006FF01803584301EB800006EBC000B0FB17
:102CE000F5F000F0F80002EB4002B1FBF5F05843BC
:102CF00001EB800006EBC000B0FBF5F000F0070030
:102D0000D6E7000000100140001401402DE9F04119
:102D1000984617460E460446069D27E0681C25D0B7
:102D20002DB1FEF71BFAA0EB0800A8421ED92068BF
:102D30000C3050E8001F21F4D07140E80012002A46
:102D4000F5D12068143050E8001F21F0010140E85F
:102D50000012002AF5D1202084F83D0084F83E00BE
:102D6000002084F83C000320BDE8F0812068006862
:102D700036EA000004D00020B842CFD00020F3E7AC
:102D80000120F9E7FEE70907090E002804DB00F13E
:102D9000E02080F80014704700F00F0000F1E02000
:102DA00080F8141D70470000F0B53B4A132101EB79
:102DB0008103002002EB830303EB800454F8144CDE
:102DC00043F82040401C0528F6DD491EEFD50020C1
:102DD00032490446034648660D6805E004EB840664
:102DE000641C52F826603344AC42F7DB2B4C4B6634
:102DF000803413B1B3FBF5F32365886600250346E1
:102E00004E6806E005EB850702EB87076D1C7F68BF
:102E10003B44B542F6DB8B661D1E02D0B5FBF6F3D4
:102E20006365C866002603468F6807E006EB860CDC
:102E300002EB8C0C761CDCF804C06344BE42F5DB6C
:102E4000CB6615B1B3FBF7F3A3650867002403460F
:102E5000CD6806E004EB840602EB8606641CB668C7
:102E60003344AC42F6DB0B6713B1B3FBF5F3CB6530
:102E7000486700230C6906E003EB830502EB850538
:102E80005B1CED682844A342F6DB4867002802D0AB
:102E9000B0FBF4F00866F0BDBC020020000000208A
:102EA00010B52D482C4C2DED048B803C006AD0B120
:102EB000012815D104F5807090ED090AB8EE400A9A
:102EC000BCEEC00A84ED080A90ED0A0AB8EE400A8A
:102ED000BCEEC00A84ED090A90ED0B0A84ED0A0AE3
:102EE000BDEC048B10BD94ED170AB8EE400A10EE4D
:102EF000100A01F0F9F89FED199B53EC192B00F023
:102F0000BFFF00F053FF206294ED188AB8EE480A24
:102F100010EE100A01F0E8F853EC192B00F0B0FFA6
:102F200000F044FFB8EE480A606210EE100A01F0AB
:102F3000DBF841EC180BA06D01F0D6F89FED091BF2
:102F400053EC112B00F09CFF53EC182B00F098FF72
:102F500000F096FDA062C3E78000002000000000A2
:102F60000040CF3F000000000000303F2DED028BFD
:102F700082B0FEF701F9FFF7EBFBFFF77FF944485A
:102F80000025016841F48001016000682A4600F4D0
:102F90008000009029463820FEF74EF93820FEF7D1
:102FA0003DF9FFF7DDF9FFF741FAFFF7A5FAFFF763
:102FB00005F93948374901604FF4E131C0E901159D
:102FC0000C21C560C0E904518561C561FFF706F8B1
:102FD00008B172B6FEE730484838FEF721FD2F48A9
:102FE000016841F0400101602D4C2E4825660168C2
:102FF00041F4005101606564256425639FED2A0A50
:10300000656384ED130A9FED298ADFED298A84ED3B
:10301000120A04F18005A4F1800600BF00F0E4F874
:10302000E869012801D100F069FA606901280FD12F
:10303000A06E08B900F066F900F0CEF9A069012889
:1030400006D1A06E012803D1FFF78CFAFFF7D6FA5C
:10305000FFF7AAFEFFF724FF94ED140AB8EE400A2A
:1030600020EE080A86ED1F0A94ED150AB8EE400A14
:1030700020EE280A84ED000A94ED160AB8EE400A04
:1030800084ED010A00F016F800F004F9C6E700002C
:10309000303802400050004068020020180802400A
:1030A000800000201804024000000000FCE9C73C3A
:1030B0000000203B70B544482DED088B056B002DBA
:1030C0007BD000EE105AF8EE400A9FED401AA0F1B6
:1030D000800481EE200A80ED130A94ED071AC0EEF9
:1030E000010A9FED3B0A20EE800A80ED120A94ED62
:1030F000080AB8EE400A10EE100A00F0F5FF00EEE4
:10310000105A41EC1A0BB8EE400A10EE100A00F00B
:10311000EBFF9FED308B53EC182B00F0B1FE9FEDD1
:103120002F9B53EC192B00F0E9FC53EC1A2B00F009
:10313000A7FE00F03BFE0646E06204F58070806961
:1031400000F0D2FF94ED090A41EC1A0BB8EE400AE8
:1031500010EE100A00F0C8FF00EE105A41EC1B0BF5
:10316000B8EE400A10EE100A00F0BEFF53EC182B28
:1031700000F086FE53EC192B00F0C0FC53EC1B2B27
:1031800000F07EFE53EC182B00F07AFE53EC192B66
:1031900000F0B4FC53EC1A2B00F072FE00F006FEB7
:1031A00020633044B0F5803F03D34FF6FE70801BA0
:1031B0002063BDEC088B70BDFFE79FED0A0A80ED30
:1031C000120A80ED130AF4E78000002000247449FD
:1031D00000007042000000000000E03F000000001E
:1031E00000408F4000000000254810B543690021D1
:1031F000244A9FED250A012B01D0F3B12DE0046E86
:103200005CBB146844F4800414601D4A4FF4FA74E3
:10321000803A14631D4C21600121016692ED0A1A67
:10322000D2ED100AB0EE082A71EE601A81EE821A11
:1032300071EE200AC0ED1C0A0FE0046E012C0CD1C7
:10324000146844F040041460016641640164016341
:10325000416380ED130A80ED120A806908B1002BEA
:103260000DD10748803080ED020A80ED030A80ED21
:10327000040A80ED050A9FED060A80ED060A10BDDE
:10328000800000201808024000000000240C0040CC
:1032900000007A44194810B5A0F1800390ED130A9C
:1032A000D3ED100A01464A69B4EEE00A0021F1EEBE
:1032B00010FA01DD012A01D04AB10EE00124846632
:1032C0008469012C09D14FF47A745C6205E09C6B2F
:1032D0000A4B8033C3E900418166036C012B01D1A5
:1032E000C1670164436C012B01D1C1674164002AAD
:1032F00003D19FED030A80ED1C0A10BD8000002061
:1033000000000000F0B52F4801244768CFB12E4DD2
:10331000002305F148062D4A36682D68A0F180018A
:10332000012F1CD0022F19D10446D1F864C02768A0
:10333000A0F58074BCF1010F22D0BCF1000F29D0A0
:1033400036E023490C60224A4FF6FE71103A1160B4
:10335000204A14601F4A083A11604460F0BD1360AF
:103360004A6E3AB1326842F0010232604B66022185
:103370004160F0BD2A6842F001022A604C66F6E71F
:103380001268B2EB570F13D34B66326842F001025A
:10339000326007E01668BE420AD313602A6842F022
:1033A00001022A600268E36B9A4201D9D21A0260D4
:1033B0000268E36B9A42DCD2896E0029D9D1A16BF5
:1033C0000160F0BD0001002090010020240C0040AD
:1033D0003C0400403408004070B54548454AA0F11F
:1033E000800490ED120A002382ED000A616906E074
:1033F00002EB83055B1C15ED010A85ED000A8B428B
:10340000F6DD00239FED3C0A84ED1E0A07E000BFB5
:1034100002EB83055B1CD5ED000A30EE800A0D46F9
:103420008B42F5DBB5EEC00A84ED1E0AF1EE10FA10
:1034300007DD00EE905AF8EEE00A80EE201A80EDEB
:10344000171A416A012903D0C16A4163816A4DE0BC
:1034500090ED0B0A274BB8EE400A5033002283ED63
:10346000000A90ED0A0AB8EE400A83ED010AA46949
:103470000BE000BF03EBC201521C11ED020A81ED0B
:10348000000A11ED010A81ED010AA242F2DD0021DC
:1034900081630D460A46C1631BE000BF00EE101AAF
:1034A00003EBC5066D1CB8EE400AD6ED000A30EEFF
:1034B000800AD6ED010ABCEEC00A10EE101A00EE2A
:1034C000102AB8EE400A30EE800ABCEEC00A10EEB8
:1034D000102A2646A542E1DBC0E90E2111B1B1FB5D
:1034E000F4F14163002A02D0B2FBF6F1016370BD32
:1034F000800000204C040020000000002DE9F05F57
:1035000000212DED048B0846F74A135C802B1AD05E
:10351000702B18D0401C0F28F7DDF4489246575CFA
:10352000112512261422412300F1B0044FF0130B91
:103530004FF0420E00F180084FF00009802F04D0B8
:10354000702F7CD035E20146E7E70929FADA5144C9
:10355000802791F801C0BCF1530FF3D019DCBCF106
:10356000420F45D011DCBCF1130F2AD006DCBCF1B0
:10357000110F15D0BCF1120FE4D116E0BCF1140FFD
:1035800025D0BCF1410FDDD126E0BCF1430FD9D1EC
:1035900041E0BCF1750FD5DABCF1710FD2D14FE02B
:1035A000497941612770657003E04979816127702D
:1035B000667084F8029084F8039084F80490617136
:1035C000EFE149790162277084F801B0F1E74979A8
:1035D000416227706270ECE7D1F80200497900BAC5
:1035E00020F0FF000843C8F82400277063700BE048
:1035F000D1F80200497900BA20F0FF000843C8F86A
:103600002800277084F801E0010EA170010CE17020
:10361000010A2171C4E1D1F80200497900BA20F011
:10362000FF00084300EE100AB8EE400ADFEDB00AD2
:10363000C8F8200080EE201A88ED0B1A2BE105E077
:103640004979C161277071206070B2E70929A2DA57
:103650005144702791F801C09FEDA69BA349803982
:10366000BCF1430F72D038DCBCF1330F6FD01CDCDF
:103670004FF00101BCF1210F6AD00CDCBCF1110F3D
:1036800068D0BCF1120F6CD0BCF1130F74D0BCF138
:10369000140F6ED179E0BCF1220F6BD0BCF1310F69
:1036A00069D0BCF1320FF4D190E0BCF1370F6FD08C
:1036B00009DCBCF1340F6CD0BCF1350F6AD0BCF121
:1036C000360FE6D1BBE0BCF1380F76D0BCF1410F2C
:1036D00074D0BCF1420FDCD1CDE09FED888BBCF102
:1036E000720F6CD01ADCBCF1610F69D00CDCBCF13C
:1036F000440F70D0BCF1510F6ED0BCF1520F6CD0A2
:10370000BCF1530FC5D1E1E0BCF1620F74D0BCF144
:10371000630F72D0BCF1710FBBD11DE1BCF1760F0C
:103720006CD009DCBCF1730F69D0BCF1740F67D0A9
:10373000BCF1750FADD157E1BCF1810F6FD0BCF179
:10374000820F6DD0BCF1830FA3D185E198E045E0F5
:1037500021E0FFE727706570A170E1702171007DA5
:103760001EE127706670A170E1702171007E17E183
:1037700002E01EE118E024E0277084F801B0A17097
:10378000E170217190F820000AE127706270E7E093
:1037900063E036E045E0277021226270A170E1709D
:1037A000217190F86800FBE0277022226270A170FE
:1037B000E170217190F86C00F2E053E057E0D4E042
:1037C000A0E0277031216170006B1DE72770322166
:1037D0006170406B18E761E06EE072E0C06C00F071
:1037E00083FC53EC192B00F04BFB00F0DFFAC8F818
:1037F0002000277033213CE192E09FE002E1C0E02D
:10380000E4E0806C00F070FC53EC192B00F038FB06
:1038100000F0CCFAC8F820002770342129E1FFE03D
:103820000CE1C06D00F060FC53EC192B00F028FB9C
:1038300000F0BCFAC8F820002770352119E1006FAC
:1038400000F052FC53EC192B00F01AFB00F0AEFA1A
:10385000C8F82000277036210BE1277037206070F0
:10386000086BD1E6277038206070C86ACCE62770F4
:103870006370086AC8E6277084F801E0486AC3E606
:10388000886A00F031FC53EC192B00F0F9FA00F0D3
:103890008DFAC8F8200027704321EAE0486B00F059
:1038A00023FC53EC192B00F0EBFA00F07FFAC8F878
:1038B000200027704421DCE0277051206070886B65
:1038C000A2E6277052206070C86B9DE6086C00F07D
:1038D0000BFC53EC192B00F0D3FA00F067FAC8F890
:1038E000200027705321C4E03C0500208000002008
:1038F00000401C4600000000006AF8400000000084
:103900000088C340C86F00F0EFFB53EC182B00F0A9
:10391000B7FA00F04BFAC8F8200027706121A8E040
:10392000006800F0E1FB53EC182B00F0A9FA00F05E
:103930003DFAC8F82000277062219AE0406800F044
:10394000D3FB53EC182B00F09BFA00F02FFAC8F8C9
:103950002000277063218CE0277071216170494637
:10396000A170E1702171007F1AE0277072206070F1
:1039700084F8029084F8039084F8049091ED140A7E
:103980000AE027707320607084F8029084F8039036
:1039900084F8049091ED150ABCEEC00A10EE100AEE
:1039A0006071A571E6710A23082233493348FEF796
:1039B000A9FB0020494652461154401C0F28FBDD4C
:1039C000C8F81C10BDEC048BBDE8F09F486C00F0FB
:1039D0008BFB53EC182B00F053FA00F0E7F9C8F812
:1039E00020002770742144E0886C00F07DFB53ECCC
:1039F000182B00F045FA00F0D9F9C8F8200027701C
:103A0000752136E0C86C00F06FFB53EC182B00F00A
:103A100037FA00F0CBF9C8F820002770762128E0AB
:103A2000806800F061FB53EC182B00F029FA00F0DD
:103A3000BDF9C8F82000277081211AE0C06800F0A5
:103A400053FB53EC182B00F01BFA00F0AFF9C8F849
:103A50002000277082210CE0006900F045FB53EC48
:103A6000182B00F00DFA00F0A1F9C8F8200027701B
:103A700083216170C8E50000300100206802002049
:103A800021F00042A2F16052B2F5801F01F0004324
:103A900028BFD2F17F6C0BD95FEA001C43EAC20257
:103AA00042EB507018BF704728BF20F001007047EC
:103AB000B2F5801FBCBF184670474FEA410C1CF599
:103AC000001F02D2084600F085BB70B500F082FAF4
:103AD00000000089FFF7F6BF4FF00040A0F580001E
:103AE0007047491058BFC1F140415B1058BFC3F146
:103AF00040438B42EFF30080704700002DE9C04146
:103B000030B4DFF8A0C23CEA111418BF3CEA131429
:103B100000F0EC8081EA03051CEA111444EAD57434
:103B200018BF1CEA131500F0C780A4EB05044FF082
:103B3000004545EAC12145EAC32341EA505143EA21
:103B4000525304F17F74994204F500344FEAC020C7
:103B50004FEAC22208BF904200F09C804FEA1365F2
:103B60000FF24016765D4FEA134506FB05F7C7F1E5
:103B7000807706FB07F74FEAD737A7FB0368764243
:103B8000C8F58038A7FB06CE38BFA8F1010807FBAF
:103B900008E64FF0000EA6FB028CE6FB03CEDCF13C
:103BA000000CCEF1004E38BFAEF1010EA6FB0C5852
:103BB0004FF000074FF00005E6FB0E87A1FB08C69B
:103BC000A0FB07CE16EB0E0645F10005E1FB0765ED
:103BD00015F1E04E7EBFA4F580345FEA46066D41E4
:103BE00016F1800745F100054FEA17274FEA0666F0
:103BF00047EA0567A6F1DE46B6F1805F4FEA152574
:103C00001FD9384624F0010C05EBC471BCF1FE6FDE
:103C100001EB0C1102D8F0BCBDE8008124425CBF6E
:103C200001F5801E9EEAC47F02D4F0BCBDE800818D
:103C3000244238D4F0BCA1F1C041BDE8004100F0FD
:103C400017BA4FEAD22242EA43524FEAD323A7FBE4
:103C500002864FEAD02040EA415007FB03661EEA85
:103C60000E0F4FEAD12105FB026658BFA6EB0056A6
:103C7000B6EB00564FEA520E4EEAC37E18EB0E0E1C
:103C800056EB530EBDD518EB02085E417F1C55F173
:103C90000005B6E74FF480154FF000074FF000061F
:103CA0004FF00008ADE7F0BC4FF0000001F1C0415B
:103CB00001F00041BDE8008111EA0C1F0CEA131568
:103CC00000D00CE013EA0C1F00F025804FF000003C
:103CD000F0BC81EA030101F00041BDE80081F0BCC5
:103CE000BDE8004181EA030100F0C2B9F0BCBDE8C3
:103CF000004170B500F06EF9097EFC3E00F007B897
:103D000081EA03014FF0000001F00041704781EAB1
:103D1000030100F0ADB9F0BCBDE800414FF0000078
:103D200021497047FFFDFBF9F7F5F4F2F0EEEDEBFA
:103D3000E9E8E6E4E3E1E0DEDDDBDAD8D7D5D4D3A9
:103D4000D1D0CFCDCCCBCAC8C7C6C5C4C2C1C0BFF5
:103D5000BEBDBCBBBAB9B8B7B6B5B4B3B2B1B0AFFB
:103D6000AEADACABAAA9A8A8A7A6A5A4A3A3A2A1DF
:103D7000A09F9F9E9D9C9C9B9A999998979796959A
:103D800095949393929191908F8F8E8E8D8C8C8B36
:103D90008B8A8989888887878685858484838382BE
:103DA000828181800000FF070000F87F4FEA1153F5
:103DB000A3F58063D3F11E03A8BFD3F1200C08DB69
:103DC0004FF0004242EAC12252EA505232FA03F066
:103DD000704709420BD4102BC4BF0020704703F575
:103DE000787CBCF1FF3F05D04FF0FF3070474FF0BB
:103DF0000000704770B500F0EDF800BF49922480D4
:103E000000207047F0E7000051EA030C17D41CF5BE
:103E1000801F58BFBCF5801F00F10680994218BF73
:103E2000704708BF9042704707D711F5801F58BFF1
:103E300013F5801F19D499427047894270471CF5C9
:103E4000801F08D5BCF5801FF7D58B4218BF70477F
:103E500008BF824270474FF4001C1CEB410F38BF73
:103E60001CEB430F01D28B42704770B500F0B2F8E3
:103E7000922449004FF000514FF08053FFF731BEBC
:103E8000DFF848C170B51CEA111E1EBF1CEA1315ED
:103E90009EEA0C0F95EA0C0F00F06F8081EA030494
:103EA00023EA4C134EEAD47E21EA4C1141F48011EE
:103EB00043F48013AE44A1FB024CA0FB0365AEF1BA
:103EC0007F7E361955EB0C05A1FB034C4CF100032A
:103ED000A0FB021C16EB0C06654153F100030942DE
:103EE00018BF46F0010613F4007F0BD14FEA0331EF
:103EF0004FEA0530340341EA155140EA16506FF09D
:103F000003020AE04FEAC3214FEAC520F40241EA66
:103F1000555140EA56506FF0020202EB2E4201EB7F
:103F2000025585EACE710AD05FEA440C18BF24F02E
:103F3000004450F1000041F1000120EAD47040F249
:103F4000FE7C624500D270BDA84214BF4FF0804491
:103F50004FF04044002E08BF0024BEF1806FA8BF80
:103F6000A1F1C041BDE8704080F282804FF00000B6
:103F700001F1C04101F0004170479EEA0C0F0CEACC
:103F8000131518BF95EA0C0F06D04FF0000081EA18
:103F9000030E0EF0004170BD00F01CF88900013ED8
:103FA00000F007B800F009B84FEA430C5FEA5C5C28
:103FB00008D081EA030100F05BB84FEA410C5FEAE8
:103FC0005C5CF6D14FF00000014970470000FF072C
:103FD0000000F87F0EF1020E2EF0030E5EF8046B67
:103FE000364205D4012A43EB030515F5001F12D80C
:103FF000012841EB010C1CF5001F0CD80ED14FEA33
:10400000D17C15F5001F0CEB4C0C0CF1020C08BF19
:104010004CEBD37C04E04FF0080C01E04FEAD37C7A
:104020000CEB4C0526FA05F606F00706B6F1040C73
:1040300006D20EEB860CBDE870404CF0010C6047D8
:10404000DFE80CF0090B02024FF000414FF00000D6
:10405000A1F5002170BD19461046012851EB01045D
:1040600018BFD4F5001484BF002001F0004170BDDA
:104070000808A0F500114FEA3101704753EA010C1E
:1040800017D41CF5801F58BFBCF5801F00F10680B7
:104090008B4218BF704708BF8242704707D713F59D
:1040A000801F58BF11F5801F19D48B4270479B4267
:1040B00070471CF5801F08D5BCF5801FF7D59942C5
:1040C00018BF704708BF904270474FF4001C1CEBAC
:1040D000430F38BF1CEB410F01D2994270470FB418
:1040E0000CBC03BCFFF7C1BE43004FEAD30C4FEA40
:1040F0003C0C43401FBF40070CF1605113F0FE4FD2
:1041000070471CF0006F03D100200CF00041704795
:104110000CF0004343EA507010B540EACC0000F0C8
:104120000EF800BF000000924FEA0001FFF7A0BFA9
:104130004FF000414FF00000A1F5002170470EF153
:10414000020E2EF0030E5EF8044B244204D44FEA14
:104150004102B2F17F4F11D84FEA4003B3F17F4FD4
:104160000CD80ED14FEAD07CB2F17F4F0CEB4C0C47
:104170000CF1020C08BF4CEBD17C04E04FF0080CB2
:1041800001E04FEAD17C0CEB4C0324FA03F404F079
:104190000704B4F1040C06D20EEB840CBDE8104009
:1041A0004CF0010C6047DFE80CF0070802024FF00A
:1041B0000040A0F5800010BD0846420018BFD2F1B3
:1041C000807288BF00F0004010BD4FF04070E1EEFB
:1041D000100A7047FF2141EAD050C0057047000621
:1041E000101600061016000000000000000001027A
:1041F0000304060708090000000001020304000090
:1042000020420008000000204801000000020008D1
:104210006042000848010020C80A00005C02000853
:10422000320A69045A1404290C520543404043E8F9
:1042300003437A4443F4015EC84240420F181AC057
:1042400024200BF0406F12833ACDCCCC3D23803F2D
:104250001A612C03DC7A45320182101324F4000029
:04000005080001C529
:00000001FF
