:020000040800F2
:100000008808002065020008E71C00089D19000808
:10001000E51C0008850500080B2200080000000010
:10002000000000000000000000000000811E000829
:100030001106000800000000711D0008831E000862
:100040007F0200087F0200087F0200087F0200088C
:100050007F0200087F0200081506000889060008D4
:100060007F0200087F0200087F0200087F0200086C
:100070007F0200087F0200087F0200087F0200085C
:100080007F0200087F0200087F0200087F0200084C
:100090007F0200087F0200087F0200087F0200083C
:1000A0007F0200087F0200087F0200087F0200082C
:1000B0007F0200087F0200087F0200087F0200081C
:1000C0007F0200087F0200087F0200087F0200080C
:1000D0007F0200087F0200087F0200087F020008FC
:1000E0007F0200087F0200087F0200087F020008EC
:1000F0007F0200087F0200087F0200087F020008DC
:100100007F0200087F0200087F0200087F020008CB
:100110007F0200087F0200087F0200087F020008BB
:10012000890500087F0200087F0200087F0200089E
:100130007F02000800000000000000007F020008AD
:100140007F0200087F0200087F0200087F0200088B
:100150007F0200087F0200087F0200087F0200087B
:100160007F0200087F0200087F0200087F0200086B
:100170007F0200087F0200087F02000800000000E4
:10018000000000007F0200080000000000000000E6
:100190007F02000800000000000000007F0200084D
:1001A0000000000000000000000000007F020008C6
:1001B0007F0200087F0200087F0200087F0200081B
:1001C0007F02000800F002F800F03CF80AA090E876
:1001D000000C82448344AAF10107DA4501D100F002
:1001E00031F8AFF2090EBAE80F0013F0010F18BF93
:1001F000FB1A43F0010318475C2B00007C2B000026
:10020000103A24BF78C878C1FAD8520724BF30C842
:1002100030C144BF04680C60704700000023002414
:1002200000250026103A28BF78C1FBD8520728BF06
:1002300030C148BF0B6070471FB502F07AFD1FBD8B
:1002400010B510BD00F0CFF81146FFF7F5FF01F033
:10025000EDFF00F0EDF803B4FFF7F2FF03BC00F090
:10026000F5F800000948804709480047FEE7FEE727
:10027000FEE7FEE7FEE7FEE7FEE7FEE7FEE7FEE756
:1002800004480549054A064B70470000291F00082D
:10029000C50100088802002088080020880400208A
:1002A0008804002053EA020C00F069802DE9F04B2D
:1002B0004FF00006002B1FBFB3FA83F503FA05F4D5
:1002C00024FA05F65E4012BF1643B2FA82F502FA2E
:1002D00005F4C5F120051EBF22FA05FC44EA0C0412
:1002E000203556EA044C4FEA144418BF641C4FF002
:1002F00000084FF00009904271EB030C39D300293C
:1003000019BFB1FA81F701FA07F6B0FA80F700FADF
:1003100007F6C7F120071EBF20FA07FC46EA0C06C5
:100320002037B6FBF4FCA7EB0507103F07F01F0BC7
:10033000CBF120060CFA0BFB2CFA06F644BFB346B1
:100340000026202FA4BF5E464FF0000B5BEA060C90
:1003500008BF4FF0010B19EB0B09ABFB027C48EB1C
:100360000608C01B06FB02CC0BFB03CC71EB0C0197
:10037000C1E70B46024641464846BDE8F08B13B53F
:100380004FF000004FF00001AFF30080BDE81C40CB
:1003900070474FF0000200B5134694469646203948
:1003A00022BFA0E80C50A0E80C50B1F12001BFF42E
:1003B000F7AF090728BFA0E80C5048BF0CC05DF894
:1003C00004EB890028BF40F8042B08BF704748BFE2
:1003D00020F8022B11F0804F18BF00F8012B704756
:1003E000704770477047754600F02CF8AE46050020
:1003F0006946534620F00700854618B020B5FFF740
:100400003FFFBDE820404FF000064FF000074FF0DF
:1004100000084FF0000B21F00701AC46ACE8C00922
:10042000ACE8C009ACE8C009ACE8C0098D4670472B
:1004300010B50446AFF300802046BDE81040FFF73A
:100440000ABF000000487047280200200149182018
:10045000ABBEFEE72600020070470000464910B51B
:100460004A6822F440324A604A6843681A434A6044
:1004700001684A6822F480724A6001684A68036928
:1004800042EA03224A6001684A6822F040724A60E8
:1004900001684A6883681A434A6001688A6822F4DE
:1004A00000628A6001688A68C3681A438A60816A48
:1004B0006FF07062D14201688A6822F070628A60CF
:1004C00001688A680CD0836A1A438A6001688A6866
:1004D00022F040528A6001688A68C36A1A4301E0C8
:1004E00022F040528A6001688A6822F002028A6023
:1004F00001688A68037E42EA43028A6090F820100D
:10050000002901684A680FD042F400624A6001681D
:100510004A6822F460424A6001684A68174C436A9C
:1005200004EB43331A4301E022F400624A6001689D
:10053000CA6A22F47002CA620168CA6A838B104CCC
:1005400004EB03531A43CA6201688A6822F40072FA
:100550008A6001688A6890F8303042EA43228A60F3
:1005600001688A6822F480628A6001688A6840694A
:1005700042EA8020886010BD0023014000E0FFFFB8
:100580000000F0FFFEE70000014800F0E1B90000C4
:10059000C801002001681823CAB2103AB2FBF3F276
:1005A000054B6FF30901032A9B5CC36500D9091D44
:1005B00081650846704700003C2D000810B50146D3
:1005C00000208B698A6A4FF0C07453B1B3F5005FA5
:1005D00015D072B1012A0CD0022A0AD0032A09D1FF
:1005E00004E01AB1012A06D0022A03D1C96AC9015E
:1005F00000D5012010BDC96AA142FAD010BD002A61
:10060000F7D0012AF2D0022AF3D0032AF3D010BD8A
:100610007047000013480168134A1160002101600F
:1006200012480068012819D111481249124A00687D
:1006300009680144491C11600F491031401C0860D1
:100640000E480068016841F0010101600C480D4A44
:1006500001681268114301D101210160012000F0FD
:10066000B3BA0000240C00404800002064000020C1
:1006700000000020040000202C040040F0000020B6
:1006800050000020940000201248006812490860C1
:1006900012480068012819D111481249124A00680D
:1006A00009680144491C11600F490831401C086069
:1006B0000E480068016841F0010101600C480168C2
:1006C00021B90C490968012900D10160022000F01C
:1006D0007BBA0000240C00404C0000206400002085
:1006E00000000020040000202C08004038010020F9
:1006F000540000209400002072B6FEE778B5002474
:10070000009490F83C20012A19D0012280F83C2066
:100710000A6807230568092A13D9EE680A3A02EB2A
:10072000420293409E43EE600B788A680A3B03EBDB
:1007300043039A400368DD682A43DA6010E0022030
:1007400078BD2E6902EB420293409E432E610B78E6
:100750008A6803EB43039A4003681D692A431A61C0
:100760004A681F23072A13D205686E6B521E02EBDC
:10077000820293409E436E630A8893B20A79521EA6
:1007800002EB820293400268556B2B43536327E0D0
:1007900005680D2A12D22E6BD21F02EB8202934003
:1007A0009E432E630B790A88DB1F92B203EB83030F
:1007B0009A4003681D6B2A431A6311E0EE6A0D3AF2
:1007C00002EB820293409E43EE620B790A880D3B56
:1007D00092B203EB83039A400368DD6A2A43DA622C
:1007E0001B4B0568194A9D420AD10D68122D07D18D
:1007F000556825F400055560556845F48005556039
:1008000005689D421DD1134D0B68AB4201D0112BE1
:1008100017D1536823F480035360536843F40003F3
:1008200053600968A9420CD10B490C4A0968B1FB15
:10083000F2F101EB8101490000E0491E009100291D
:10084000FBD180F83C40002078BD0000002301402F
:100850000020014012000010A400002040420F00C0
:1008600070B504004FF0000503D0206C002610B1D5
:1008700007E0012070BD204600F01CF8666484F893
:100880003C60206CC00610D4206C20F4885040F0EE
:10089000020020642046FFF7E1FD6664206C20F032
:1008A000020040F00100206400E0012584F83C6073
:1008B000284670BD70B586B0054614216846FFF71E
:1008C00068FD1E492868884236D11D480026016807
:1008D00041F480610160006800F480600590184870
:1008E0001438016841F0010101600068694600F0B8
:1008F000010005900F2000900320CDE9010611486A
:1009000000F06EF9114C104820608005C4E9010622
:100910000014C4E90360400060618000A0614011E0
:10092000E0610002C4E90806204600F0E1F808B1E1
:10093000FFF7E2FEAC63A56306B070BD0022014084
:10094000443802400000024010640240C801002008
:100950002DE9F84304464FF00009CDF800906348B4
:100960004FF41651A56D0068B0FBF1F72E6894F8AE
:100970005C10082000FA01F131420FD021680A68AA
:1009800052070BD50A6822F004020A6094F85C1042
:100990008840A860606D40F00100606594F85C10CC
:1009A0004FF0010808FA01F0304208D02168496987
:1009B000090604D5A860606D40F00200606594F8F7
:1009C0005C1004208840304208D0216809688907FB
:1009D00004D5A860606D40F00400606594F85C1078
:1009E00010208840304218D021680968090714D5C2
:1009F000A86020680168490304D50068000308D591
:100A0000A16C07E00168C90503D4016821F0080161
:100A10000160216C09B12046884794F85C102020C1
:100A20008840304231D021680968C9062DD5A860B8
:100A300094F8350005282068016806D0490347D599
:100A4000006800031DD4616C1CE021F016010160F8
:100A50002068416921F080014161206C08B9A06CD7
:100A600020B12068016821F00801016094F85C1051
:100A70003F208840A86084F8358084F83490216D48
:100A80001FE0E16B09B120468847606D00282BD03C
:100A9000606DC00714D0052084F835002068016817
:100AA00021F0010101600098401C0090B84203D879
:100AB00020680068C007F6D184F8358084F8349047
:100AC000E16C002910D001B02046BDE8F043084792
:100AD0000168C905D5D4016821F01001016084F8CE
:100AE000358084F83490CCE7BDE8F883A40000207A
:100AF0002DE9F041044600F067F906465CB102209A
:100B000084F83500002584F834502068016821F00D
:100B1000010101600DE00120BDE8F08100F054F911
:100B2000801B052805D920206065032084F8350046
:100B3000F2E720680068C007F0D1226811682048F9
:100B40000140D4E901031843D4E903363343184381
:100B500063691843A3691843E3691843236A184378
:100B60000843616A042903D1D4E90B1319430843EC
:100B7000106020684069666A20F0070130460E4325
:100B8000012704280CD1A06A0643E06A40B1204640
:100B9000FFF714FD20B14020606584F83570BAE796
:100BA000206846612046FFF7F5FC94F85C203F2161
:100BB00091408160656584F835700020ACE70000E5
:100BC0003F8010F070470000044910B50A680242E7
:100BD00002D00860FFF7F6FF10BD0000143C014092
:100BE0002DE9F84FDFF8ACA10022012403254FF0D6
:100BF0000F090AF1040BAAF1040E00BF0B6804FAF6
:100C000002F63340B3426ED10F7907F00307012F8C
:100C100001D0022F16D187684FEA420805FA08FC76
:100C200027EA0C07D1F80CC00CFA08FC4CEA070CB8
:100C3000C0F808C04768B7430E79C6F3001696405F
:100C40003E4346600E79F643B6070AD0C6684FEABF
:100C5000420C05FA0CF7BE438F6807FA0CF73743CE
:100C6000C7600E7906F00306022E10D1D60800EBFD
:100C70008608D8F8206057074FEAD76C09FA0CF7B6
:100C8000BE430F6907FA0CF73743C8F820700668AF
:100C90004FEA420C05FA0CF7BE430F7907F0030741
:100CA00007FA0CF7374307604E6816F4403F6BD0E5
:100CB000394E376847F480473760366822F00307BB
:100CC00006F480460096354E07EB060CDCF8086803
:100CD00097074FEA177809FA08F7BE43304FB84232
:100CE00002D100271FE04FE02E4FB84201D101276B
:100CF00019E02D4FB84201D1022714E02B4FB84222
:100D000001D103270FE02A4FB84201D104270AE09E
:100D1000284FB84201D1052705E0274FB84201D13D
:100D2000062700E0072707FA08F73743CCF80878CA
:100D3000DAF800605746D1F804C09E435FEACC2C35
:100D400000D51E433E60DBF800605F46D1F804C06A
:100D50009E435FEA8C2C00D51E433E60DEF80060A7
:100D60007746D1F804C09E435FEA8C3C00D51E4311
:100D70003E60084F083F3E68D1F804C09E435FEADA
:100D8000CC3C00D51E433E60521C102AFFF436AF07
:100D9000BDE8F88F083C0140443802400030014073
:100DA000000002400004024000080240000C024023
:100DB0000010024000140240001802400AB1816194
:100DC00070470904FBE70000014880687047000095
:100DD00098000020024881680278114481607047C1
:100DE000980000200B4810B5016841F400710160C3
:100DF000016841F480610160016841F48071016023
:100E0000032000F06FF80F2000F006F800F024F83F
:100E1000002010BD003C024070B50D4D04464FF45B
:100E20007A712878B1FBF0F00A490968B1FBF0F05B
:100E300000F054FB48B9102C07D200222146501E66
:100E400000F030F800206C6070BD012070BD000023
:100E500098000020A40000200A4808B5016841F469
:100E600080410160006800F4804000900548001F48
:100E7000016841F080510160006800F080500090EE
:100E800008BD000044380240002809DB00F01F02C2
:100E9000012191404009800000F1E020C0F80011DC
:100EA00070470000F0B40E4B1B680C46C3F30223DE
:100EB000C3F10705042D00D90425191D072901D206
:100EC000002300E0DB1E012606FA05F1491E214041
:100ED00099409E40761E16403143F0BC01F096B911
:100EE0000CED00E0064900F0070208684FF6FF032A
:100EF000184040EA0220034A10430860704700008F
:100F00000CED00E00000FA052DE9F84317480168F0
:100F100041F0805101600068154F00F080500126BB
:100F200000903E64FFF750FF05464FF47A78114C6D
:100F300005E000BFFFF748FF401B40450DD8606843
:100F4000C003F7D57E64FFF73FFF0546464607E03E
:100F5000FFF73AFF401BB04202D90320BDE8F883F7
:100F600060688003F4D50020F8E7000040380240B4
:100F700000000E42007000402DE9F0470E460500CB
:100F800065D0DFF81481D8F80000F7B200F00F0048
:100F9000B04207D288F80070D8F8000000F00F00C7
:100FA000B04254D128683D4C810712D5400703D583
:100FB000206840F4E05020602878000703D52068BE
:100FC00040F4604020602068A96820F0F0000843E9
:100FD00020602878C0072DD030496868083901287A
:100FE00012D0022813D0032811D0096889070029DC
:100FF0002DDA216821F0030101432160FFF7E4FEAF
:10100000814641F2883A0EE009688903EFE70968F2
:101010008901ECE7FFF7D8FEA0EB0901514502D9A1
:101020000320BDE8F0872068696800F00C00B0EB91
:10103000810FEFD1D8F80010404601F00F01B14206
:1010400007D90770006800F00F00B04201D00120FE
:10105000E7E72878400705D52068E96820F4E050E4
:10106000084320602878000706D52068296920F405
:10107000604040EAC100206000F018F82168084A8A
:10108000C1F30311515CC840064908600648006876
:10109000FFF7C2FE0020C4E7003C024008380240CF
:1010A000442D0008A40000209C000020224810B518
:1010B000006810F00C02214815D02149042A11D0F3
:1010C0001D4C241F082A0FD00C2A0CD1226823683B
:1010D00002F03F025B0221D52068C0F38810A0FB1C
:1010E000010120E0084610BD2268236802F03F029B
:1010F0005B0205D52068C0F38810A0FB010104E065
:101100002168C1F38811A1FB00010023FFF7CAF891
:101110002168C1F30141491C49000AE02168C1F37B
:101120008811A1FB00010023FFF7BCF82168C1F37F
:101130000271B0FBF1F010BD083802400024F40049
:1011400040787D012DE9F84F04007DD0DFF878B3B9
:101150002078ABF10407C007A7F1040550D0DBF8F5
:1011600000105846C1F3810101290FD00168C1F375
:101170008101022902D13968490207D40068C0F30D
:101180008100032809D13868400206D52868800309
:1011900036D560680028D8D032E06068B0F5803F6E
:1011A00010D0B0F5A02F286810D020F4803028602F
:1011B000286820F4802028606068A0B1FFF704FE52
:1011C00006460CE0286840F48030F4E740F48020C4
:1011D0002860F7E7FFF7F8FD801B642876D82868B9
:1011E0008003F7D50CE0FFF7EFFD064605E000BFF2
:1011F000FFF7EAFD801B6428F0D828688003F7D445
:101200002078DFF8C89280074FF0000A44D5DBF859
:101210000010584611F00C0F0FD00168C1F3810186
:10122000022902D13968490207D50068C0F381005C
:1012300003280AD13868400207D42868800715D5EA
:10124000E068012800D111E03AE1E068B0B1012086
:10125000C9F80000FFF7B8FD064604E0FFF7B4FD4B
:10126000801B0228BAD828688007F7D5286821692A
:1012700020F0F80040EAC10028600DE0C9F800A0A5
:10128000FFF7A2FD064604E0FFF79EFD801B022843
:101290001CD828688007F7D42078000727D5DFF806
:1012A00028828B48616908F16C0881B101210160D5
:1012B000FFF78AFD064604E0FFF786FD801B022843
:1012C00004D8D8F800008007F6D510E089E0C0F80F
:1012D00000A0FFF779FD064605E000BFFFF774FDAB
:1012E000801B02287DD8D8F800008007F6D420782B
:1012F000400769D574484FF0000838300068C000D6
:101300000BD471483830016841F0805101600068A9
:101310004FF0010800F0805000906E4E3068C0051C
:1013200011D4306840F480703060FFF74DFD0090BC
:1013300006E000BFFFF748FD0099401A022850D888
:101340003068C005F6D5604EA068683601280FD019
:101350000528306810D020F001003060306820F09F
:1013600004003060A068B8B1FFF72EFD00900FE0D8
:10137000306840F00100F4E740F004003060F7E727
:10138000FFF722FD0099411A41F28830814264D86A
:1013900030688007F4D50EE0FFF716FD009007E0F7
:1013A000FFF712FD0099411A41F28830814254D86A
:1013B00030688007F4D4B8F1000F05D042483830C7
:1013C000016821F080510160A069A8B3DBF800102A
:1013D000C1F38101022947D00228C9F860A005D0D5
:1013E00000E03AE0FFF7F0FC044639E0FFF7ECFCE0
:1013F000064604E0FFF7E8FC801B02282DD8286889
:101400008001F7D4F4E907010843E168324A49084A
:1014100002EB0141A26841EA82110843217C40EAC3
:101420000160217D40EA017038600120C9F8600048
:10143000FFF7CAFC044606E044E000BFFFF7C4FC27
:10144000001B022809D828688001F7D53AE000BFC0
:10145000FFF7BAFC001B022802D90320BDE8F88F71
:1014600028688001F4D42DE00128F7D03868E269BB
:1014700000F48001914223D1226A00F03F019142A1
:101480001ED147F6C071626A0140B1EB821F17D1CD
:10149000A26A4FF0FF3300F4403103EB5202B1EB8C
:1014A000024F0DD194F82C2000F07061B1EB026F67
:1014B00006D194F8301000F0E040B0EB017F01D08D
:1014C0000120CBE70020C9E708380240000047426E
:1014D000800E4742007000400000FFFF10B5401E24
:1014E000B0F1807F01D3012010BD4FF0E024606196
:1014F0000F21601700F08AFE0020A0610720206104
:10150000002010BD70B590F83C20012A32D0012493
:1015100080F83C40022280F83D2003685A689D68AC
:1015200022F070060A6832435A60134B02689A42EE
:1015300014D0B2F1804F11D0104B9A420ED0104B04
:101540009A420BD00F4B9A4208D00F4B9A4205D0CB
:101550000E4B9A4202D00E4B9A4204D1496825F0B4
:1015600080031943916080F83D40002180F83C10D1
:10157000084670BD022070BD00000140000400401C
:1015800000080040000C0040000401400040014001
:101590000018004010B5040003D094F83D0010B1CD
:1015A00007E0012010BD002084F83C00204600F038
:1015B0001FF8022084F83D00211D206800F0BCFCCB
:1015C000012084F8460084F83E0084F83F0084F847
:1015D000400084F8410084F8420084F8430084F815
:1015E000440084F8450084F83D00002010BD000050
:1015F00008B5124A01681248914207D1016841F0CA
:1016000002010160006800F0020009E00D4A914209
:1016100008D1016841F004010160006800F0040095
:10162000009008BD084A9142FBD1016841F00801D1
:101630000160006800F00800F2E7000000040040CC
:101640004038024000080040000C004090F83D1077
:10165000012901D001207047022180F83D10006867
:101660001149884214D0B0F1804F11D00F498842FF
:101670000ED00F4988420BD00E49884208D00E493F
:10168000884205D00D49884202D00D49884204D1D4
:10169000816801F00701062903D0016841F00101CA
:1016A000016000207047000000000140000400407D
:1016B00000080040000C00400004014000400140D0
:1016C0000018004070B5044690F83C000025012841
:1016D00017D0012684F83C60022084F83D00206881
:1016E000826822F0770222F47F42826008685028E4
:1016F00038D00DDC20284FD005DC90B3102811D154
:101700004AE0022070BD302846D040280AD13BE094
:1017100060282FD070280DD0B0F5805F03D0B0F5D1
:10172000005F12D0012584F83D60002084F83C0061
:10173000284670BDCB68D1E90121206800F06DFC1E
:101740002068816841F0770109E0CB68D1E9012187
:10175000206800F062FC2068816841F4804181606B
:10176000E1E719E0CA684968206800F02BFD5021C4
:10177000206806E0CA684968206800F034FD6021EE
:10178000206800F054FCCEE7CA684968206800F081
:1017900019FD40212068F4E7226801461046F0E771
:1017A00030B587B0044614216846FEF7F2FD246880
:1017B000154D0022154802210323AC420ED10468C6
:1017C00044F004040460006800F004000590C801BF
:1017D0008DE80F00049169460D4810E00D4DAC42B4
:1017E0000FD1046844F002040460006800F00200B5
:1017F000059040208DE80F00049169460648FFF7E8
:10180000EFF907B030BD000000040040303802405E
:1018100000080240000800400004024070B50D4678
:10182000040003D094F83D0010B107E0012070BD22
:10183000002084F83C00204600F01BF8022084F8C9
:101840003D00211D206800F077FB2068016821F031
:101850000801016054F8460B01682943016001202A
:1018600004F81F09E0752076E0762077A075002047
:1018700070BD704770B5044690F83C0000260D46D8
:1018800001280FD0012084F83C006AB1042A1DD041
:10189000082A2FD00C2A3FD00126002084F83C00D3
:1018A000304670BD022070BD206800F0C9FB206882
:1018B000816941F0080181612068816921F004019A
:1018C0008161206881692A69114311E0206800F074
:1018D000E7FB2068816941F40061816120688169CA
:1018E00021F480618161206881692A6941EA0221CD
:1018F0008161D2E7206800F009FC2068C16941F0ED
:101900000801C1612068C16921F00401C16120683A
:10191000C1692A69114311E0206800F02BFC20689E
:10192000C16941F40061C1612068C16921F480612D
:10193000C1612068C1692A6941EA0221C161ACE73D
:1019400010B5040003D094F83D0010B107E0012069
:1019500010BD002084F83C00204600F01EF8022054
:1019600084F83D00211D206800F0E6FA012084F88B
:10197000460084F83E0084F83F0084F8400084F874
:10198000410084F8420084F8430084F8440084F85D
:10199000450084F83D00002010BD7047FEE70000C0
:1019A0007FB50024244800940194029421490394B3
:1019B000016001254FF480310561C0E9011405760D
:1019C00080F820401D49C0E90A140426C661C4609D
:1019D00080F830404461FEF743FF08B172B6FEE77D
:1019E000CDE90045694614480295FEF787FE08B127
:1019F00072B6FEE70224CDE9005469460E48FEF7B0
:101A00007DFE08B172B6FEE70094032469460A48D9
:101A10000194FEF773FE08B172B6FEE7CDE9004609
:101A200069460548FEF76AFE002801D072B6FEE757
:101A30007FBD000000220140A80000200100000F2F
:101A400030B587B014216846FEF7A3FC2248002475
:101A5000016841F001010160016801F00101059197
:101A6000016841F002010160016801F00201059185
:101A7000016841F0040101600068184D00F00400A5
:101A80000590012240212846FFF798F90320009095
:101A90004FF40410CDE9010469461148FFF7A0F89E
:101AA000402000900120CDE90104694628460394B6
:101AB000FFF796F8002211460620FFF7F3F90620FB
:101AC000FFF7E2F9002211460720FFF7EBF90720A4
:101AD000FFF7DAF907B030BD3038024000080240A5
:101AE0000004024030B58DB0002407940894099496
:101AF0000A940B941C2168460C94FEF74AFC2B4D6B
:101B000029482860B320C5E901044FF6FF70C5E9F4
:101B100003048020A8612846FFF73CFD08B172B697
:101B2000FEE74FF48050079007A92048FFF7CAFD51
:101B300008B172B6FEE71D48FFF702FF08B172B6A2
:101B4000FEE708211948FFF769FE08B172B6FEE703
:101B50000B940BA915480C94FFF7D4FC08B172B68E
:101B6000FEE76020009001200190022002900822F0
:101B7000694604940D48FFF77DFE08B172B6FEE792
:101B800001220821286800F03BFA29686FF0010063
:101B900008612868C16841F00101C1600348FFF78E
:101BA000FFFD0DB030BD000000040040F00000203B
:101BB00030B58DB000240794089409940A940B94CE
:101BC0001C2168460C94FEF7E4FB2B4D2948286045
:101BD000B320C5E901044FF6FF70C5E90304802076
:101BE000A8612846FFF7D6FC08B172B6FEE74FF4AD
:101BF0008050079007A92048FFF764FD08B172B62E
:101C0000FEE71D48FFF79CFE08B172B6FEE708210B
:101C10001948FFF703FE08B172B6FEE70B940BA953
:101C200015480C94FFF76EFC08B172B6FEE7602011
:101C30000090012001900220029000226946049445
:101C40000D48FFF717FE08B172B6FEE7012200212A
:101C5000286800F0D5F929686FF00100086128684C
:101C6000C16841F00101C1600348FFF799FD0DB063
:101C700030BD0000000800403801002010B586B0DB
:101C80000024174800940194029403940494134987
:101C9000059401605921C0E90114611EC0E90314D3
:101CA00080218161FFF776FC08B172B6FEE74FF440
:101CB0008050009069460A48FFF704FD08B172B6EB
:101CC000FEE7049404A906480594FFF71BFC0028CE
:101CD00001D072B6FEE706B010BD0000000C004057
:101CE00080010020FEE7FEE72048416E01293BD13C
:101CF000016D022902D0416D022935D190ED060A0D
:101D0000D0ED160A194970EE600A8031C0ED1E0A46
:101D100090ED1F0A70EE201AC0ED1F1A91ED010A16
:101D200030EEC01A81ED001A90ED0C0A90ED0D2AEC
:101D300020EE200A02EE210AD0ED0E1A01EE810AF1
:101D400081ED020AC1ED010AD0ED100AB4EEE00AFD
:101D5000F1EE10FA06DCD0ED0F0AB4EEE00AF1EE77
:101D600010FA01D2C1ED020A704700000000002005
:101D70007047000070B53C4C2DED048B214601F1FD
:101D8000800594ED058AD4ED1B0A91ED060A486E94
:101D9000B4EE608AF1EE10FA17D0012815D184ED67
:101DA0001B8A002129612146B4EEC08AD1ED070AC1
:101DB000F1EE10FA02DD38EE401A02E005D230EE04
:101DC000481AC1EE201AC4ED1C1A284909680A29CC
:101DD00037D3E968002934D10126012831D110EE2A
:101DE000100AEE6000F034FF9FED211B53EC112B25
:101DF00000F0FAFD41EC190B18EE100A00F028FF74
:101E000053EC192B00F0EEFE01D22869E0B1A06975
:101E100000F01EFF9FED181B53EC112B00F0E4FDAA
:101E200041EC180B606900F013FF53EC182B00F025
:101E30009FFD01D2286970B194ED050A84ED060A70
:101E40002E61BDEC048B70BD94ED060AD4ED1C0A26
:101E500030EE200A05E094ED060AD4ED1C0A30EEBF
:101E6000600A84ED060AECE700000020240C004024
:101E7000295C8FC2F528F03FAE47E17A14AEEF3F00
:101E80007047FEF7A7BF000030B593B03421684615
:101E9000FEF77FFA14210DA8FEF77BFA20480025F3
:101EA000016841F080510160006800F0805012909C
:101EB0001C48016841F4404101600068022400F4BC
:101EC000404012900120039010200490009406944A
:101ED0000820CDE90750B420CDE909040B946846E9
:101EE0000C94FFF72FF908B172B6FEE7FFF70CF874
:101EF00008B172B6FEE70DA90F2081E831004FF45A
:101F0000A05010904FF48050119005210DA8FFF7BC
:101F100033F8002801D072B6FEE713B030BD0000E0
:101F200040380240007000400248016841F47001EE
:101F30000160704788ED00E0F0B50268254C264D41
:101F4000264E274F274B4FF0804CA04209D06045CA
:101F500007D0A84205D0B04203D0B84201D0984281
:101F600004D122F0700E4A6842EA0E02A0421BD051
:101F7000604519D0A84217D0B04215D0B84213D04E
:101F8000984211D0184DA8420ED0184DA8420BD03F
:101F9000174DA84208D0174DA84205D0164DA842AB
:101FA00002D0164DA84203D122F44075CA682A43D4
:101FB0004D6922F080022A4302608A68C2620A6880
:101FC0008262A04201D0984201D1096901630121D6
:101FD0004161F0BD000001400004004000080040E5
:101FE000000C00400004014000400140004401405A
:101FF0000048014000180040001C00400020004044
:1020000010B501F01F030121046A99408C4304625A
:10201000016A9A401143016210BD10B5846842EA1A
:10202000032224F47F440A432243826010BD826865
:1020300022F070020A4342F00701816070470000FD
:10204000F0B5026A22F001020262036A4268846902
:10205000124E24F073050C682C4323F002058B68A4
:102060002B430D4DA84201D0B04205D123F0080703
:10207000CB683B4323F00403A84201D0B04205D112
:102080004D6922F4407215438A692A434260846193
:10209000496841630362F0BD000001400004014053
:1020A000F0B5026A22F010020262026A4368846993
:1020B0000D6824F4E64444EA05248D6822F02002E9
:1020C00042EA05120F4D104EA84201D0B04206D18F
:1020D000CF6822F0800242EA071222F04002A842B2
:1020E00001D0B04207D14D6923F4406343EA850330
:1020F0008D6943EA850343608461496881630262B4
:10210000F0BD00000000014000040140F0B5026A8B
:1021100022F480720262026A4368C46922F4007287
:1021200024F073050C68124E2C438D6842EA052298
:102130000E4DA84201D0B04206D1CF6822F4006211
:1021400042EA072222F48062A84201D0B04207D1BD
:102150004D6923F4405343EA05138D6943EA05139F
:102160004360C4614968C1630262F0BD0000014080
:102170000004014030B5026A22F480520262046A0F
:102180004268C3690D6823F4E64343EA05238D687A
:1021900024F4005444EA0534084DA84202D0084D06
:1021A000A84204D14D6922F4804242EA851242607D
:1021B000C36149680164046230BD00000000014051
:1021C0000004014010B5036A046A24F001040462AB
:1021D000846924F0F00444EA021423F00A020A435A
:1021E0008461026210BD10B5036A23F0100303621C
:1021F0008369046A23F4704343EA023224F0A003A3
:1022000043EA01118261016210BDFEE70907090E70
:10221000002804DB00F1E02080F80014704700F093
:102220000F0000F1E02080F8141D704708B5FEF79C
:10223000D9FDFFF729FEFFF703FC224800250168BE
:1022400041F48001016000682A4600F4800000909B
:1022500029463820FEF726FE3820FEF715FEFFF748
:1022600041FCFFF7A5FCFFF709FDFFF799FB1648B6
:10227000FFF7ECF91548016841F040010160144C8A
:102280009FED140AA56665652565A564E56484ED82
:10229000170A84ED160A00BF00F0C8F8206E012866
:1022A0000AD100F0AFF900F049F9606C012801D1C2
:1022B000FFF71AFDFFF75EFD00F00EF800F004F9DD
:1022C000EAE7000030380240800100201808024090
:1022D000000000200000000070B54C4C2DED088B74
:1022E000D4E9140150EA010205D002287DD000286B
:1022F0007AD1022978D1A56C002D7FD000EE105A3A
:10230000F8EE400A9FED421A81EE200A84ED170A8A
:1023100094ED021AC0EE010A9FED3E0A20EE800AFB
:1023200084ED160A94ED030AB8EE400A10EE100A86
:1023300000F08EFC00EE105A41EC1A0BB8EE400A89
:1023400010EE100A00F084FC9FED338B53EC182B39
:1023500000F04AFB9FED329B53EC192B00F082F901
:1023600053EC1A2B00F040FB00F0D4FA0646206034
:1023700026488030806800F06BFC94ED040A41EC44
:102380001B0BB8EE400A10EE100A00F061FC00EEE4
:10239000105A41EC1A0BB8EE400A10EE100A00F089
:1023A00057FC53EC182B00F01FFB53EC192B00F0DB
:1023B00059F953EC1A2B00F017FB53EC182B00F0D3
:1023C00013FB53EC192B00F04DF953EC1B2B00F0D1
:1023D0000BFB00F09FFA60603044B0F5803F03D300
:1023E0004FF6FE70801B606001E003E006E0BDEC8C
:1023F000088B70BD00293FF47EAFF5E79FED0A0A18
:1024000084ED160A84ED170AEEE7000000000020B4
:102410000024744900007042000000000000E03F0A
:102420000000000000408F400000000010B521486F
:1024300000210446036E204AA46E9FED200A012B62
:1024400001D0ABB123E014BB146844F480041460E1
:102450004FF4FA7242601A4A116001218166D0ED90
:10246000050AB0EE081AC0EE811AC0ED061A0EE099
:10247000012C0CD1146844F040041460816641655D
:1024800001658164C16480ED170A80ED160A416C14
:1024900009B1002B0DD180ED1E0A80ED1F0A054801
:1024A000803080ED000A80ED010A9FED060A80ED84
:1024B000020A10BD000000201808024000000000C1
:1024C000240C004000007A441A4810B5D0ED170AD9
:1024D00090ED080A01230146F4EEC00A0022F1EE55
:1024E00010FA096E01DD012908D0F4EEC00AF1EE00
:1024F00010FA07DD446C012C02D003E0436609E0CA
:10250000012901D029B105E043664FF47A73436095
:1025100000E04266036D022B00D10265436D022B81
:1025200000D14265002903D19FED030A80ED060A20
:1025300010BD0000000000200000000070B52C4815
:102540000024416E29B1012902D1816A44674162A8
:1025500070BD466F01237EB1264D254A2649803243
:102560002D68012E16D0022EF2D1214B56695B6ADE
:10257000012E18D026B331E020490B601F4A4FF6D8
:10258000FE71103A11601E4A13601D4A083A11602C
:10259000436770BD0C60296841F001012960022188
:1025A0005361416770BD0968B1EB530F16D31149F0
:1025B0005461483109680A6842F001020A6007E084
:1025C0000A689A420AD30C60296841F00101296027
:1025D000C26A416A914201D9891A4162C26A416A5A
:1025E0009142DFD2416E0029DCD1816A416270BD27
:1025F00000000020F0000020240C00403C040040BB
:1026000034080040104810B5046D0022022300F188
:102610008001012C05D14C691CB9CA6001240365F5
:102620004C61446D012C0AD14C69012C08D0016D1C
:10263000012904D1416E002901D14265026510BD16
:10264000CA6043654A6110BD00000020491058BFB0
:10265000C1F140415B1058BFC3F140438B42EFF3DF
:10266000008070472DE9C04130B4DFF8A0C23CEAD9
:10267000111418BF3CEA131400F0EC8081EA030542
:102680001CEA111444EAD57418BF1CEA131500F0B3
:10269000C780A4EB05044FF0004545EAC12145EA97
:1026A000C32341EA505143EA525304F17F749942E3
:1026B00004F500344FEAC0204FEAC22208BF90421E
:1026C00000F09C804FEA13650FF24016765D4FEAEA
:1026D000134506FB05F7C7F1807706FB07F74FEABE
:1026E000D737A7FB03687642C8F58038A7FB06CE2C
:1026F00038BFA8F1010807FB08E64FF0000EA6FB63
:10270000028CE6FB03CEDCF1000CCEF1004E38BFAC
:10271000AEF1010EA6FB0C584FF000074FF000057C
:10272000E6FB0E87A1FB08C6A0FB07CE16EB0E0644
:1027300045F10005E1FB076515F1E04E7EBFA4F50C
:1027400080345FEA46066D4116F1800745F10005C9
:102750004FEA17274FEA066647EA0567A6F1DE4605
:10276000B6F1805F4FEA15251FD9384624F0010CD9
:1027700005EBC471BCF1FE6F01EB0C1102D8F0BC8B
:10278000BDE8008124425CBF01F5801E9EEAC47F43
:1027900002D4F0BCBDE80081244238D4F0BCA1F1E1
:1027A000C041BDE8004100F017BA4FEAD22242EA28
:1027B00043524FEAD323A7FB02864FEAD02040EAD8
:1027C000415007FB03661EEA0E0F4FEAD12105FBBD
:1027D000026658BFA6EB0056B6EB00564FEA520E03
:1027E0004EEAC37E18EB0E0E56EB530EBDD518EB1A
:1027F00002085E417F1C55F10005B6E74FF48015D5
:102800004FF000074FF000064FF00008ADE7F0BCB6
:102810004FF0000001F1C04101F00041BDE800812E
:1028200011EA0C1F0CEA131500D00CE013EA0C1F80
:1028300000F025804FF00000F0BC81EA030101F0B8
:102840000041BDE80081F0BCBDE8004181EA030120
:1028500000F0C2B9F0BCBDE8004170B500F06EF9FF
:10286000097EFC3E00F007B881EA03014FF000004A
:1028700001F00041704781EA030100F0ADB9F0BCFE
:10288000BDE800414FF0000021497047FFFDFBF912
:10289000F7F5F4F2F0EEEDEBE9E8E6E4E3E1E0DE93
:1028A000DDDBDAD8D7D5D4D3D1D0CFCDCCCBCAC805
:1028B000C7C6C5C4C2C1C0BFBEBDBCBBBAB9B8B72C
:1028C000B6B5B4B3B2B1B0AFAEADACABAAA9A8A81F
:1028D000A7A6A5A4A3A3A2A1A09F9F9E9D9C9C9BED
:1028E0009A99999897979695959493939291919098
:1028F0008F8F8E8E8D8C8C8B8B8A89898888878729
:102900008685858484838382828181800000FF079D
:102910000000F87F4FEA1153A3F58063D3F11E0343
:10292000A8BFD3F1200C08DB4FF0004242EAC122DD
:1029300052EA505232FA03F0704709420BD4102B7E
:10294000C4BF0020704703F5787CBCF1FF3F05D081
:102950004FF0FF3070474FF00000704770B500F047
:10296000EDF800BF4992248000207047F0E7000096
:1029700051EA030C17D41CF5801F58BFBCF5801F0B
:1029800000F10680994218BF704708BF9042704717
:1029900007D711F5801F58BF13F5801F19D499422E
:1029A0007047894270471CF5801F08D5BCF5801F11
:1029B000F7D58B4218BF704708BF824270474FF46B
:1029C000001C1CEB410F38BF1CEB430F01D28B42A4
:1029D000704770B500F0B2F8922449004FF00051F2
:1029E0004FF08053FFF732BEDFF848C170B51CEAE4
:1029F000111E1EBF1CEA13159EEA0C0F95EA0C0F60
:102A000000F06F8081EA030423EA4C134EEAD47E7F
:102A100021EA4C1141F4801143F48013AE44A1FB30
:102A2000024CA0FB0365AEF17F7E361955EB0C0519
:102A3000A1FB034C4CF10003A0FB021C16EB0C069F
:102A4000654153F10003094218BF46F0010613F433
:102A5000007F0BD14FEA03314FEA0530340341EADE
:102A6000155140EA16506FF003020AE04FEAC32105
:102A70004FEAC520F40241EA555140EA56506FF042
:102A8000020202EB2E4201EB025585EACE710AD01A
:102A90005FEA440C18BF24F0004450F1000041F1FB
:102AA000000120EAD47040F2FE7C624500D270BD85
:102AB000A84214BF4FF080444FF04044002E08BF9E
:102AC0000024BEF1806FA8BFA1F1C041BDE87040F5
:102AD00080F282804FF0000001F1C04101F000411E
:102AE00070479EEA0C0F0CEA131518BF95EA0C0FFD
:102AF00006D04FF0000081EA030E0EF0004170BDD9
:102B000000F01CF88900013E00F007B800F009B899
:102B10004FEA430C5FEA5C5C08D081EA030100F0F5
:102B20005BB84FEA410C5FEA5C5CF6D14FF0000005
:102B3000014970470000FF070000F87F0EF1020E08
:102B40002EF0030E5EF8046B364205D4012A43EBE7
:102B5000030515F5001F12D8012841EB010C1CF5E7
:102B6000001F0CD80ED14FEAD17C15F5001F0CEBDD
:102B70004C0C0CF1020C08BF4CEBD37C04E04FF082
:102B8000080C01E04FEAD37C0CEB4C0526FA05F665
:102B900006F00706B6F1040C06D20EEB860CBDE873
:102BA00070404CF0010C6047DFE80CF0090B0202AA
:102BB0004FF000414FF00000A1F5002170BD194613
:102BC0001046012851EB010418BFD4F5001484BF4E
:102BD000002001F0004170BD0808A0F500114FEA87
:102BE0003101704753EA010C17D41CF5801F58BF00
:102BF000BCF5801F00F106808B4218BF704708BFEC
:102C00008242704707D713F5801F58BF11F5801F08
:102C100019D48B4270479B4270471CF5801F08D522
:102C2000BCF5801FF7D5994218BF704708BF904286
:102C300070474FF4001C1CEB430F38BF1CEB410FD7
:102C400001D2994270470FB40CBC03BCFFF7C1BE60
:102C500043004FEAD30C4FEA3C0C43401FBF4007F0
:102C60000CF1605113F0FE4F70471CF0006F03D160
:102C700000200CF0004170470CF0004343EA507014
:102C800010B540EACC0000F00EF800BF0000009242
:102C90004FEA0001FFF7A0BF4FF000414FF00000E6
:102CA000A1F5002170470EF1020E2EF0030E5EF822
:102CB000044B244204D44FEA4102B2F17F4F11D8B1
:102CC0004FEA4003B3F17F4F0CD80ED14FEAD07CCE
:102CD000B2F17F4F0CEB4C0C0CF1020C08BF4CEB2B
:102CE000D17C04E04FF0080C01E04FEAD17C0CEB02
:102CF0004C0324FA03F404F00704B4F1040C06D2E4
:102D00000EEB840CBDE810404CF0010C6047DFE88E
:102D10000CF0070802024FF00040A0F5800010BD43
:102D20000846420018BFD2F1807288BF00F0004010
:102D300010BD4FF04070E1EE100A7047000610160B
:102D4000000610160000000000000000010203044D
:102D500006070809742D000800000020A8000000E4
:102D6000000200081C2E0008A8000020E007000058
:102D70001C02000800000000E803000000004040C2
:102D800000000000E803000000007A4400007A44DC
:102D90000000C8420000004020A1070020A1070059
:102DA000640000000000F0406F12833ACDCCCC3DAF
:102DB0000000803F00007A44010000000000000095
:102DC0000000000000000000000000000000000003
:102DD00000000000000000000000000000000000F3
:102DE00000000000000000000000000000000000E3
:102DF00000000000000000000000000000000000D3
:102E000000000000000000000000000001000000C1
:0C2E100010000000000000000024F4008E
:04000005080001C529
:00000001FF
