:020000040800F2
:1000000070070020650200087B1400080512000834
:10001000791400085B040008E717000800000000DE
:100020000000000000000000000000007F14000835
:100030005D040008000000007D1400088114000821
:100040007F0200087F0200087F0200087F0200088C
:100050007F0200087F020008610400088504000890
:100060007F0200087F0200087F0200087F0200086C
:100070007F0200087F0200087F0200087F0200085C
:100080007F0200087F0200087F0200087F0200084C
:100090007F0200087F0200087F0200087F0200083C
:1000A0007F0200087F0200087F0200087F0200082C
:1000B0007F0200087F0200087F0200087F0200081C
:1000C0007F0200087F0200087F0200087F0200080C
:1000D0007F0200087F0200087F0200087F020008FC
:1000E0007F0200087F0200087F0200087F020008EC
:1000F0007F0200087F0200087F0200087F020008DC
:100100007F0200087F0200087F0200087F020008CB
:100110007F0200087F0200087F0200087F020008BB
:100120007F0200087F0200087F0200087F020008AB
:100130007F02000800000000000000007F020008AD
:100140007F0200087F0200087F0200087F0200088B
:100150007F0200087F0200087F0200087F0200087B
:100160007F0200087F0200087F0200087F0200086B
:100170007F0200087F0200087F02000800000000E4
:10018000000000007F0200080000000000000000E6
:100190007F02000800000000000000007F0200084D
:1001A0000000000000000000000000007F020008C6
:1001B0007F0200087F0200087F0200087F0200081B
:1001C0007F02000800F002F800F03CF80AA090E876
:1001D000000C82448344AAF10107DA4501D100F002
:1001E00031F8AFF2090EBAE80F0013F0010F18BF93
:1001F000FB1A43F001031847841D0000A41D0000F2
:10020000103A24BF78C878C1FAD8520724BF30C842
:1002100030C144BF04680C60704700000023002414
:1002200000250026103A28BF78C1FBD8520728BF06
:1002300030C148BF0B6070471FB501F092FE1FBD73
:1002400010B510BD00F0CFF81146FFF7F5FF01F033
:10025000DBFA00F0EDF803B4FFF7F2FF03BC00F0A7
:10026000F5F800000948804709480047FEE7FEE727
:10027000FEE7FEE7FEE7FEE7FEE7FEE7FEE7FEE756
:1002800004480549054A064B70470000051500085B
:10029000C5010008700100207007002070030020D5
:1002A0007003002053EA020C00F069802DE9F04B46
:1002B0004FF00006002B1FBFB3FA83F503FA05F4D5
:1002C00024FA05F65E4012BF1643B2FA82F502FA2E
:1002D00005F4C5F120051EBF22FA05FC44EA0C0412
:1002E000203556EA044C4FEA144418BF641C4FF002
:1002F00000084FF00009904271EB030C39D300293C
:1003000019BFB1FA81F701FA07F6B0FA80F700FADF
:1003100007F6C7F120071EBF20FA07FC46EA0C06C5
:100320002037B6FBF4FCA7EB0507103F07F01F0BC7
:10033000CBF120060CFA0BFB2CFA06F644BFB346B1
:100340000026202FA4BF5E464FF0000B5BEA060C90
:1003500008BF4FF0010B19EB0B09ABFB027C48EB1C
:100360000608C01B06FB02CC0BFB03CC71EB0C0197
:10037000C1E70B46024641464846BDE8F08B13B53F
:100380004FF000004FF00001AFF30080BDE81C40CB
:1003900070474FF0000200B5134694469646203948
:1003A00022BFA0E80C50A0E80C50B1F12001BFF42E
:1003B000F7AF090728BFA0E80C5048BF0CC05DF894
:1003C00004EB890028BF40F8042B08BF704748BFE2
:1003D00020F8022B11F0804F18BF00F8012B704756
:1003E000704770477047754600F02CF8AE46050020
:1003F0006946534620F00700854618B020B5FFF740
:100400003FFFBDE820404FF000064FF000074FF0DF
:1004100000084FF0000B21F00701AC46ACE8C00922
:10042000ACE8C009ACE8C009ACE8C0098D4670472B
:1004300010B50446AFF300802046BDE81040FFF73A
:100440000ABF000000487047100100200149182031
:10045000ABBEFEE7260002007047FEE770470000D3
:1004600005480168054A1160002101600449012026
:10047000086000F019B80000240C004014000020AF
:100480001C00002004480068044908600449012059
:100490000860022000F008B8240C0040180000207A
:1004A0002000002070470000044910B50A6802428D
:1004B00002D00860FFF7F6FF10BD0000143C0140B9
:1004C0002DE9F84FDFF8ACA10022012403254FF0FD
:1004D0000F090AF1040BAAF1040E00BF0B6804FA1D
:1004E00002F63340B3426ED10F7907F00307012FB4
:1004F00001D0022F16D187684FEA420805FA08FC9E
:1005000027EA0C07D1F80CC00CFA08FC4CEA070CDF
:10051000C0F808C04768B7430E79C6F30016964086
:100520003E4346600E79F643B6070AD0C6684FEAE6
:10053000420C05FA0CF7BE438F6807FA0CF73743F5
:10054000C7600E7906F00306022E10D1D60800EB24
:100550008608D8F8206057074FEAD76C09FA0CF7DD
:10056000BE430F6907FA0CF73743C8F820700668D6
:100570004FEA420C05FA0CF7BE430F7907F0030768
:1005800007FA0CF7374307604E6816F4403F6BD00C
:10059000394E376847F480473760366822F00307E2
:1005A00006F480460096354E07EB060CDCF808682A
:1005B00097074FEA177809FA08F7BE43304FB84259
:1005C00002D100271FE04FE02E4FB84201D1012792
:1005D00019E02D4FB84201D1022714E02B4FB84249
:1005E00001D103270FE02A4FB84201D104270AE0C6
:1005F000284FB84201D1052705E0274FB84201D165
:10060000062700E0072707FA08F73743CCF80878F1
:10061000DAF800605746D1F804C09E435FEACC2C5C
:1006200000D51E433E60DBF800605F46D1F804C091
:100630009E435FEA8C2C00D51E433E60DEF80060CE
:100640007746D1F804C09E435FEA8C3C00D51E4338
:100650003E60084F083F3E68D1F804C09E435FEA01
:10066000CC3C00D51E433E60521C102AFFF436AF2E
:10067000BDE8F88F083C014044380240003001409A
:10068000000002400004024000080240000C02404A
:100690000010024000140240001802400148806827
:1006A0007047000028000020024881680278114449
:1006B00081607047280000200B4810B5016841F4A4
:1006C00000710160016841F480610160016841F4DA
:1006D00080710160032000F06FF80F2000F006F831
:1006E00000F024F8002010BD003C024070B50D4D14
:1006F00004464FF47A712878B1FBF0F00A49096892
:10070000B1FBF0F000F01CFB48B9102C07D200221E
:100710002146501E00F030F800206C6070BD0120B2
:1007200070BD000028000020340000200A4808B5F1
:10073000016841F480410160006800F4804000904D
:100740000548001F016841F080510160006800F019
:100750008050009008BD000044380240002809DBAA
:1007600000F01F02012191404009800000F1E020CB
:10077000C0F8001170470000F0B40E4B1B680C4627
:10078000C3F30223C3F10705042D00D90425191D65
:10079000072901D2002300E0DB1E012606FA05F13D
:1007A000491E214099409E40761E16403143F0BCC0
:1007B00001F01AB80CED00E0064900F007020868E5
:1007C0004FF6FF03184040EA0220034A1043086036
:1007D000704700000CED00E00000FA052DE9F0473D
:1007E0000E46050065D0DFF81481D8F80000F7B296
:1007F00000F00F00B04207D288F80070D8F800006F
:1008000000F00F00B04254D128683D4C810712D54A
:10081000400703D5206840F4E050206028780007A6
:1008200003D5206840F4604020602068A96820F06B
:10083000F000084320602878C0072DD03049686850
:100840000839012812D0022813D0032811D00968D2
:10085000890700292DDA216821F003010143216075
:10086000FFF71CFF814641F2883A0EE009688903D0
:10087000EFE709688901ECE7FFF710FFA0EB09013A
:10088000514502D90320BDE8F0872068696800F06F
:100890000C00B0EB810FEFD1D8F80010404601F00A
:1008A0000F01B14207D90770006800F00F00B04295
:1008B00001D00120E7E72878400705D52068E968DE
:1008C00020F4E050084320602878000706D520680F
:1008D000296920F4604040EAC100206000F018F867
:1008E0002168084AC1F30311515CC84006490860F9
:1008F00006480068FFF7FAFE0020C4E7003C02400B
:10090000083802406C1F0008340000202C00002032
:10091000224810B5006810F00C02214815D021497A
:10092000042A11D01D4C241F082A0FD00C2A0CD1E8
:100930002268236802F03F025B0221D52068C0F3E1
:100940008810A0FB010120E0084610BD2268236842
:1009500002F03F025B0205D52068C0F38810A0FBBF
:10096000010104E02168C1F38811A1FB000100230B
:10097000FFF798FC2168C1F30141491C49000AE0D6
:100980002168C1F38811A1FB00010023FFF78AFC55
:100990002168C1F30271B0FBF1F010BD08380240CC
:1009A0000024F40040787D012DE9F84F04007DD04B
:1009B000DFF878B32078ABF10407C007A7F104058E
:1009C00050D0DBF800105846C1F3810101290FD047
:1009D0000168C1F38101022902D13968490207D4B3
:1009E0000068C0F38100032809D13868400206D5A9
:1009F0002868800336D560680028D8D032E0606867
:100A0000B0F5803F10D0B0F5A02F286810D020F4AA
:100A100080302860286820F4802028606068A0B1B9
:100A2000FFF73CFE06460CE0286840F48030F4E70F
:100A300040F480202860F7E7FFF730FE801B642831
:100A400076D828688003F7D50CE0FFF727FE064626
:100A500005E000BFFFF722FE801B6428F0D828685D
:100A60008003F7D42078DFF8C89280074FF0000A9F
:100A700044D5DBF80010584611F00C0F0FD0016878
:100A8000C1F38101022902D13968490207D5006802
:100A9000C0F3810003280AD13868400207D42868CF
:100AA000800715D5E068012800D111E03AE1E0683F
:100AB000B0B10120C9F80000FFF7F0FD064604E0E0
:100AC000FFF7ECFD801B0228BAD828688007F7D50D
:100AD0002868216920F0F80040EAC10028600DE094
:100AE000C9F800A0FFF7DAFD064604E0FFF7D6FDDF
:100AF000801B02281CD828688007F7D420780007BC
:100B000027D5DFF828828B48616908F16C0881B12C
:100B100001210160FFF7C2FD064604E0FFF7BEFDBC
:100B2000801B022804D8D8F800008007F6D510E012
:100B300089E0C0F800A0FFF7B1FD064605E000BF60
:100B4000FFF7ACFD801B02287DD8D8F80000800795
:100B5000F6D42078400769D574484FF00008383043
:100B60000068C0000BD471483830016841F08051F2
:100B7000016000684FF0010800F0805000906E4E58
:100B80003068C00511D4306840F480703060FFF7E1
:100B900085FD009006E000BFFFF780FD0099401A38
:100BA000022850D83068C005F6D5604EA068683677
:100BB00001280FD00528306810D020F001003060E7
:100BC000306820F004003060A068B8B1FFF766FD1F
:100BD00000900FE0306840F00100F4E740F00400BE
:100BE0003060F7E7FFF75AFD0099411A41F288306B
:100BF000814264D830688007F4D50EE0FFF74EFDDF
:100C0000009007E0FFF74AFD0099411A41F2883051
:100C1000814254D830688007F4D4B8F1000F05D071
:100C200042483830016821F080510160A069A8B3C2
:100C3000DBF80010C1F38101022947D00228C9F86E
:100C400060A005D000E03AE0FFF728FD044639E057
:100C5000FFF724FD064604E0FFF720FD801B022875
:100C60002DD828688001F7D4F4E907010843E1682A
:100C7000324A490802EB0141A26841EA8211084365
:100C8000217C40EA0160217D40EA0170386001204A
:100C9000C9F86000FFF702FD044606E044E000BF2B
:100CA000FFF7FCFC001B022809D828688001F7D553
:100CB0003AE000BFFFF7F2FC001B022802D9032034
:100CC000BDE8F88F28688001F4D42DE00128F7D022
:100CD0003868E26900F48001914223D1226A00F071
:100CE0003F0191421ED147F6C071626A0140B1EBEB
:100CF000821F17D1A26A4FF0FF3300F4403103EB9B
:100D00005202B1EB024F0DD194F82C2000F070612B
:100D1000B1EB026F06D194F8301000F0E040B0EB78
:100D2000017F01D00120CBE70020C9E7083802404D
:100D300000004742800E4742007000400000FFFF65
:100D400010B5401EB0F1807F01D3012010BD4FF0DF
:100D5000E02460610F21601700F046FD0020A061D3
:100D600007202061002010BD70B590F83C20012ABA
:100D700032D0012480F83C40022280F83D200368F4
:100D80005A689D6822F070060A6832435A60134B15
:100D900002689A4214D0B2F1804F11D0104B9A429F
:100DA0000ED0104B9A420BD00F4B9A4208D00F4BEB
:100DB0009A4205D00E4B9A4202D00E4B9A4204D171
:100DC000496825F080031943916080F83D40002177
:100DD00080F83C10084670BD022070BD0000014044
:100DE0000004004000080040000C004000040140E6
:100DF000004001400018004010B5040003D094F8F2
:100E00003D0010B107E0012010BD002084F83C0037
:100E1000204600F01FF8022084F83D00211D2068C4
:100E200000F078FB012084F8460084F83E0084F846
:100E30003F0084F8400084F8410084F8420084F8C0
:100E4000430084F8440084F8450084F83D00002005
:100E500010BD000008B5124A01681248914207D13E
:100E6000016841F002010160006800F0020009E041
:100E70000D4A914208D1016841F004010160006807
:100E800000F00400009008BD084A9142FBD10168BF
:100E900041F008010160006800F00800F2E700007E
:100EA000000400404038024000080040000C0040B0
:100EB00090F83D10012901D001207047022180F8EF
:100EC0003D1000681149884214D0B0F1804F11D014
:100ED0000F4988420ED00F4988420BD00E498842F4
:100EE00008D00E49884205D00D49884202D00D49EC
:100EF000884204D1816801F00701062903D0016806
:100F000041F0010101600020704700000000014035
:100F10000004004000080040000C004000040140B4
:100F2000004001400018004070B5044690F83C00B5
:100F30000025012817D0012684F83C60022084F89F
:100F40003D002068826822F0770222F47F428260AE
:100F50000868502838D00DDC20284FD005DC90B32D
:100F6000102811D14AE0022070BD302846D0402818
:100F70000AD13BE060282FD070280DD0B0F5805FFB
:100F800003D0B0F5005F12D0012584F83D60002049
:100F900084F83C00284670BDCB68D1E90121206867
:100FA00000F029FB2068816841F0770109E0CB68F7
:100FB000D1E90121206800F01EFB2068816841F41E
:100FC00080418160E1E719E0CA684968206800F063
:100FD000E7FB5021206806E0CA684968206800F0F5
:100FE000F0FB6021206800F010FBCEE7CA6849687A
:100FF000206800F0D5FB40212068F4E72268014614
:101000001046F0E710B586B0044614216846FFF795
:10101000C0F92368164C002116480222A34210D1C1
:10102000036843F004030360006800F004000590C7
:10103000D0010090CDE90121CDE9031269460E48A7
:1010400012E00E4CA34211D1036843F00203036087
:10105000006800F00200059040200090CDE90121D9
:10106000CDE9031269460648FFF72AFA06B010BD1B
:1010700000040040303802400008024000080040F0
:101080000004024070B50D46040003D094F83D0002
:1010900010B107E0012070BD002084F83C0020461C
:1010A00000F01BF8022084F83D00211D206800F0AC
:1010B00031FA2068016821F00801016054F8460BFC
:1010C000016829430160012004F81F09E0752076BA
:1010D000E0762077A075002070BD704770B504469B
:1010E00090F83C0000260D4601280FD0012084F81E
:1010F0003C006AB1042A1DD0082A2FD00C2A3FD008
:101100000126002084F83C00304670BD022070BDEE
:10111000206800F083FA2068816941F0080181614C
:101120002068816921F004018161206881692A6950
:10113000114311E0206800F0A1FA2068816941F4B0
:10114000006181612068816921F48061816120688A
:1011500081692A6941EA02218161D2E7206800F0B1
:10116000C3FA2068C16941F00801C1612068C16902
:1011700021F00401C1612068C1692A69114311E0AD
:10118000206800F0E5FA2068C16941F40061C1619E
:101190002068C16921F48061C1612068C1692A6940
:1011A00041EA0221C161ACE710B5040003D094F814
:1011B0003D0010B107E0012010BD002084F83C0084
:1011C000204600F01EF8022084F83D00211D206812
:1011D00000F0A0F9012084F8460084F83E0084F86D
:1011E0003F0084F8400084F8410084F8420084F80D
:1011F000430084F8440084F8450084F83D00002052
:1012000010BD7047FEE7000000B587B014216846A6
:10121000FFF7BFF816480021026842F002020260A0
:10122000026802F002020592026842F004020260C3
:10123000006800F004000590032000904FF488102F
:10124000CDE9010169460B48FFF73AF90022114642
:101250000620FFF791FA0620FFF780FA00221146D8
:101260000720FFF789FA0720FFF778FA07B000BDDB
:10127000303802400004024030B58DB0002407949D
:10128000089409940A940B941C2168460C94FFF767
:1012900080F82B4D29482860B320C5E901044FF69A
:1012A000FF70C5E903048020A8612846FFF7A4FD6C
:1012B00008B172B6FEE74FF48050079007A92048A6
:1012C000FFF732FE08B172B6FEE71D48FFF76CFF6C
:1012D00008B172B6FEE708211948FFF7D3FE08B13E
:1012E00072B6FEE70B940BA915480C94FFF73CFD72
:1012F00008B172B6FEE76020009001200190022044
:1013000002900822694604940D48FFF7E7FE08B1F1
:1013100072B6FEE701220821286800F05FF929680B
:101320006FF0010008612868C16841F00101C160E7
:101330000348FFF767FE0DB030BD00000004004019
:101340003800002030B58DB000240794089409942B
:101350000A940B941C2168460C94FFF71AF82B4D45
:1013600029482860B320C5E901044FF6FF70C5E99C
:1013700003048020A8612846FFF73EFD08B172B63D
:10138000FEE74FF48050079007A92048FFF7CCFDF7
:1013900008B172B6FEE71D48FFF706FF08B172B646
:1013A000FEE708211948FFF76DFE08B172B6FEE7A7
:1013B0000B940BA915480C94FFF7D6FC08B172B634
:1013C000FEE76020009001200190022002900022A0
:1013D000694604940D48FFF781FE08B172B6FEE736
:1013E00001220021286800F0F9F829686FF0010057
:1013F00008612868C16841F00101C1600348FFF736
:1014000001FE0DB030BD000000080040800000204B
:1014100010B586B0002417480094019402940394F8
:101420000494134905940160B321C0E90114611EBD
:10143000C0E9031480218161FFF7DEFC08B172B6B8
:10144000FEE74FF48050009069460A48FFF76CFDB4
:1014500008B172B6FEE7049404A906480594FFF7A4
:1014600083FC002801D072B6FEE706B010BD000074
:10147000000C0040C8000020FEE7FEE77047704700
:10148000FFF712B910B594B034216846FEF781FF1A
:1014900014210DA8FEF77DFF18480024016841F0D3
:1014A00080510160006800F080501290144801687B
:1014B00021F4404141F4804101600068069400F449
:1014C00040401290022000900120039010200490D0
:1014D0006846FFF769FA08B172B6FEE70F20CDE95A
:1014E0000D040F94109400210DA81194FFF776F9C4
:1014F000002801D072B6FEE714B010BD403802409B
:10150000007000400248016841F4700101607047BA
:1015100088ED00E0F0B50268254C264D264E274F99
:10152000274B4FF0804CA04209D0604507D0A8421D
:1015300005D0B04203D0B84201D0984204D122F085
:10154000700E4A6842EA0E02A0421BD0604519D0D4
:10155000A84217D0B04215D0B84213D0984211D04B
:10156000184DA8420ED0184DA8420BD0174DA842D6
:1015700008D0174DA84205D0164DA84202D0164DEE
:10158000A84203D122F44075CA682A434D6922F06B
:1015900080022A4302608A68C2620A688262A042AC
:1015A00001D0984201D10969016301214161F0BD77
:1015B000000001400004004000080040000C004012
:1015C0000004014000400140004401400048014047
:1015D00000180040001C00400020004010B501F041
:1015E0001F030121046A99408C430462016A9A40F6
:1015F0001143016210BD10B5846842EA032224F44D
:101600007F440A432243826010BD826822F0700248
:101610000A4342F00701816070470000F0B5026A9A
:1016200022F001020262036A42688469124E24F0C9
:1016300073050C682C4323F002058B682B430D4D7A
:10164000A84201D0B04205D123F00807CB683B4344
:1016500023F00403A84201D0B04205D14D6922F421
:10166000407215438A692A43426084614968416334
:101670000362F0BD0000014000040140F0B5026AC1
:1016800022F010020262026A436884690D6824F441
:10169000E64444EA05248D6822F0200242EA05125D
:1016A0000F4D104EA84201D0B04206D1CF6822F0B3
:1016B000800242EA071222F04002A84201D0B04262
:1016C00007D14D6923F4406343EA85038D6943EAFA
:1016D000850343608461496881630262F0BD000054
:1016E0000000014000040140F0B5026A22F480725B
:1016F0000262026A4368C46922F4007224F073052E
:101700000C68124E2C438D6842EA05220E4DA84209
:1017100001D0B04206D1CF6822F4006242EA07222B
:1017200022F48062A84201D0B04207D14D6923F46F
:10173000405343EA05138D6943EA05134360C461CE
:101740004968C1630262F0BD00000140000401402D
:1017500030B5026A22F480520262046A4268C369A8
:101760000D6823F4E64343EA05238D6824F400540E
:1017700044EA0534084DA84202D0084DA84204D1DD
:101780004D6922F4804242EA85124260C361496891
:101790000164046230BD000000000140000401400B
:1017A00010B5036A046A24F001040462846924F019
:1017B000F00444EA021423F00A020A43846102623C
:1017C00010BD10B5036A23F0100303628369046A35
:1017D00023F4704343EA023224F0A00343EA0111E8
:1017E0008261016210BDFEE70907090E002804DBD3
:1017F00000F1E02080F80014704700F00F0000F1C5
:10180000E02080F8141D70472DED068BFEF754FF85
:10181000FFF738FEFFF7F8FCFFF72EFDFFF792FD0C
:10182000FFF7F6FD4948FFF743FB494E494C0027B7
:10183000E06901280ED13068216888420AD3464900
:10184000E76160680860414890380068016841F0CD
:1018500001010160206A012810D13068A269216865
:10186000114488420AD33D492762606808603748BE
:1018700048380068016841F001010160D4E90701BE
:101880000843D5D16569002D5BD000EE105AD4ED28
:10189000020AB8EE400A20EE200ADFED310A80EE9F
:1018A000801A84ED091A94ED030AB8EE400A10EE8E
:1018B000100A00F0E5FA00EE105A41EC180BB8EEF1
:1018C000400A10EE100A00F0DBFA9FED26AB53EC55
:1018D0001A2B00F0D7F99FED259B53EC192B00F044
:1018E0004BF853EC182B00F0CDF900F09DF9206077
:1018F00094ED040AB8EE400A10EE100A00F0C0FAA7
:1019000000EE105A41EC180BB8EE400A10EE100A27
:1019100000F0B6FA53EC1A2B00F0B4F953EC192B83
:1019200000F02AF853EC182B00F0ACF900F07CF929
:101930006060B0F5803FFFF47BAF4FF6FE706060F3
:1019400076E79FED0C0A84ED090A71E7C8000020D4
:10195000240C0040000000202C0400402C08004013
:1019600000247449000000000000E03F0000000077
:1019700000908F40000000002DE9C04130B4DFF836
:10198000A0C23CEA111418BF3CEA131400F0EC802A
:1019900081EA03051CEA111444EAD57418BF1CEA55
:1019A000131500F0C780A4EB05044FF0004545EA8D
:1019B000C12145EAC32341EA505143EA525304F19D
:1019C0007F74994204F500344FEAC0204FEAC222E6
:1019D00008BF904200F09C804FEA13650FF240165A
:1019E000765D4FEA134506FB05F7C7F1807706FBE6
:1019F00007F74FEAD737A7FB03687642C8F5803868
:101A0000A7FB06CE38BFA8F1010807FB08E64FF098
:101A1000000EA6FB028CE6FB03CEDCF1000CCEF13F
:101A2000004E38BFAEF1010EA6FB0C584FF0000778
:101A30004FF00005E6FB0E87A1FB08C6A0FB07CE12
:101A400016EB0E0645F10005E1FB076515F1E04ECA
:101A50007EBFA4F580345FEA46066D4116F180072B
:101A600045F100054FEA17274FEA066647EA056782
:101A7000A6F1DE46B6F1805F4FEA15251FD938463C
:101A800024F0010C05EBC471BCF1FE6F01EB0C11ED
:101A900002D8F0BCBDE8008124425CBF01F5801E85
:101AA0009EEAC47F02D4F0BCBDE80081244238D451
:101AB000F0BCA1F1C041BDE8004100F0DBB94FEA44
:101AC000D22242EA43524FEAD323A7FB02864FEACF
:101AD000D02040EA415007FB03661EEA0E0F4FEA92
:101AE000D12105FB026658BFA6EB0056B6EB0056A7
:101AF0004FEA520E4EEAC37E18EB0E0E56EB530E13
:101B0000BDD518EB02085E417F1C55F10005B6E714
:101B10004FF480154FF000074FF000064FF000081B
:101B2000ADE7F0BC4FF0000001F1C04101F0004111
:101B3000BDE8008111EA0C1F0CEA131500D00CE07F
:101B400013EA0C1F00F025804FF00000F0BC81EA82
:101B5000030101F00041BDE80081F0BCBDE8004197
:101B600081EA030100F086B9F0BCBDE8004170B520
:101B700000F032F9097EFC3E00F007B881EA03016B
:101B80004FF0000001F00041704781EA030100F0CE
:101B900071B9F0BCBDE800414FF000002149704729
:101BA000FFFDFBF9F7F5F4F2F0EEEDEBE9E8E6E422
:101BB000E3E1E0DEDDDBDAD8D7D5D4D3D1D0CFCDA9
:101BC000CCCBCAC8C7C6C5C4C2C1C0BFBEBDBCBBE2
:101BD000BAB9B8B7B6B5B4B3B2B1B0AFAEADACABDD
:101BE000AAA9A8A8A7A6A5A4A3A3A2A1A09F9F9EB7
:101BF0009D9C9C9B9A999998979796959594939369
:101C0000929191908F8F8E8E8D8C8C8B8B8A8989FF
:101C10008888878786858584848383828281818082
:101C20000000FF070000F87F4FEA1153A3F580631F
:101C3000D3F11E03A8BFD3F1200C08DB4FF0004204
:101C400042EAC12252EA505232FA03F07047094286
:101C50000BD4102BC4BF0020704703F5787CBCF177
:101C6000FF3F05D04FF0FF3070474FF00000704746
:101C700070B500F0B1F800BF499224800020704791
:101C8000F0E70000DFF848C170B51CEA111E1EBF66
:101C90001CEA13159EEA0C0F95EA0C0F00F06F80FA
:101CA00081EA030423EA4C134EEAD47E21EA4C1164
:101CB00041F4801143F48013AE44A1FB024CA0FB1D
:101CC0000365AEF17F7E361955EB0C05A1FB034C85
:101CD0004CF10003A0FB021C16EB0C06654153F10E
:101CE0000003094218BF46F0010613F4007F0BD130
:101CF0004FEA03314FEA0530340341EA155140EA17
:101D000016506FF003020AE04FEAC3214FEAC520E4
:101D1000F40241EA555140EA56506FF0020202EBDC
:101D20002E4201EB025585EACE710AD05FEA440CDF
:101D300018BF24F0004450F1000041F1000120EAF6
:101D4000D47040F2FE7C624500D270BDA84214BF40
:101D50004FF080444FF04044002E08BF0024BEF1F5
:101D6000806FA8BFA1F1C041BDE8704080F28280C1
:101D70004FF0000001F1C04101F0004170479EEAC0
:101D80000C0F0CEA131518BF95EA0C0F06D04FF094
:101D9000000081EA030E0EF0004170BD00F01CF857
:101DA0008900013E00F007B800F009B84FEA430C83
:101DB0005FEA5C5C08D081EA030100F05BB84FEA9F
:101DC000410C5FEA5C5CF6D14FF0000001497047BE
:101DD0000000FF070000F87F0EF1020E2EF0030E48
:101DE0005EF8046B364205D4012A43EB030515F572
:101DF000001F12D8012841EB010C1CF5001F0CD864
:101E00000ED14FEAD17C15F5001F0CEB4C0C0CF1F8
:101E1000020C08BF4CEBD37C04E04FF0080C01E04F
:101E20004FEAD37C0CEB4C0526FA05F606F00706C4
:101E3000B6F1040C06D20EEB860CBDE870404CF0F7
:101E4000010C6047DFE80CF0090B02024FF0004183
:101E50004FF00000A1F5002170BD19461046012881
:101E600051EB010418BFD4F5001484BF002001F029
:101E7000004170BD0808A0F500114FEA310170471C
:101E800043004FEAD30C4FEA3C0C43401FBF4007CE
:101E90000CF1605113F0FE4F70471CF0006F03D13E
:101EA00000200CF0004170470CF0004343EA5070F2
:101EB00010B540EACC0000F00EF800BF0000009220
:101EC0004FEA0001FFF7D6BF4FF000414FF000008E
:101ED000A1F5002170470EF1020E2EF0030E5EF800
:101EE000044B244204D44FEA4102B2F17F4F11D88F
:101EF0004FEA4003B3F17F4F0CD80ED14FEAD07CAC
:101F0000B2F17F4F0CEB4C0C0CF1020C08BF4CEB08
:101F1000D17C04E04FF0080C01E04FEAD17C0CEBDF
:101F20004C0324FA03F404F00704B4F1040C06D2C1
:101F30000EEB840CBDE810404CF0010C6047DFE86C
:101F40000CF0070802024FF00040A0F5800010BD21
:101F50000846420018BFD2F1807288BF00F00040EE
:101F600010BD4FF04070E1EE100A70470000000015
:101F70000000000001020304060708099C1F000876
:101F8000000000203800000000020008D41F0008F4
:101F900038000020380700001C0200086400000020
:101FA000E803000000004040E8030000E8030000F0
:101FB0000000000000000000000000000000000021
:101FC0000000000001000000100000000000000000
:041FD0000024F400F5
:04000005080001C529
:00000001FF
